:020000040800F2
:10000000000001101DEB0308D74E00080D64020824
:10001000D9EB0308D9EB0308D9EB03080000000073
:10002000000000000000000000000000D54E0008A5
:10003000D34E000800000000D14E00086FA0030856
:10004000D9EB0308D9EB0308D9EB0308D9EB030874
:10005000D9EB0308D9EB030823A3030833A3030850
:10006000D9EB03082FA303082BA30308A15E000804
:100070008D5E0008795E0008655E0008515E00082C
:100080003D5E0008295E0008D9EB0308D9EB0308A0
:10009000D9EB0308D9EB0308D9EB030827A303081E
:1000A000E15F0008B95F0008915F0008096000087F
:1000B0007D5F0008695F0008555F0008D9EB030801
:1000C000D9EB0308D9EB0308D9EB0308D9EB0308F4
:1000D000D9EB030801660008D9EB0308F5650008B1
:1000E0001FA30308D9EB0308FD6E0008055F000895
:1000F000DD5E0008B55E00082D5F0008155E000893
:10010000D9EB0308D9EB0308415F0008D9EB0308DA
:10011000E9650008DD650008D9EB0308D9EB0308A1
:10012000015E0008ED5D0008D95D0008C55D0008AE
:10013000B15D0008D9EB0308D9EB0308D9EB03083C
:10014000D9EB0308D9EB0308D9EB0308EB48000807
:100150009D5D0008895D0008755D0008D365000895
:10016000D9EB0308D9EB0308D9EB0308D9EB030853
:10017000D9EB0308D9EB0308D9EB0308D9EB030843
:08018000D9EB0308D9EB0308D9
:100188002DE9F04F2DED108BDFEDAF5A8DB0022326
:10019800009003910B9201910293B0EE655A019B76
:1001A800009AD9084FEA411902EB090CCA00182035
:1001B80008926FF017024A4300FB01F428200CEB69
:1001C8000207049400FB01F4079430200C0107EBAC
:1001D8000906B518069400FB01F43820059400FBC5
:1001E80001FB05EB090400982244DB0002EB090837
:1001F80000F1040E4FF0000ADCED007A1EED017AE2
:10020800D7ED003AD5ED004A98ED003AD2ED002A34
:1002180077EE276A37EE677AD6ED007A33EEA76A6B
:1002280073EEE73AD4ED007A34EEA74A74EEE77A33
:1002380072EE834A36EEC48A36EE640A76EE846A33
:1002480036EE246A72EEC32A76EE864A76EEC66ADF
:100258004EED014ACCED006ADEED004A9CED016AE4
:1002680097ED014A95ED013AD8ED011A74EE866AC8
:1002780034EEC66AD6ED014A34EE242A34EE644AD6
:10028800D4ED014A33EE241A73EE644A92ED013A32
:1002980073EE210A33EE613A76EEC11A76EE816A80
:1002A80032EE601A32EE202A76EE820A76EEC26AC2
:1002B800CEED000ACCED016A78EE016A38EE412AEB
:1002C800C5ED006A71EEC06A84ED002AC5ED016AC9
:1002D80070EE216A34EE432AC4ED016A73EEA26A15
:1002E80073EEE21A34EE034AF0EE673AE6EEE53AC8
:1002F8009C441D44E6EEA57A1C449E44F0EE462A32
:10030800F0EE466AB0EE646AB0EE473AA4EE256AAB
:10031800A1EEA57AE2EE652AE2EE256AB0EE642A3D
:10032800A1EEE53AA4EE652A77EE064A37EE467A5C
:10033800C7ED004A88ED007A33EE027A33EE423A8E
:1003480086ED007A36EEE77A77EEA67A82ED003A05
:1003580087ED017AC8ED017A72EEE37A73EEA23A7C
:10036800C6ED017AC2ED013A0198824403985045DE
:100378001F441E441A4498443FF63EAF072940F2F2
:100388006881009A00984A440A92089A024409929D
:10039800079A02440892069A02440792059A024470
:1003A8000692049A024405920BEB000204924FF065
:1003B80001094FF0000A029A92440B9A4FEACA04C4
:1003C8002244D2ED001A224492ED008A2244D2ED52
:1003D800004A224492ED009A2244D2ED003A224487
:1003E8006FF02F00D2ED000A2244D2ED002A00FB64
:1003F8000A2292ED011A00982244D2ED018A224481
:1004080092ED014A2244D2ED019A224492ED013A3A
:10041800224492ED010A224492ED012A4FEAC902D0
:1004280000EB02080A9800EB020E099800EB020C98
:1004380008988718079886180698851805988418C4
:100448000498CB46024401E0F304353FDEED007A20
:10045800DCED006A97ED007A98ED00AA96ED00BAF7
:1004680094ED00EA3AEE276A36EEC7DA3AEE67AA62
:1004780076EE877AD5ED006A3BEE267A3BEE66BAD1
:10048800D2ED006A7EEE26AA36EE47FA77EEEAEA61
:1004980036EE076A77EEAA7A3EEE66EA36EE277AF5
:1004A80076EE67AA88ED007A98ED016ADEED017AAA
:1004B800DCED01CAD6ED016AD4ED01FAD2ED01DA1C
:1004C80036EE277A76EE67BAD7ED017A3CEEA76A60
:1004D8007CEEE7CAD5ED017A36EEA7CA76EEE77A62
:1004E8007FEEAD6A7FEEEDDA77EE4CFA37EE0CCAA6
:1004F80036EE667A36EE266A7FEE076A3FEE477A70
:100508003CEE06FA3CEE46CA88ED01FA29EE8C6A02
:100518003FEEEEFAA9EE2A6A98447EEEAFEA8EED37
:10052800006A2AEEE96A7DEE4EAAA9EE0C6AB0EEE0
:100538004ACA8EED016A28EE8F6AAAEEC5CA9E44A1
:10054800A8EE266A66EEE86A86ED006AE8EE0F6AAB
:100558003CEEED6AC6ED016A60EE2E6AAAEE85AA47
:100568001E44E0EE876A27EE407AC5ED006AA0EEE9
:10057800AE7A7DEE0E6A85ED017A3CEEAD7AF0EE4C
:100588006BCAE6EE05BA1D44E6EE45CAB0EE6B6AE4
:10059800F0EE67BAE7EE45BAE7EE057AF0EE4BAA59
:1005A800A6EE85BA3CEE2B7AE6EEC5AA7AEE276A65
:1005B8007AEE677A3CEE6BAA36EE4BCA3BEE066AD9
:1005C80061EE0CBA3CEEEABAE1EEA6BA66EEC16A92
:1005D800CCED00BAE1EE8C6A7AEEACAACCED016AF9
:1005E80062EE066A9C44E2EEA76AC2ED006A67EE14
:1005F800C26A63EE0B7AE2EE866AE3EE877AC2EDB0
:10060800016A27EE437AC7ED007A64EE2A7AA3EEF0
:100618008B7A1A44E4EE8A7A87ED017AC4ED007A7F
:100628006AEE447A1F44E4EEAA7AC4ED017A01988E
:100638008344039858451C443FF608AF09F1010963
:1006480049457FF4B8AE029BDB009BB2CDE90113AC
:10065800A5E50DB0BDEC108BBDE8F08F09B9104BC6
:10066800D96A0B6B834215D90D4BDB6A994202D2CA
:100678000021084670470A6B904202D38A6B904269
:10068800F7D94C39F2E70B6B984202D38B6B98423F
:10069800EFD94C310B68002BF5D11946E9E700BFBB
:1006A800A01B00202DE9F84FCF012AD103461F4A8D
:1006B80043F8082B4FF0FF324260022718467E2588
:1006C8001B4ED6F83090041D013D49466FF0704A24
:1006D8004FF0010B0B6BBB4207F1010802D88B6B83
:1006E800BB4212D23846FFF7B9FF014668B944F851
:1006F80004BC4946474604346B1E25B93163BDE83E
:10070800F88F8025DCE71D46E4E70B794A6B23B1B7
:10071800974208D144F804ACECE79742FAD002D9E2
:1007280044F8043CE6E744F8048CE3E7F8FFFF0FDD
:10073800A01B0020F0B59F083F010D461446C619BE
:10074800B04205F1100504F1100408D103F00303C9
:1007580039443A4406EB83039E4223D1F0BD8446D4
:100768009CED006A15ED045AD0ED016A55ED037A47
:1007780090ED027A55ED025A26EE056A66EEA76AF2
:10078800D0ED037A04ED046A15ED016A44ED036ABD
:1007980027EE257A67EE867A103004ED027A44ED6A
:1007A800017ACDE7F6EC017AB1EC017A67EE877A47
:1007B800E2EC017AD0E7012380F849307047044B16
:1007C800986B18B1986B431F58425841704700BF47
:1007D800A01B0020064AD2E90F138B42FDD0D11886
:1007E8000133C3F30A03136491F84400704700BF50
:1007F800A01B0020044BD3E90F30984288BF03F5B3
:100808000063181A704700BFA01B00200120704722
:1008180070477047704730B5104CD4E90F329A4290
:1008280086BF03F50065AA1A9A1A0A44B2F5006F42
:1008380011D801440022814203D102B1E3630020B0
:1008480030BDE21810F8015B82F844500133C3F35D
:100858000A030122EFE70220F2E700BFA01B0020F5
:10086800064AD2F84438D2F84828934294BF4FF445
:1008780000600020013B9B1A18447047A01B002011
:10088800EEE7212838B50C461BD022282BD020288B
:1008980015D1A1B1072A12D1194DD5F84C3813B189
:1008A8000968002098472368C5F85038237985F8E7
:1008B8005438637985F85538A37985F85638002077
:1008C80038BD0029FBD0072AF9D10D4BD3F85028A1
:1008D8000A6093F854280A7193F855284A7193F8D6
:1008E80056388B71EBE70029E9D0022AE7D1044B8F
:1008F800D3F85838002BE2D0098800209847DEE763
:10090800A01B0020014B002098637047A01B00200B
:10091800044B002005229A63C3F85808C3F84C0812
:10092800704700BFA01B0020704770477047704792
:1009380070477047704704230B800148704700BF19
:100948000000002012230B8000487047040000209C
:1009580030B414461A69A24209D30D19AA429B69F8
:1009680038BF111B0A46E11830BC3EF087BA30BCCC
:100978007047002070470120704701207047002011
:1009880070474FF400731360024B9B680B600020A4
:10099800704700BFA01B00200023F0B54E1C1F4667
:1009A800050FECB2092D94BF3034373401F81340E9
:1009B80006F813700133DCB2A2424FEA0010EFD8F8
:1009C800F0BD1A2310B50B80094B186804331B6857
:1009D800C0180AD0074B08491C680822FFF7DCFF3B
:1009E800042206492046FFF7D7FF054810BD00BF7F
:1009F800E8F7FF1FEAF7FF1F180000202800002073
:100A08001600002004230B800048704730000020A7
:100A180012230B8000487047340000202DE9F04F66
:100A2800DFF8708185B0CDE90212B8F86A28D8F8E5
:100A38005C48B8F8666813024FEA126EB8F868287E
:100A4800E41A6EEB4E0EA2FB040102FB0E11C20962
:100A5800B8F8640842EA4162CD110104030C521847
:100A6800A6FB040106FB0E11B8F8626843EB050506
:100A7800030AB8F86C0843EA01634FEA212C710CA9
:100A8800F6039B19A0FB04674CEB010C00FB0E77E7
:100A9800F10D41EA4721F81511F5FA6A40F1000B0A
:100AA800BAF5FA6F01907BF1000053DA0198A1FBC7
:100AB8000167484307EB40070520A6FB008900FBB8
:100AC80007994FEA580040EAC970121A4FEA98008D
:100AD8004FEA690640EA897065EB06051B1A4FEA7A
:100AE800A9066CEB060C2A4E4FF0FF37B2457BEB9C
:100AF800070024DA019E40F6AC5008184FF00001B8
:100B080046EB010800FB08F8A0FB000101EB4801D7
:100B1800CE00C700C71B46EA507661EB06064FF0C9
:100B28000B08D21946EB0505A0FB086708FB0177FF
:100B3800710841EAC77178105B1A6CEB000C04FB72
:100B48000EFEA4FB040101EB4E01C40F44EA41046C
:100B5800BAEB040A029999B10E49D1F87048A4FB7E
:100B6800030104FB0C11430D43EAC1239A1A4FEA0F
:100B7800615464EB0505D20B029B42EA45421A60B8
:100B8800039B0BB1C3F800A0012005B0BDE8F08FAE
:100B980024FAFFFFA01B00202DE9F74F704D914666
:100BA800D5F87448B5F87828C2EB24135200C2EB84
:100BB800E402B5F97A485B436243B5F97C481B13F4
:100BC8005C43A41304EBE224B4F5FA3E8846AEFB7A
:100BD8000E12CDE900124FEAE47343F1FF3C019A8B
:100BE800C5F890480EFB0CF302EB4303B5F98028D7
:100BF800019302FB0CF1D3170EFB0311A2FB0E238A
:100C08000B44190341EA12511003019EB5F98228D9
:100C180002FB06FA009ED31706FB03AAA2FB0623D3
:100C280053444FEA122A4AEA036AB5F87E284FEA83
:100C3800232B1AEB00004BEB010B00304BF5004B5C
:100C4800A0FB020102FB0B114A10CB1752EA030169
:100C580000F08480B5F98808019E00FB06F7009E25
:100C6800C11706FB0177A0FB0601B5F98668394470
:100C780006FB0CFCF7170EFB07CCA6FB0E676744B8
:100C88004FEA474E4FEA464C1CEB000C4EEAD63E64
:100C98004EEB010ED5F89418B5F98468C1F58011AA
:100CA800CF174FEAC77A4AEA510AC807002111EB61
:100CB8000C014FEAC60747EB0E0E40F63546401AC0
:100CC8006AEB0E0AA0FB060106FB0A113DF03CFD8B
:100CD800B5F98E284E13470B47EAC14702FB06FCBD
:100CE800D31707FB03CCA2FB07236344564307FB38
:100CF8000366A2FB07233344560E46EAC316B5F92A
:100D08008C2836184FEA636741EB0707D31751431E
:100D180000FB0311A2FB00230B44D10C41EA433131
:100D2800D814761840EB0707B5F98A08320A42EA60
:100D3800076203011344B8F1000F02D01B0AC8F878
:100D48000030B9F1000F05D004EB8404803424127C
:100D5800C9F80040012003B0BDE8F08F0023EAE79E
:100D6800A01B002001207047012070470123037752
:100D780050F8043C0BB11838184770474FF400631B
:100D880083817047036941681F2B4FF0200230B5FB
:100D980085BFA3F120054C680C68AA4098BF9A400B
:100DA800224214BF01220022EAB182690020107495
:100DB800D0688468206820F00100206054682068AA
:100DC8006579094C828934F815401F2B22EA040200
:100DD800828188BF203B4FF020028BBF9A4002FAE5
:100DE80003F3CA608B6030BDF0170408436B998920
:100DF8001A88890610B592B2044606D5900604D51D
:100E0800E26A1AB39888216B9047636B99891A88AC
:100E1800090692B20FD510060DD5D4E909128A42F7
:100E280022D0A1692069895C99800132B2FBF0F176
:100E380000FB1122A262998A1A88C90592B204D5C8
:100E4800D20744BF4FF6F7721A8010BD9B88E2693B
:100E58006169DBB28B54E369E1680133B3FBF1F2FA
:100E680001FB1233E361D0E7DA6822F08002DA602E
:100E7800E1E790F83420034602F0FF0012B10022A7
:100E880083F8342070470C4B93F898287AB1D3F83C
:100E9800A41888420DD3D3F8A818884209D8D3F8E3
:100EA800A018C3F8C00841F00101C3F8A018104603
:100EB80070470022FBE700BFA01B002008B50846CA
:100EC800FFF7E1FF18B1024B012283F8B42808BDEF
:100ED800A01B002028B1044BD3F8FC0808B193F8F4
:100EE800980800F001007047A01B002008B5FFF724
:100EF800F1FF18B1024BD3F8C0380B8008BD00BF12
:100F0800A01B002008B5FFF7E5FF08B100230B7010
:100F180008BD08B5FFF7DEFF18B1024BD3F8C83893
:100F28000B7008BDA01B002010B5FFF7D3FF48B118
:100F3800064B93F8B44834B993F8B8480C70D3F812
:100F4800BC38137010BD0024F8E700BFA01B0020B8
:100F58000520704730B1044B93F900090028D4BF2D
:100F680000200120704700BFA01B002008B5FFF734
:100F7800F1FF18B1024BB3F808390B8008BD00BF68
:100F8800A01B002008B5FFF7E5FF18B1024B93F846
:100F98000E390B7008BD00BFA01B002008B5FFF775
:100FA800D9FF80B10B4BB3F80A3963B1192B0BD9B0
:100FB800642B0BD9C82B0BD9B3F5C87F94BF032377
:100FC800042301330B7008BD0023FAE70123F8E777
:100FD8000223F6E7A01B002010B5FFF7BBFF48B1BE
:100FE800064B93F8024934B993F803490C7093F807
:100FF8000439137010BD0024F8E700BFA01B0020BF
:101008000420704728B1034B93F94600003018BFFD
:10101800012070470000002008B5FFF7F3FF50B12A
:10102800054B93F94620022A03BF93F84930C3F3CE
:1010380040030B70002008BD0000002008B5FFF732
:10104800E1FF80B10C4A92F9483092F94620012A12
:101058000ED1272B08DC182B08DC0F2BD4BF00235C
:10106800012301330B7008BD0323FAE70223F8E7D5
:101078000133DBB2F6E700BF0000002010B5FFF730
:10108800C1FFC0B10D4C94F84930DB0714D494F972
:101098004730002BB8BF0733DB100133DBB20B70CE
:1010A80094F94730594201F0070103F0070358BF8C
:1010B8004B420133137010BD0023F0E700000020FD
:1010C8000320704770B50B4A92F8103906255E1C4C
:1010D800B6FBF5F405FB146492F81159AC421FBF36
:1010E80002EBC30382F81049C3F81409C3F81819AE
:1010F80070BD00BFA01B002010B50022134691420E
:1011080001DC184610BD845C6340082413F0800F8E
:101118004FEA430318BF83F0D503013CDBB2F5D196
:101128000132ECE7F0B5114C114B2468B3F844795F
:1011380093F84619B3F84869B3F84A5993F84C2913
:1011480014F0040F0AD193F854393BB9012A0BD093
:10115800022A03D114F0080F08BF0121078081700B
:101168008680C5800272F0BD1146F7E700000010C6
:10117800A01B0020124A90F90C3070B50C461421BF
:1011880001FB032305461E6D83689A0703D4006993
:1011980039F014F800BFD4E901232168304639F04A
:1011A800F5F9D4E90423E168304639F0EFF9AB6882
:1011B8009B0703D400BF286939F005F8012070BDEA
:1011C80000000020104B70B51E4693F88429002AB1
:1011D800FBD104464518AC4201D1002070BDD6F8B9
:1011E800483814F8011BF2180133C3F30A0382F8D4
:1011F8008519C6F84838FFF733FB0028EBD10120E2
:1012080038F025FFF7E700BFA01B002038B50D46D2
:10121800FFF7D5FA50B1064C002AD4F8903005DD16
:1012280011462846FFF7CEFFD4F8903038BD00BFEE
:10123800982C002010B590F84810002380F848300A
:1012480069B10A4CA26B62B1A26B052A0BD1084C9A
:101258003430D4F89030FFF7B5FFD4F8903001203F
:1012680010BD1046FCE71846FAE700BFA01B002097
:10127800982C0020002280F84920DBE790F84820CD
:10128800531C0244DBB280F8483082F8341090F8DE
:1012980049200AB1132B00D9CCE7704707B58DF860
:1012A8000700064801230DF107020021D0F8940039
:1012B80039F004FA03B05DF804FB00BF982C002055
:1012C80008B50021084638F0C3FF002008BDF8B56E
:1012D800134C0746D4F8980003791E3B012B02D91A
:1012E800002138F0FEFE0F4E0025BD42D4F89800CC
:1012F8000FDB002138F0F5FED4F89030C4F8C03088
:101308000023C4F8C430B4F8C8300133A4F8C83096
:10131800F8BD16F8011B38F0E4FE0135E5E700BF1B
:10132800982C0020342D002038B5154C94F811392C
:1013380094F810299A421CD004EBC303114AD3F83D
:101348001419D3F818090023984213DC8B780E4A35
:101358005B0882F8DC30C2F8D800FFF7B8FF94F8D1
:10136800113906210133B3FBF1F201FB123384F882
:10137800113938BDCD5C02F8015B0133E4E700BFE9
:10138800A01B0020342D0020982C00202DE9F843C4
:10139800089D0E46174600212022044698463DF037
:1013A80065FF5DB12B68E381C3F30F426B6822824E
:1013B800E382C3F30F426B892283638230463CF099
:1013C800D1FBFB0604D400F1FF39B9F1FF3F40D14E
:1013D800082802464FF0FF39A8BF082200254FF021
:1013E800203363602360C4F80730314620463DF05F
:1013F80045FD04F1080309F101012A461846314464
:101408003DF03CFD621E0346E01D12F8011FA1F1EC
:101418006105192D9CBF203911709042F5D11846ED
:1014280004F10B0210F8013BA3F1610119299CBFDB
:10143800203B00F8013C9042F4D118232373C8F3F1
:101448000F43A382099BE772A4F81A80E361BDE801
:10145800F88316F809302E2B02D009F1FF39B4E7CA
:101468004A46A0EB0905082A05F1FF35A8BF08225E
:10147800032DA8BF0325B2E72DE9F04F002085B062
:101488000D4616461C46012138F0E2FEB94FA31955
:1014980004350393039B9E42A5F1040407D1002160
:1014A800084638F0D5FE002005B0BDE8F08F3A6A4E
:1014B800B24200F2B380D7F830A0A6EB02084FEA98
:1014C800D80BDAF830300BF1020B9B4508F007080F
:1014D80003D3DAF838309B4513D951465846FFF7FD
:1014E800BDF8824660B9A5F1080305F5FC72A2496A
:1014F80043F8041F9342FAD1013605F50075C9E790
:1015080038639AF80430002B6CD04FF40072002135
:1015180020463DF0ABFEDAF84030B8F1000F46D176
:1015280005F11C09CDE900883BBB2046434608224B
:10153800F968FFF72BFF4C464FF4F079DAF844804E
:10154800A1444FF0000AB8F1000FD5D04C45D3D0D4
:1015580098F80420D8F80010D8F8303004F1200B9F
:1015680008F11C00AAB3CDE9000A11222046FFF7B2
:101578000DFF5C46D8F84880E5E7DAF830307F4957
:1015880011222046FFF702FFDAF840301A6C05F105
:101598003C04CDE9008842B94346484611227849BF
:1015A800FFF7F4FE4FF4E079C8E71B6BF5E7002B73
:1015B8000CBF01220222C2EB0812DAF84480B8F10B
:1015C800000F03D0013AD8F84880F8D14FF40079D9
:1015D800B6E798F805C0D8F81020CDE900024CF01D
:1015E8002102C3E7DAF82890B9F1000F06D14FF4C9
:1015F8000072002120463DF039FE7DE7DAF8302000
:10160800ABEB020BDAF80C2008EBCB08534602EBE5
:1016180048224FF400712046C8476DE7002E6ED16E
:101628004FF40072314620463DF020FE802384F8B6
:10163800B86184F8B96184F8BA6184F8BB6184F848
:10164800BC6184F8BD6185F8BA310C2385F8BE31D8
:101658003A694C49BB68C4F8C6218A42C4F8CA3101
:1016680018DDFF2285F8BB2185F8BD2185F8BC214E
:10167800444A013B934228DDFF2385F8BF3185F8B2
:10168800C13185F8C031552385F8FA31AA2385F888
:10169800FB3131E73F2192FBF1F1C1EB811C43F6AD
:1016A800C16492FBF4F4A2EB0C02A01020F03F00FE
:1016B8000132024385F8BC21FF2291FBF2F211446A
:1016C80085F8BD4185F8BB11D2E73F2293FBF2F2C2
:1016D800C2EB821443F6C16093FBF0F01B1B811030
:1016E80021F03F0101330B4385F8C031FF2392FB02
:1016F800F3F31A4485F8C10185F8BF21C3E77B6974
:101708009E4241D15223237063706123A37084F8F1
:10171800E731BB6AC4F8E8314FF000084FF0FF33F7
:1017280041227221E27084F8E41184F8E51184F80A
:10173800E62184F8EC3184F8ED3184F8EE3184F850
:10174800EF314FF4F072414628463DF08FFD5523A6
:10175800C5F8EC81C5F8F081C5F8F48184F8FE314C
:101768006FF0550384F8FC8184F8FD8184F8FF311B
:10177800C2E600BFA01B0020DEADBEEFC9A1040871
:10178800C8A10408FF03FB003B699E4278D14FF4CF
:101798000072002120463DF069FDEB2305F8043C6A
:1017A8003F4A582305F8033C902305F8023C136888
:1017B80045F8013C5368C5F80330022200234FF076
:1017C800080CF821E372227385F809C0A273E37349
:1017D8002A736374A374E374237569743F212176B3
:1017E8004FF0FF31A1763E2121773869B968A3759A
:1017F800091AE3756376E3766377A377E377216263
:10180800D7E90601091A616284F8283084F829307A
:1018180085F8263085F8273084F82C2084F82D3078
:1018280084F82E3084F82F3084F8313084F8323040
:1018380084F833300122802384F8302085F83C3046
:10184800292385F83E309423164985F83F300E2326
:1018580085F840300D2385F841300B68124AC5F8E9
:1018680043304B68C5F847308B68C5F84B30136870
:10187800C5F84E30536885F842C0C5F8523002E7C3
:10188800D7E906138E4206D39E4207D2711A204624
:10189800FEF708FF30E69E42FFF4A9AEF11AF6E71C
:1018A800FF940408089504081595040810B5044C1D
:1018B80004480A4621463AF077FD204610BD00BF8D
:1018C800752D00201E95040810B5044C04480A46DE
:1018D80021463AF069FD204610BD00BF752D002055
:1018E8002C95040810B5044C04480A4621463AF0E1
:1018F8005BFD204610BD00BF752D002037950408FC
:1019080010B5044C04480A4621463AF04DFD2046DD
:1019180010BD00BF752D00204195040810B5044C7A
:1019280004480A4621463AF03FFD204610BD00BF54
:10193800752D00204695040810B5044C04480A4645
:1019480021463AF031FD204610BD00BF742E00201C
:101958005295040810B5044C04480A4621463AF04A
:1019680023FD204610BD00BF742E0020609504089A
:1019780010B5044C04480A4621463AF015FD2046A5
:1019880010BD00BF742E00206B9504080A4608B5E8
:10199800044920B904483AF007FD024808BD034845
:1019A800F9E700BF742E00207E9504089695040878
:1019B800054B93F8E322D3F8DC0202F0F70200218A
:1019C80083F8E32238F000BF982C002010B50446B5
:1019D80000222121006838F0F7FEFC22202120682F
:1019E80038F0F2FE40222421206838F0EDFE0C2267
:1019F8002321206838F0E8FE00222221206838F0F0
:101A0800E3FE012010BD10B52422044641210068E0
:101A180038F0DAFE80B120223021206838F0D4FE78
:101A280050B106223121206838F0CEFE20B10022C4
:101A38003421206838F0C8FE052038F008FB012062
:101A480010BD10B5072204460A21006838F0BCFE14
:101A5800052038F0FCFA24224121206838F0B4FE31
:101A6800052038F0F4FAC0224221206838F0ACFE94
:101A7800052038F0ECFA012010BD10B5012204460B
:101A88001021006838F0A0FE48B1142038F0DFFAC1
:101A98002068A0221121BDE8104038F095BE10BD85
:101AA80010B5012204460B21006838F08DFE20B1E4
:101AB8001D220921206838F087FE00F0010010BDC2
:101AC80010B5782204460021006838F07DFE052014
:101AD80038F0BDFA20220121206838F075FE052073
:101AE80038F0B5FA00220221206838F06DFE642033
:101AF80038F0ADFA012010BD01224821006838F005
:101B080063BE01225821006838F05EBE08B5312254
:101B1800F421006838F058FE012008BD13B5094CBF
:101B2800D4F8DC020DF10702A02138F0E9FD18B164
:101B38009DF807309B0603D5002038F009FBEFE736
:101B480002B010BD982C00201FB5044600230DF1EB
:101B58000702272100688DF8073038F0D1FD68B1F9
:101B68009DF8070010F0080008D0062302AA2821D3
:101B7800206838F0F5FD18B9E086A06304B010BD00
:101B88009DF809209DF8083043EA02231BB2002B78
:101B9800B8BF03339B109DF80B20E3869DF80A30ED
:101BA80043EA02231BB2002BB8BF03339B102387E1
:101BB8009DF80D209DF80C3043EA02231BB2002B40
:101BC800B8BF03339B106387D8E713B506230446D1
:101BD8006A461121006838F0C3FD18B9E086A06391
:101BE80002B010BD9DF801209DF8003043EA0223A1
:101BF8001BB207EE103AB8EEC77AF7EE086A27EE7E
:101C0800267A9DF80320BDEEC77A17EE103AE386D0
:101C18009DF8023043EA02231BB207EE103AB8EEF1
:101C2800C77A9DF8052027EE267ABDEEC77A17EE0B
:101C3800103A23879DF8043043EA02231BB207EECB
:101C4800903AF8EEE77A67EEA67AFDEEE77A17EEB5
:101C5800903A6387C4E713B50023C38683630446B9
:101C680006236A460321006838F07AFDE0B19DF842
:101C780001209DF8003043EA022303EB43039DF85B
:101C88000320E3869DF8023043EA02231BB25B423D
:101C980003EB430323879DF805209DF8043043EAAE
:101CA800022303EB4303638702B010BD1FB5002175
:101CB8000446C18681630DF10702006838F020FDF3
:101CC80008B39DF8070010F008001CD0062302AAEC
:101CD8000121206838F044FDA8B19DF808209DF83E
:101CE800093043EA0223E3869DF80A209DF80B3069
:101CF80043EA022323879DF80C209DF80D3043EA20
:101D080002235B42638704B010BD30B5002585B05F
:101D18000446C58685630DF107020621006838F080
:101D2800EFFC00B39DF8070010F004001BD0062359
:101D380002AA2946206838F013FDA0B19DF80920B1
:101D48009DF8083043EA0223E3869DF80B209DF8AE
:101D58000A3043EA022323879DF80D209DF80C30B2
:101D680043EA0223638705B030BD13B50446006813
:101D78000379022B0CBF4321032106236A4638F05E
:101D8800EFFC18B9E086A06302B010BD9DF80020F2
:101D98009DF8013043EA0223E3869DF802209DF86E
:101DA800033043EA022363879DF804209DF8053039
:101DB80043EA02232387E7E707B5032301AA0021A3
:101DC80038F0CEFC9DF805309DF804001B0243EA6C
:101DD80000439DF80600184303B05DF804FB08B5FE
:101DE8000068FFF7E9FF024BC3F87008012008BD3F
:101DF800A01B002008B50068FFF7DEFF024BC3F800
:101E08005C08012008BD00BFA01B002037B50623D1
:101E1800F7216A460068164C38F0A2FC1549E8B16B
:101E28009DF801209DF800309DF80350120142EA08
:101E380003329DF8023042EA13129DF80430C1F8CB
:101E480094281B0143EA05339DF8055043EA15130E
:101E5800C4E9BA23C1F8743803B030BDD4F8E83205
:101E6800C1F89438D4F8EC32C1F87438F4E700BFFC
:101E7800982C0020A01B00202DE9F04F994C026BF4
:101E8800056890F82D30074689B09748B0FBF2F006
:101E9800214626464FF0000E012291F80690A3EB4A
:101EA800090C01F10608BCF1000FA3EB0E01B8BF45
:101EB800CCF1000C0029B8BF49428C4502F101025F
:101EC800BCBF4FFA89FE4646102A4146E5D14FF07D
:101ED800000C80B2227872450CD171886288411A50
:101EE800821A0029B8BF4942002AB8BF524291421B
:101EF800C8BF26460CF1010CBCF1100F04F1060412
:101F0800E8D1727904923279039272880292327817
:101F18000321CDE90002754A012039F0B3FF728828
:101F2800714BB3FBF2F3BB633B685869A0B140F651
:101F380015030021C38001723BF004FB6C4BBB61AD
:101F48003B685C69204638F0D1F900285FDA3B68C5
:101F58005869002840F0BA802846002138F022FD50
:101F680080226B21284638F02FFC642038F06FF867
:101F780007226821284638F027FC642038F067F8E3
:101F880000226B21284638F01FFC642038F05FF8E7
:101F980001226B21284638F017FC0F2038F057F83B
:101FA80018221B21284638F00FFC0F2038F04FF874
:101FB80018221C21284638F007FC0F2038F047F873
:101FC80032791A21284638F0FFFB0F2038F03FF805
:101FD80072791921284638F0F7FB642038F037F871
:101FE80012223721284638F0EFFB0F2038F02FF85F
:101FF80001223821284638F0E7FB0F2038F027F86F
:102008000321284638F0CEFC09B0BDE8F08FDFF890
:10201800E8A0DFF8E8900AEB000309EB800093F8EA
:10202800688007F11803C0F8F032204638F068F9E4
:102038008346204638F05AF9C3B203F0030003F090
:10204800FC0303F1804303F59C33820099680F2059
:10205800904021EA0001996099685FFA8BF09040FE
:102068000843986024B1204638F040F901248440A0
:10207800204B5C611968E2431140196059681140AE
:102088005960196821431960996811409960D968A5
:102098000A40DA609868C1442043986099F8303360
:1020A800F02B7FF654AFC244F02389F830339AF806
:1020B80078308DF81C3003238DF81D3007A84FF4B5
:1020C8008073ADF81E303AF085FF40E738F00EF91E
:1020D800012313FA00F01FBF064A13680343136075
:1020E8003AE700BFF817040840420F00AE9504080D
:1020F800750D0008003C0140F0170408982C0020DA
:1021080038B50C460B46134A04210920013C39F026
:10211800B9FEE3B2032B1CD80F4D95F94630C3B175
:10212800012B0E4B0E484FEAC4041C444FF0050126
:102138000CBF94F8843094F8863085F8A430FEF704
:10214800DBFF062185F8A5000548BDE83840FEF705
:10215800B9BF38BDE795040800000020F01704084F
:10216800A00000202DE9F347038A868905460C461E
:102178001E404FF0004901F14C0701F1340816B92F
:1021880002B0BDE8F087B6FA86F329FA03F2D24323
:1021980091B2298216401B3B002C40D0042BEED86C
:1021A800DFE803F039342E280300E368D5F82CA0C3
:1021B8002BB19B681BB11FFA8AF1201D9847636AEF
:1021C80033B19B6823B11FFA8AF104F11C009847C8
:1021D800E36B2BB19B681BB11FFA8AF14046984705
:1021E800636D002BCBD09B68002BC8D01FFA8AF1F7
:1021F800384603E0E368696B5B68201D9847BEE7D3
:10220800636AA96B5B6804F11C00F7E7E36BE96B91
:102218005B684046F2E7636D296C5B68E8E7042B6E
:1022280006D8DFE803F00D0B09070300EB6A0193FA
:10223800019BA4E76B6BFAE7AB6BF8E7EB6BF6E790
:102248002B6CF4E710B500680C4639F001FF837871
:1022580063B1827AC37A43EA02231BB2222293FB38
:10226800F2F303F26D132380012010BD1846FCE73A
:1022780010B50446006839F0EBFE837883B1027923
:10228800437943EA0223E3818279C37943EA02234B
:102298002382027A437A43EA02236382012010BD33
:1022A8001846FCE770B506680546304639F0D0FE9A
:1022B8000E230446021D3B21304638F051FAA07027
:1022C80070B1227B637B43EA02232B84A27BE37BEE
:1022D80043EA02236B84227C637C43EA0223AB84B7
:1022E80070BDF8B5284C2546D4F8FC0837F0F6FE42
:1022F800002847D094F8F8380BB1002042E0D4F811
:10230800FC0837F0E5FED4F8F4383BB90F28EBD1D8
:102318000123C4F8F43884F8E408E5E70F2B9FBFDD
:102328005A1C1B19C4F8F42883F8E408D5F8F438C3
:10233800102BD9D195F8E4380F2B15D195F8E5383D
:1023480095F8D5289A420FD195F8F32862B90F4924
:1023580095F8F268084611F8017B01323B440C2AD3
:10236800DBB2F8D19E4205D0002385F8F838C5F8CD
:10237800F438B9E706493CF051FF0028F4D00120B1
:1023880085F8F808F8BD00BFA01B002086240020AF
:102398007624002038B5174C0F2384F8D43884F8F5
:1023A800D50804F6D602F9B10B68C4F8D6384B68DC
:1023B80053608B689360104A002312F8011B0133A5
:1023C80008440C2BC0B2F8D1002584F8E20810228A
:1023D8000A49D4F8FC0884F8E35837F085FE84F8F5
:1023E800F858C4F8F45838BDC4F8D618516091604C
:1023F800E1E700BFA01B0020762400207424002001
:102408007FB5924CD4F83833B3F5857F75D00BDCA3
:10241800C3B3F82B48D0D4F83833002BBCBF002303
:10242800C4E9CE3304B070BDB3F5887F00F0BB803B
:10243800B3F58F7FEFD1864D95F8F838002B00F073
:10244800E6800021B5F8E638C5F89C18D5F8C0181C
:10245800B5F8E828C5F8CC388B42C5F8D02840F044
:10246800EE80D5F8C4389A4205D0D5F8A03843F0A4
:102478000203C5F8A038764B93F89838002B00F083
:10248800A5802DE0724A82F8983800217220FFF763
:1024980081FFD4F89030C4F840330026FA23C4E909
:1024A800D163F823C4F83833694D95F8F838002B10
:1024B80040D0B5F8E638C5F8A438B5F8E838C5F816
:1024C800A8380023C5F8AC38B5F8EA38C5F8B038EC
:1024D800012385F898380023C5F89C38C5F8A0383A
:1024E800D4F89030C4F8403300254FF47A73C4E927
:1024F800D1534FF48573C4F83833554ED6F8A058E5
:1025080075BBD4F84023D4F890309B1AD4F84823EC
:10251800934280DD29467620FFF73CFFD4F89030BF
:10252800C4E9D035FA23C4F848334FF48F73C4F89C
:10253800383380E7FFF7D5FE48B9D4F84023D4F8FC
:1025480090309B1AD4F8482393427FF764AF95F8EC
:10255800F838002BADD195F89838002BBBD194E70B
:1025680015F0010338D00025B6F8C038ADF80430AE
:1025780001A94620CDF80650CDF80A50ADF80E5006
:10258800FFF708FFD6F8A03823F00103C6F8A038F3
:10259800D4F89030C4E9D035FA23C4F848334FF45E
:1025A8008873C4F83833D4F84023D4F890309B1A91
:1025B800D4F8482393427FF72EAF254BD3F89C28B5
:1025C800022A7FF758AF002283F898284FF0FF338C
:1025D8000022C4E9CE321EE715F0020514D0B6F881
:1025E800C428CDF8063001A95020CDF80A30ADF83E
:1025F8000E30ADF80420FFF7CDFED6F8A03823F052
:102608000203C6F8A038D8E7C6F8A058D5E7FFF700
:1026180068FE48B9D4F84023D4F890309B1AD4F80F
:10262800482393427FF7F7AE95F8F838002B7FF4EC
:1026380008AFD5F89C380133C5F89C38BDE7D5F804
:10264800A03843F00103C5F8A0380AE7982C002009
:10265800A01B00202DE9F04F6C4E96F850338DB03A
:1026680080468946002B40D1D6F85453002D3CD0E3
:1026780096F858B3DFF898A106AF96F85833032BAD
:1026880000F28480DFE803F002347D9B3946284657
:1026980011F0D7F9044680B109A8FEF743FD9DF86B
:1026A80026109DF818308B4270D0AB798B4204D33A
:1026B8002B681B690BB12846984796F858330133A5
:1026C80003F0030386F85833002C40F09C809B45A8
:1026D800D3D14F4B1B685B0700D534B12B68196801
:1026E80019B142464B46284688470DB0BDE8F08FE1
:1026F80003A8FEF717FDDAF800309DF80C4003F048
:10270800040334B3002B41D13A460DF10B0128469E
:1027180011F0B6F90446002838D009A8FEF702FDE2
:102728009DF824109DF80B309DF825208B4203D18D
:102738009DF81830934229D02B798B42BDD36B7901
:102748009342BAD32B68DB68002BB6D0284698474B
:10275800B3E7002BB1D13946284611F064F9044695
:10276800A0B109A8FEF7DEFCBDF82810BDF81830A6
:102778008B420BD02B689B69002B9ED0284698472C
:102788009BE7DAF8001011F0040301D0002494E765
:1027980009A92846019311F04DF90028F6D096F8BA
:1027A8005943002CF2D09DF82420019B86F8593318
:1027B800002AEBD01946284611F069F97DE738461A
:1027C800FEF7B0FC97E8070009AB03C31A809DF831
:1027D80018309BB10DF1250209A9284611F050F9CE
:1027E8000DF12601284611F02CF90A2209A93846CC
:1027F8003CF014FD041C18BF01245EE70AA9284612
:1028080011F011F9ECE7012463E700BF982C0020D0
:1028180000000010022803D0431E58425841704758
:10282800054B93F8643313B1102020F0B5BD034B6A
:102838001868C0F380007047982C00200000001032
:10284800CA680B6810B513430468114A2240134341
:102858004A6913438A691343CA6913430A6A1343CB
:102868004A6A13434A6B13438A6B134343F4003396
:102878000360D1E90B344269234322F00702134372
:1028880043610B6943604B6883608B68C36010BD0C
:102898003F801CF010B58021044639F0A0FD204689
:1028A800002139F09CFD2046BDE810403AF008B8F8
:1028B800420900F01F03032A4FF0010000FA03F059
:1028C80008D0042A0BD0022A0DD1074B5A6C1043AA
:1028D80058647047044B1A6C104318647047024BD5
:1028E8001A6B104318637047003802404268034B64
:1028F8009A420CBF95209620DAE700BF006002409C
:10290800CB4BF7B5CB4DCC4C0822C3F888202B6BAA
:1029180043F001034FF4C0522B63064640F20233E2
:1029280020460F466946CDE900233AF081FD636AE7
:1029380023F470436362636A43F420436362636A07
:1029480023F470236362636A43F4202363621820CC
:1029580037F00EFC00213AF0F5FD6B6CB74CB84A25
:10296800B84943F480436B646B6B43F080036B633B
:102978002B6A43F080532B62B34B01255D61C4F889
:102988008429B24AC4F88869C4E9E712022284F8A3
:10299800A4234FF0A042C4F8A82302F50062C4F8AB
:1029A800AC2302F58072C4F8B42302F50072C4F8AF
:1029B800F023A2F5F072C4F8B82302F50072C4F847
:1029C800F423A2F5F072C4F8BC2302F50072C4F82F
:1029D800F823A2F5F072C4F8C02302F50072C4F817
:1029E800FC23A2F5EC62C4F8B0234032C4F8682492
:1029F800C032C4F82C242032C4F830242032C4F861
:102A080034242032C4F838242032C4F83C2420323C
:102A1800C4F840242032C4F8807984F8A753C4F855
:102A280044242032C4F8482402F52262C4F86C24F5
:102A380002F58052C4F8702402F58052C4F8742458
:102A480002F58052C4F878244FF05022C4F87C2450
:102A580002F58052C4F8802402F58052C4F8842418
:102A680002F58052C4F88824A2F5E4420021C4F893
:102A7800A82404F5677284F8AE5484F8B01410469C
:102A88000B46402680F81C11A0F8221101310429B8
:102A980080F81D5180F81F31C0E94963C0F8303112
:102AA80000F12800EED100231946402082F8743343
:102AB800A2F87A330133042B82F8751382F877135E
:102AC800C2E9DF01C2F8881302F12802EED14FF003
:102AD800A0435F489A6822F001029A60DA6842F0DF
:102AE8004002DA6039F0CCFE0025212363F3174554
:102AF80094F8A5330BB145F4801594F89F23D4F8C6
:102B0800A833012A9D6307D19A6822F03E0141F05B
:102B18002A0161F307029A60DA68C2F3076121F0BB
:102B2800600141F0400161F31F62DA60D4F8A82423
:102B380000201060D4F8AC23116860F3CC21116038
:102B480094F8A713012912D1116841F0030111600B
:102B580080225A6202F580029A6202F14012C3F89A
:102B680004214FF4A072C3F80821C3F80C211021E6
:102B78003848394D3AF05AF936483AF03FF9D4F81E
:102B8800AC2394F89D0300234FF0FF3113611E46D8
:102B98005361FF279161D361834237D300232F4DBF
:102BA8001E46FF27984267D8136994F89F1343F489
:102BB80080730129136104BF294B1363D4F8A83328
:102BC80000229A614FF0FF306FF080425A615860DE
:102BD8005A61244A9A610029234A0CBF1021002116
:102BE8000A4399690A439A619A6842F001029A6015
:102BF800D4F884391B6898471C4B1D4ADA6068462C
:102C08001C4B00933AF0E6F903B0F0BD55F8041BED
:102C1800D1F800C0BCF1000FACBF4FF0000C4FF072
:102C2800904CC1F800C001330E618F60B4E700BF5B
:102C380000E100E00038024000000240982C00202B
:102C4800A800002008040100003C014040004001A9
:102C580040300020343000204C30002088300020E4
:102C6800030181000008008008383C0000ED00E006
:102C78000005FA054302000155F8041BD1F800C00D
:102C8800BCF1000FACBF4FF0000C4FF0904CC1F8F6
:102C980000C001330E618F6084E710B5084A92F8CE
:102CA800903902EBC3040133DBB2042B08BF0023C5
:102CB800090284F8940982F89039C4F8981910BD6B
:102CC800982C0020F7B5C24E96F8C739C6F8B40953
:102CD8001E2B0D4634460FD014D8122B00F0A580B9
:102CE80005D8002B5DD0032B6DD02021FBE11A2BDA
:102CF80000F0BA801B2BF8D10025A4F8DC5928462F
:102D080003B0F0BD282B00F0F78028D8232B00F063
:102D1800C780252BE9D1D6F8D83928465B6806F54F
:102D28001E6206F6E41198470546002844D1D6F8F5
:102D3800E429A84B013A110E1970110C5970DA7078
:102D4800110AD6F8E0299970110E1971110C5971F0
:102D5800110A9971DA710823A6F8DC39CFE72F2B0D
:102D680000F0A9815A2B00F08D802A2BBDD196F84E
:102D7800E839002B40F0648196F9C439002BB4DBA4
:102D8800D6F8D83908469B689847A8B9D6F8D839EC
:102D98002846DB6898470546002800F0258127214A
:102DA8000BE0D6F8C039002B9FD1D6F8D8390846A1
:102DB8009B68984700289FD03A210220FFF76DFFB3
:102DC8004FF0FF359BE7834B122219460020013A4A
:102DD80012F0FF0203F8010BF9D170230B700C23DA
:102DE800CB7194F8900994F8DE39984212D004EB2C
:102DF800C300013390F894598D70DBB290F899595B
:102E080090F898090D73042B487314BF84F8DE39C1
:102E180084F8DE291223A4F8DC3994F8CB39122B74
:102E280098BFA4F8DC39002569E796F8C839DA07AD
:102E380017D4D6F8D83996F8CB29DB6901EBC10548
:102E480003EB85052B790533934228BF1346614A66
:102E5800A4F8DC39002BE6D0013B9BB2E95CD154E5
:102E6800F8E707235C4DF2E708235C495C4AA6F8BB
:102E7800DC39013B11F8010902F801099BB2002B6A
:102E8800F7D1D0E708235749554AA6F8DC39013B62
:102E980011F8010902F801099BB2002BF7D1C2E72A
:102EA8004C4A0C2316460021013B9BB202F8011B39
:102EB800002BF9D1D4F8D83928465B686A4601A9AD
:102EC8009847054600287FF477AF0823F370019BE5
:102ED800013B1A0E32711A0C7271F3711A0A02232D
:102EE8003372009BB2711A0C7272F3721A0A0C23B5
:102EF800B272A4F8DC3902E796F8E8396BBB96F9A8
:102F0800C439002BBFF6F1AED6F8D83908469B680D
:102F1800984700287FF450AFB6F8CE39D6F8C929BB
:102F2800D6F8E4195BBA12BA9BB298188842C6F868
:102F3800EC29C6F8F03900F2D580022186F8E819A4
:102F4800D6F8E0194A43C6F8EC29D6F8C0294B430D
:102F58009342C6F8F0397FF4C8AED4F8F069D4F8D3
:102F6800D809D4F8E029D4F8EC1907694FF480534C
:102F78009E4228BF1E46A4F8DC392846B6FBF2F369
:102F8800B1FBF2F29BB21349B847002802DA1121CB
:102F9800042013E733460F4AD4F8B409812139F0E5
:102FA80044FAD4F8EC39D4F8F0593344C4F8EC397D
:102FB800D4F8FC39AD1B9E1BC4F8F059C4F8FC6961
:102FC800002D7FF430AF032384F8E83997E600BF7B
:102FD800982C0020E08F0020901804089E18040800
:102FE800E78F0020A6180408B6F8CE39D6F8C91914
:102FF8005BBA9AB209BAD6F8E439C6F8EC1950188F
:103008009842C6F8F0296DD8D6F8E03959435343A9
:10301800D6F8C029C6F8EC199342C6F8F0397FF4FF
:1030280064AEB3F5805F28BF4FF4805301219BB293
:103038002E4AD6F8B40986F8E81939F0ACFA5EE6F3
:10304800D6F8F049D6F8D809D6F8E029D6F8EC1918
:103058004769B4F5805F28BF4FF480542846B4FB15
:10306800F2F3B1FBF2F29BB22049B847002801DA2B
:1030780003218DE7D6F8EC39D6F8FC29D6F8B4093F
:103088002344C6F8EC39D6F8F0391B1B141BC6F8D4
:10309800F039C6F8FC491BB9002139F0C1FAC2E67B
:1030A800B3F5805F28BF4FF480539BB20F4A0121CC
:1030B80039F071FAB7E696F8C8399B0701D524218B
:1030C80011E0D6F8C9391ABAB6F8CE39C6F8EC29DB
:1030D8005BBA9BB2C6F8F0391344D6F8E429934298
:1030E8007FF60AAE2121052068E600BFE08F0020A8
:1030F8002DE9F04790B0DDE9184A0E46074690469C
:1031080000213A220DF1060099461A9D3CF0AEF8CE
:10311800344B02938DF80460CDF834A0002E55D0BE
:10312800022E55D0032E55D0042E55D103232E4AF6
:1031380002EB430393F8B8308DF805302B4B03941A
:10314800D3F89020069714440122CDE904458DF860
:1031580031201D46B8F1000F06D04A46414607A85F
:103168003BF08CFE8DF8309095F846EA0023BEF1CE
:10317800010F0E931FD80DF1040ABAE80F0095F855
:1031880045CA3C2404FB0C5404F648240FC4BAE88E
:103198000F000FC4BAE80F000FC49AE80700BCFA82
:1031A8008CFC0EF1010E4FEA5C1C84E8070085F8E0
:1031B80046EA85F845CA3B6883B14B4642463146E4
:1031C800384610B0BDE8F0471CF0A1B93346AEE769
:1031D8000123ACE70223AAE70023ADE710B0BDE85E
:1031E800F08700BF9C360020F0170408982C0020B8
:1031F80037B5414CD4F89450002D7BD110232A4682
:103208002D2102203AF0A5FAC4F8940078B30321DE
:1032180037F0C8FB9F233220009336F018FF0423B1
:103228006A460DEB0301D4F894008DF8055037F089
:1032380045FA9DF806309DF805201B0243EA024333
:103248009DF8072013432D4A93422D4A4DD035DC73
:103258002C498B4247D00CDC2B498B4214D02B498C
:103268008B4244D00020C2E93300C2F8C40003B046
:1032780030BD27498B4236D001318B4237D0A1F57A
:103288001A4103398B42EDD1224BC2F8C430B2F84F
:10329800C830B2F8C4101B02C2F8CC304B43B3F1AB
:1032A800807FC2F8D03005D90123B72084F8C43A0A
:1032B800FDF7F4FF012084F8C50AD8E716498B42C8
:1032C800E2D007DC15498B420DD002318B42C9D1BF
:1032D800134BDAE713498B4209D001318B42F7D0FF
:1032E80002398B42BED1104BCFE7104BCDE74FF0E0
:1032F8000123CAE70120BAE7982C00201620C20053
:103308000000002017301C00154001001860010063
:1033180017BA2000200000011540EF001720C20056
:10332800000200011840EF00800000014000000189
:10333800031EB8BF2D2210B5B8BF58420C46AEBF09
:103348000A2201F8012B0A2237F034FE0023037009
:10335800204610BD642828BF642000EB800070B5AB
:10336800450064240026B5FBF4F4E4B2F3B29C42B1
:1033780012D80A2C0BD01420B5FBF0F0C4EB84153E
:103388006638C4EB85052844C0B210F029FC013426
:10339800E4B2092C05D970BD9F2010F021FC01363C
:1033A800E4E79A20F1E7002170B5084636F050FFAF
:1033B8000021012036F04CFF0021022036F048FFA2
:1033C8000E4D01244FF4067655F8040B20B1C68043
:1033D800047201213AF0B6F80134042CF4D100212A
:1033E800084636F035FF0021012036F031FF002174
:1033F8000220BDE8704036F02BBF00BFB0180408AB
:1034080070B50E4C05460C2694F8C63A052B01D922
:10341800002011E05A1C06FB034384F8C62AD3F89F
:10342800C82AD107F0D51542EED093F9CC0A1CF082
:1034380033FD0028E8D0406870BD00BF982C0020FC
:10344800024B002283F8C62ADAE700BF982C002036
:1034580030B5264B10201D78A5F1300109291A46F0
:1034680003F1010329D9214C0021131B022B27DC6E
:103478000023A2422ED82E2D36D1501C042400221F
:10348800057802EB8202303D5200092D92B298BFB6
:10349800521904F1FF349CBF013092B214F0FF04BA
:1034A800EED164205043124A02FB03000623B0FB0E
:1034B800F3F0104B03FB010001E00138CBD130BD24
:1034C80001EB8101490014F8010B3039014401F086
:1034D800FF01CAE703EB83035B0014F8010B303BE1
:1034E800034403F0FF03C4E70022DAE7AC37002007
:1034F80040420F008096980030B5002351F82340D1
:1035080052F82350641B40F823400133032BF5D1B4
:1035180030BD2DE9FF4180460846154637F0A7FE25
:103528004FF47A72002306460F463BF00DF9B5F9C1
:1035380000303C2403FB0404394630464FF47A72C9
:1035480000233BF001F9002796B24FF47A73C3FBCE
:1035580004673B46324601A837F004FE394B93F81E
:10356800263B012B09D0022B35D032463B4640463C
:1035780037F0F8FD04B0BDE8F0819DF80640E31E81
:10358800072BF2D8231F052B0DD92146BDF80400BF
:1035980037F096FD9DF8073098420ED0E11E18BF0F
:1035A80001210029E1D02B883C332B80264BF618CB
:1035B8004FF0000343EB0707D7E7032C03D19DF82F
:1035C80008100031EBE70A2CCFD19DF80810B1FAAA
:1035D80081F14909E5E79DF80640E31E082BC4D8A8
:1035E800231F062BDFD92146BDF8040037F068FDFC
:1035F800032C12D10E280ADC9DF80730984208D116
:103608009DF80810012994BF00210121C9E7073856
:10361800F0E7B4BF01210021C3E70B2CA5D107288F
:103628000ADC9DF80730984208D19DF80810012956
:103638008CBF00210121B4E70738F0E7CCBF012196
:103648000021AEE7982C002080EE360030B50468E3
:10365800E46985B02CB10DF10F050095A04705B0C0
:1036680030BD2046FBE708B506482EF04FFC06485B
:1036780030F060FF054B93F8282B12B1012283F834
:10368800292B08BD039604080F960408982C0020DF
:103698002DE9F04F87B0DFF8ACA0059107469046BA
:1036A80099460025B8F1000F07DBA84505D001357C
:1036B800042DF7D107B0BDE8F08F059AD6236B43E8
:1036C80002EB030B1E4AD31804930024B9F1000F30
:1036D80001DBA1452FD1049B3BF8146033F814306B
:1036E800F21A5642564113F4006F03F01F02C3F357
:1036F800441114BF56234823CDE90213CDE90042F3
:103708002B465246314638462FF0D8FB3BF814304A
:1037180013F4006F03F01F02C3F3441114BF5623C0
:103728004823CDE90213CDE900422B4652463146E3
:1037380038462FF0D9FB01346B2CC7D1B7E700BF4F
:10374800C43700201C9604082DE9F04F374C384A3E
:10375800DFF8E8B004F5BE5388461978354B0029E0
:1037680008BF1A4641F2C17387B0E1568146324814
:103778002EF0CEFF04F6C46446460027B8F1000FC9
:1037880052D096F800A094F85C03F168B6F910C01E
:1037980096F816E05045D6E9013243D1D4F86003D3
:1037A80098423FD1D4F8640390423BD1D4F86803DF
:1037B800884237D1B4F96C03604533D194F8725319
:1037C800A5EB0E0045424541CDE90221CDE900A314
:1037D800CDE904CE3B465A46294648462FF06EFBB3
:1037E80094F872330593B4F96C330493D4F86833BE
:1037F8000393D4F864330293D4F86033019394F8B4
:103808005C3300935A463B462946484601372FF019
:103818006BFB3C2F04F1180406F11806AED107B073
:10382800BDE8F08F0025CFE74546D9E7982C002062
:1038380088C104083696040839960408489604088E
:1038480070B541F2AC13204DEB5C2DED028B0446B4
:103858000E4693B341F2B413EB58036041F2B81328
:10386800EB58436041F2BC13EB58836005F6C46320
:1038780093EDBB8ADFED158A96ED000A80EE280AE3
:103888003BF05CFF23681844206028EE288A96EDF8
:10389800010A80EE080A3BF051FF63681844606033
:1038A80096ED020A3BF04AFFBDEC028BA368184470
:1038B80041F2AC13A060E85C70BDC0E900338360DE
:1038C800B7EE008AD6E700BF982C00202C7D8E3FEB
:1038D80070B541F2AC131D4CE55C95B341F2B416DA
:1038E8000B68A659DFED1A6A9B1B07EE103A41F2E6
:1038F800B8164B68A659B8EEC77A9B1B27EE267AEE
:1039080007EE903A04F6C463012A80ED007A93ED3D
:10391800BB7A8B6818BF41F2BC12F8EEE77A27EE43
:10392800267A18BFA25867EE877A18BF9B1AC0ED8F
:10393800017A07EE903AF8EEE77AC0ED027A284667
:1039480070BD0023036043608360F8E7982C002073
:103958002C7D8E3F0C4608B505461CF043F82046E2
:103968001CF040F80021084636F072FC00210120C6
:1039780036F06EFC284636F0B1FB70B1012100200C
:1039880036F066FC284636F0A3FB0146204636F0A2
:10399800A8FB0021084636F05BFC204636F09EFB6B
:1039A8000028E7D00121002036F052FC204636F0EE
:1039B8008FFB0146284636F094FB00210846D7E7DE
:1039C800F0B505460C4689B01422002120463BF08C
:1039D8004DFC2A681D4E04A9C2F3855000230D46EC
:1039E80040FA03F7FF0744BF9F5D01F8017B0133ED
:1039F800062BF5D1164800230B70C2F303210144AE
:103A0800C2F3053691F8D2108DF81810D9300DF19F
:103A1800190146FA03F7FF0744BF1F5C01F8017B51
:103A28000133062BF5D100230B70C2F383430293B5
:103A380006ABCDE90053074902F00F032046C2F355
:103A4800031237F0DAFC09B0F0BD00BFBC18040857
:103A5800F0170408609604081FB5314901A84A7E8A
:103A68005C3117F050F80398019A80EAE073A3EBF1
:103A7800E07307EE903AF8EEE77AF7EE086AC7EED9
:103A8800A65A82EAE273A3EBE27307EE103AB8EEA5
:103A9800C77A029BF4EEC75AF1EE10FA13DD83EAF7
:103AA800E371A1EBE37106EE101AB8EEC66AF4EE04
:103AB800C65AF1EE10FA06DD0028CCBF002001201E
:103AC80005B05DF804FBC7EE265A83EAE371A1EB63
:103AD800E37106EE101AB8EEC66AF4EEC65AF1EEB5
:103AE80010FA09DDF4EEE57AF1EE10FA04D5002AB1
:103AF800CCBF02200320E3E7C6EE265AB4EEE57AEF
:103B0800F1EE10FA09D5F4EEE57AF1EE10FA04D5E3
:103B1800002BCCBF04200520D2E74FF0FF30CFE7C1
:103B28000000001030B52A4A92F8F8368B424DD181
:103B380092F8F916DFED276AD2F81C5702EB410418
:103B4800013101F00F0182F8F91692F83817B4F82C
:103B5800FA36A4F8FA0607EE101AB8EEC77A92F801
:103B6800391727EE267AC31AFDEEC77A2B4417EECB
:103B7800900A07EE901AF8EEE77AC2F81C3767EE5B
:103B8800A67A1B09FDEEE77AA2F8203717EE901AFD
:103B980088420FDD9BB29942D4BF5B1A002398423A
:103BA800A6BFC31A9BB20023A2F82037034617EE1C
:103BB800900A1946B2F820371B1AC3EB8323091A57
:103BC80093FBF1F181F30A01A2F8201730BD00BF81
:103BD800903D002014AE23412DE9F04FDE4C2DED31
:103BE800028B94F8013283B0062B30D8DFE813F04B
:103BF8000700CA00D60029017E015802D602B4F88F
:103C080004C2D648D4F808224FEA5C0100EB8C08BD
:103C18008B004FEADC0CC61847464344A0F5DA751A
:103C280002EB0C1C9646E64507F1100706F1100654
:103C380003F1100305F1100519D18DB22946FCF7DF
:103C48009FFAD4F8082229464046FCF799FA94F8D6
:103C5800013207220133B3FBF2F2C2EBC2029B1A14
:103C680084F8013203B0BDEC028BBDE8F08F17ED8C
:103C7800040A95ED696A57ED030A95ED6A4A53ED12
:103C8800046A53ED034A17ED027A17ED015A56ED0F
:103C9800032A16ED023A56ED013A53ED027A53ED36
:103CA800015A95ED6B1A16ED042AD5ED6C1A36EE0D
:103CB800008A36EE406A85ED698A34EE208A34EE51
:103CC800604A85ED6A8A31EE078A0EF1100E85ED9D
:103CD8006B8A31EE858A31EEC55A72EE261A85ED69
:103CE8006C8A46ED041A72EEA41A74EEE24A46EDA6
:103CF800031A73EE271A77EEC37A46ED021A73EEAB
:103D0800A51A75EEE35A46ED011A5EED033A1EED6B
:103D1800043A64EE232A76EEC26AE6EE032A23EE1C
:103D2800C66A47ED042AA4EE036A31EE477A07ED26
:103D3800036A23EE646AA6EEA36A66EE836A03ED5D
:103D4800046AE4EEA36A43ED036A1EED026A5EEDBF
:103D5800016A65EE264AE7EE064A26EEC77A47ED7F
:103D6800024AA5EE067A07ED017A26EE657AA7EEF5
:103D7800A67A67EE867A03ED027AE5EEA67A43ED37
:103D8800017A50E7D4F80C22B4F81012734839F0CD
:103D98007FFE94F80132013384F80132D4ED887A39
:103DA800D4ED875AB4F804226C4BD4F8180277EE95
:103DB800A77AB0EE006AF0EE676AE5EE866A013A25
:103DC80003EBC201D5EE867A10300839B6EE007AD8
:103DD80066EE876A67EE877AC4EDA76AC4EDA87AAB
:103DE800A3F5DA73F0EE476A91ED034A91ED027A92
:103DF800D3ED6F3AD3ED707A50ED025A50ED014A87
:103E080037EE635A34EE276A37EE237A77EEC47AB0
:103E1800A5EE857A013A00F10800E4EE857AA1F171
:103E2800080103F10803A4EE867AE5EEC67A27EEC8
:103E3800267A67EEA67A83ED8D7AC3ED8E7AD3D192
:103E480005E7474D4FF000092E460427C84695ED73
:103E58008E0AD5ED8D7A20EE000AA7EEA70AB5EEF8
:103E6800C00AF1EE10FA6ADB3BF08CFF86ED6D0AB2
:103E780095ED900AD5ED8F7A20EE000AA7EEA70AF5
:103E8800B5EEC00AF1EE10FA5CDB3BF07BFF86ED85
:103E98006E0A95ED920AD5ED917A20EE000AA7EE0A
:103EA800A70AB5EEC00AF1EE10FA4EDB3BF06AFF46
:103EB80086ED6F0A95ED940AD5ED937A20EE000A07
:103EC800A7EEA70AB5EEC00AF1EE10FA40DB3BF008
:103ED80059FF86ED700A013F05F1200506F110062D
:103EE800B5D194F80132013384F8013294F894235F
:103EF8001B4D9FED1C7A002302F16D0105EB81013A
:103F080018461E460F2A2FDD04EB830292ED877AAE
:103F180067EE077A5A1C67EE877A07EE102AB8EE22
:103F2800C77A03F16E0227EE277A1F4605EB820255
:103F380019460F292ED105EB8303421C5EE0C6F813
:103F4800B49195E7C6F8B881A3E7C6F8BC81B1E794
:103F5800C6F8C081BFE700BF000000101C020010B7
:103F68006800001000000000F1EC017A3EB951ED44
:103F7800026AF4EEE76AF1EE10FA09D5D0B2B4EEAF
:103F8800E77AF1EE10FA44BFD3B2B0EE677A0126B1
:103F98000132B7E712ED016AD2ED006AB4EEE66AC3
:103FA800F1EE10FA01F1010102F10402C3DD66EE3F
:103FB800066A66EE866A06EE101AB8EEC66A77EEEC
:103FC800A67AA6EE867AB4E793ED6D6A043BD3ED44
:103FD8006D6AB4EEE66AF1EE10FA07F1FF310FDD13
:103FE80066EE066A781C66EE866A06EE100AB8EE79
:103FF800C66A77EEA67AA6EE867A0F469742E3DC83
:10400800F5EEC07AF1EE10FA94F802623FDD87EE21
:10401800278AF7EE007A38EE678AD4EDE67A28EE3A
:10402800278AB4F89C0339F0E7FECDE9000118EEC1
:10403800100A39F003FF9DED001B41EC100B3BF01B
:10404800AFF951EC100B3AF021FA242303FB065583
:1040580000EE100A05F52D7035F08AFA94F8023250
:1040680003F5C87304EB4303BCEEC00AB3F8682039
:10407800A3F86E2010EE102A92B2A3F86820B4F8C4
:10408800A0339A4238BF1A46A4F8A023DFE504EB10
:104098004603B3F88E3308EE103AB8EE488AC0E704
:1040A80094F8025205F5C87304EB4303B3F868109B
:1040B800B3F86E308B4261D04D4E94F8243496EDAF
:1040C8001B0AD4F8142405EBC50506EB850537460D
:1040D8006C37D5F814B0D5F818A0D5F81C90D5F8D9
:1040E8002080002B00F0818007EE901A96ED217A4F
:1040F800F8EEE77A012367EE877A2846FCEEE77A3E
:1041080017EE901A89B237F0AEFF94F8023296EDA6
:104118003D7AC5F814B003EBC30204EB4303C5F8BA
:1041280018A0B3F88833C5F81C9007EE903AF8EE5B
:10413800E77AC5F8208067EE877A06F18805FCEEF5
:10414800E77A05EB820517EE901AD5F814B0D5F882
:1041580018A0D5F81C90D5F8208097ED000AD4F85F
:104168001424012389B2284637F07DFFC5F814B01E
:10417800C5F818A0C5F81C90C5F8208094F802323C
:1041880003220133B3FBF2F202EB42029B1A84F8DA
:10419800023294F80132013384F8013294F87C2019
:1041A800144D94F80202C2F120010632CFB202EB9C
:1041B800401005F234463B4605F5DA72314605EB08
:1041C8008000FCF7B7FA94F87C30002B3FF43FAD41
:1041D80094F80202B90001F5DA7205EBC0102A441E
:1041E80031441830FCF7A6FA31E50123BBE700BFDC
:1041F800A40300106800001030B5194CD4ED017A02
:1042080089B0F1EE677ACDED057AD4ED027A002314
:104218000093F1EE677A0B680193CDED067A4B684F
:10422800D4ED037A02938B680393054623680493BD
:10423800F1EE677A6A4604A96846CDED077A1EF062
:10424800DDF96946224608461EF0D8F9019B2B6025
:10425800029B6B60039BAB60284609B030BD00BF72
:104268001C05001038B502782DED088B30EE608AF9
:10427800D0ED01AA0446B0EE40AAF0EE419AB0EEA5
:10428800619AB0EE42BA0D4668EE2AAA01F001031F
:104298004AB1002B0CBFF0EE607AF0EE487A0022AB
:1042A800C0ED0B7A0270D4ED0B7A002B60D078EE5B
:1042B800677AF0EE480A87EEA90AC4ED0B0AD4ED36
:1042C800090AD4ED038AF5EEC00AF1EE10FA05DD0D
:1042D800B0EE691A04F1180035F096F9D4ED057AB4
:1042E80094ED0A7A2AEE27AA20EE280A7AEE877A2F
:1042F80077EE807A77EE8A7AF4EEC97AF1EE10FAE0
:1043080008D4F4EECB7AF1EE10FAD4BFB0EE679A87
:10431800B0EE4B9AD4ED026A94ED046AC4ED0DAA8E
:1043280028EE268AF0EE476AE9EE886A6B0779EE8E
:10433800677A84ED0C7A67EE867A84ED0E0AE9EEE8
:10434800A76A84ED0FAA84ED109AF0EE667A08D574
:10435800F0EEE66AB0EEC77AF4EEC76AF1EE10FA4C
:1043680001D5C4ED0A7AB0EE490ABDEC088B38BD18
:1043780070EEE77AF1EE677A87EEA90A9DE710B545
:1043880088B0002300930B6801934B6802938B68F5
:1043980014490393D1ED017A0B680493F1EE677A1F
:1043A800CDED057AD1ED027AF1EE677ACDED067A98
:1043B800D1ED037A0446F1EE677A6A466846CDED98
:1043C800077A1EF01BF9694604AA08461EF016F97A
:1043D800019B2360029B6360039BA360204608B097
:1043E80010BD00BF1C05001010B51E4C94ED010A4D
:1043F800D4ED006A94ED027AD4ED037A20EE000A37
:10440800A6EEA60AA7EE070AA7EEA70A3BF0BAFC93
:10441800DFED157AB4EEE70AF1EE10FA08D54FF0A1
:104428007E53236000236360A360E3600D4810BDE2
:1044380094ED007AC7EE007A94ED017AC4ED007A23
:10444800C7EE007A94ED027AC4ED017AC7EE007ADD
:1044580094ED037AC4ED027AC7EE007AC4ED037ACC
:10446800E4E700BF1C050010BD37863530B51C7861
:1044780014B1012C05D030BD9A780270DB780B702E
:10448800F9E7B3F9024052B1157B94FBF5F40470D7
:10449800B3F904302AB1527B93FBF2F3EFE70C2512
:1044A800F3E71222F8E730B51C7814B1012C0FD0CD
:1044B80030BD9D7842B1147B6C430460D8782AB132
:1044C800537B43430B60F3E70C24F5E71223F8E72B
:1044D800B3F902200260B3F90430F3E72DE9F041A3
:1044E8002DED028B1B4D84B004460E4617469846A8
:1044F80013460A460146D5F84C07B0EE408A35F017
:104508009DFF9FED150A9DF83030CDF8048028EE08
:10451800000A0022FDEEC07A009217EE901A02A857
:104528000FF08CFD9DF8340020F096FA804638464E
:1045380039F018FB611C0144CDF8008002AB32460B
:10454800C9B2D5F84C0735F03DFF04B0BDEC028B7D
:10455800BDE8F081903D00200000C84270B50D4CC8
:1045680006460D4613460A460146D4F84C0735F070
:10457800EDFF94F9503704EB430201335BB2272B6C
:10458800C8BF002382F8516782F8525784F8503721
:10459800012070BD903D00202DE9F347284C1646B8
:1045A800FE2284F8A32794F8B82884F8A5270132B6
:1045B80084F8B8284FF6FF721F4684F8A46784F879
:1045C800A60784F8A717ADF80620062504F2A478F4
:1045D800013DADB23DBBDFF87080BDF8063094F800
:1045E800A457A4F8A1374FF6FF79A8F1080A013DAE
:1045F800ADB24D451ED13846124904F0DFFD94F89E
:10460800A437B4F8A127234406F1080083F8A927A2
:1046180094F8A437B4F8A1272344120A83F8AA27E8
:1046280002B0BDE8F0870DF1060118F8010B04F09F
:10463800C5FDCDE7514618F8010B04F0BFFDD6E7DC
:10464800903D0020314500203945002017B48DF8F1
:1046580005308DF804200A4BBDF804209DF8104061
:10466800A3F8A9272F2283F8A82783F8AB470322AA
:1046780099238DF8064003B05DF8044B8CE700BF22
:10468800903D0020054991F8E5280023042A03609D
:1046980028BF042201F6EA013AF0F0BB903D002061
:1046A80010B4074991F8E52800240480022A28BF9D
:1046B800022201F6EA015DF8044B3AF0DFBB00BFC5
:1046C800903D0020F8B5204C1D250F46064684F87D
:1046D800F2591BF06FF800201AF0F8FF08201AF0C2
:1046E800F5FF0E201AF0F2FF28461AF0EFFF04201B
:1046F8001AF0ECFF04201AF0E9FF00201AF0E6FF98
:1047080030201AF0E3FF00201AF0E0FF38461AF0D4
:10471800DDFF00201AF0DAFF1BF02CF804F6F31086
:104728001AF03CFF234670B194F8F32952B994F873
:10473800F429302A00D02AB993F8F52912B993F848
:10474800F63933700120F8BD903D0020011D00238B
:10475800884201D11846704710F8012B53400822AF
:1047680013F0800F4FEA430318BF83F03103013A77
:10477800DBB2F5D1ECE7094A00231046117831B1D4
:104788009178802903D1682202FB03007047013326
:10479800102B02F16802F1D10020704798470020E1
:1047A8002DE9F743104B93F8504307468846C4B9A0
:1047B8000E4DA14605F52576286858B135F06EFCF2
:1047C80040B1CDF800902B4642463946B6201AF043
:1047D8007BFE0446DC35B542EED1204603B0BDE889
:1047E800F0830024F9E700BF982C0020184E002021
:1047F8000E4B062230B483F82622242283F827227F
:1048080083F82822002283F82922094A03F22A2160
:1048180002F1240452F8045B41F8045BA242F9D186
:1048280030BC83F82C020DF0C7BD00BF884E0020B5
:10483800CF18040813490023F0B51A460D461E4642
:104848000A278C1894F8144B0CB91846F0BD2E2C76
:1048580006D101320028F8D08C18044484F8146B6F
:10486800AC187B4394F8144BA4F1300CBCF1090F3D
:104878009CBF303B1B190E2A01D80132E1E7002307
:10488800E3E700BF982C002010B50B4C04F5BE5090
:10489800043007F079FB41F2D073E358C01A37F0BF
:1048A8001BF90028B8BF404242F210739842D4BFA7
:1048B8000020012010BD00BF982C002010B51C203E
:1048C80035F056FC1121044638F03CFE204635F000
:1048D80075FCC82035F0BBFB2046BDE8104035F01C
:1048E80072BC2DE9F04FB54CD4F8A8335E6916F0C8
:1048F80001068BB040F084825A699B69134001938A
:1049080000F07E82C3F30743180700930ED5D4F84E
:10491800AC33DFF8B0929F69DB6904F5677B1F4011
:104928003F0CDA46D846002F40F00381009B590718
:1049380011D5D4F8AC23A24F9369D26903EA0208CF
:104948001FFA88F83E464FF0000AA7F5677BB8F1D2
:10495800000F40F03F819DF80460B10741BF974BBD
:10496800D3F8A83302225A61019B002B1BDA934B20
:1049780093F8A6233AB1D3F8A824136823F00301C7
:1049880061F307031360D4F8AC238D48536823F010
:10499800010353608B4BD3F8EC309847D4F8A83315
:1049A8004FF000425A61019BC3F307252A072FD510
:1049B80000238DF8173094F8AE348DF81730814BFA
:1049C8007F48D3F8E8309847D4F8A823D4F8AC3314
:1049D8004FF400619B68516194F8A623C2B1DB07CC
:1049E80016D594F8B134012B12D19DF81730032B4A
:1049F8000ED1D4F8A8341A6842F001021A601A6875
:104A080042F003021A60704A136943F00603136107
:104A180037070AD5694F6B4B07F56770D3F8E03055
:104A28009847D7F8A83308225A61F60614D5D4F85F
:104A3800A803836923F010038361036AC3F3434126
:104A4800022903F00F0200F06B81062900F0908123
:104A5800836943F010038361E80633D5D4F8AC23A7
:104A680057485368002623F001035360314638F055
:104A7800DDF994F89DC3554A37463346FF20634510
:104A8800C0F08481D4F8AC334D484FF0FF329A61BE
:104A98004FF00112DA610B2262F3070662F307078F
:104AA8005E611F611A686FF30A121A6037F008FF17
:104AB800D4F8A83342484FF480525A61414BD3F896
:104AC800E4309847A90640F17D813C4AD2F8AC33DE
:104AD800D2F8B40399680268C1F34101022906BFFC
:104AE800032161F30A026FF30A0202605A6842F472
:104AF80080725A6006A838F04FFBD4F8A813D4F88F
:104B0800AC03CB68079A6FF38D23CB608568304878
:104B1800C5F34105284490F80301032840F03D817E
:104B2800002284F89E234FF40072A4F8A0230922DF
:104B380042E1F9073BD5F1B204EB8103D3F8F03336
:104B48009D68D4F8AC335B691D40EA071FD594F81B
:104B58009F03DBF854300125A8429D6007D11869EE
:104B6800DAF87C33C0F312001B1ACAF88C33D9F870
:104B7800D4304046984794F89F33012B07D136B973
:104B880094F8AD34052B02D1404637F099FEAB07B7
:104B980042BFDBF8543002259D60280707D5D9F8B5
:104BA800DC3040469847DBF8543008229A600136DA
:104BB8007F080BF1040B0AF1280AB4E6982C0020B0
:104BC800343000200000002000ED00E04C300020D0
:104BD800F017040818F0010F61D0D4F8AC335FFA6D
:104BE8008AF919695D6B04EB890225FA09F5D2F88F
:104BF800B423ED019268EDB20D431540EA071CD5C8
:104C08005A6BA048012505FA0AF122EA01025A6303
:104C1800BB699D609C4B4946D3F8D830984794F8B7
:104C28009F33AB4209D1BAF1000F06D194F8AD34E5
:104C3800042B02D1934837F043FE280742BFBB69D3
:104C480008259D60E90642BFBB6910259D606A067C
:104C580042BFBB6940259D60AB0742BFBB690225C7
:104C68009D6028061BD5D6E94C329B1AD6F824211C
:104C7800D7F818C0DBF8ACE3DCF81850934228BF2B
:104C88001346033309F132099B080BEB8909ADB2CE
:104C98009D4204D9D6E94C02904200D930B90AF1B4
:104CA800010A4FEA58080437283650E6D6F8243166
:104CB800801A984228BF18469BF89F23C31C9B085C
:104CC800DAB1D6F82811D6F83421DCF818500144A6
:104CD800C6F82811D6F8301102448A42C6F83421A1
:104CE800D5D196F81C11DEF83420012000FA01F124
:104CF80022EA0102CEF83420C9E7D6F82811029139
:104D080081B2033189100391D9F8A4130D46039990
:104D18009142D6D0029951F8221029600132F6E763
:104D280047F6F07119423FF493AE282101FB024186
:104D3800C3F30A13DE1CD4F86CC4D1F81C77B61080
:104D480000218E420ED1514E282101FB0262D2F879
:104D58001C171944C2F81C17D2F828170B44C2F8BC
:104D6800283775E6DCF800E047F821E00131E8E78C
:104D7800D4F86C140E68C4F868690968C4F86C192A
:104D8800282101FB0242C3F30A13E5E752F8041B8A
:104D98008860916B0133886071E6012084F89E0376
:104DA8004020A4F8A003A0F56400A0F56240384CA8
:104DB8001044A04227D80E2262F38D23CB604FF413
:104DC80000534B61009BDA060BD5304C2E4B04F593
:104DD8006770D3F8F0309847D4F8A8334FF48012AE
:104DE8005A61009B9B060BD5284C274B04F567702E
:104DF800D3F8F4309847D4F8A8334FF400125A6126
:104E08000BB0BDE8F08FA2F57400224CA0F510504D
:104E1800A04201D80D22CFE71F48204C1044A042E1
:104E280001D80C22C8E7A2F18C701D4CA0F54340B4
:104E3800A04201D80B22BFE71A481B4C1044A042DD
:104E480001D80A22B8E71948194C1044A0427FF645
:104E58006EAEA2F1B770174CA0F55850A04201D819
:104E68000822A9E71448154C1044A04201D807228B
:104E7800A2E713481044134A904294BF0622052221
:104E88009AE700BF3430002000000020982C002052
:104E98003F420F00DFC810002013FBFE1FD613008F
:104EA800FF69180000D3CEFE3F771B00C05BB3FE3E
:104EB800BF9121003FAC2700C01D6AFE3FE13300CF
:104EC800803C36FEDF9C4100704770477047704752
:104ED8000A4B93F866221044C0B2020648BF8038D5
:104EE80083F8660293F8672293F86612914202BF2C
:104EF800002283F8672283F866227047884E0020D4
:104F080030B50B4A92F8663202F51A74E518C0E912
:104F1800005492F8672293429BBFD31A0B60C3F1E7
:104F28008003002394BF4B60C1E9003230BD00BF4D
:104F3800884E00201FB502A86946FFF7E1FF054B20
:104F48000098D3F8E8321844019B184405B05DF87E
:104F580004FB00BF884E0020054B93F8670293F8C6
:104F68006632984236BFC3F18003C01AC018704732
:104F7800884E002013B50C4C94F8C50A68B1052377
:104F8800ADF800306A46022301A9D4F8940035F040
:104F980095FB9DF8050000F0010084F8C50A80F033
:104FA800010002B010BD00BF982C002070B5064C5F
:104FB800D4F890500646FFF7DDFF20B9D4F89030BA
:104FC8005B1BB342F7D970BD982C002008B545F299
:104FD8000820FFF7EBFF0620FCF760F9074B0122DA
:104FE800C72083F8C52AFCF759F9054B002283F836
:104FF800672283F86622C3F8E82208BD982C0020AF
:10500800884E002030B51A4C89B00023154603227B
:1050180000938DF8002094F8C42A8DF804309A4241
:105028000293CDE906351BBF030E8DF801300DF153
:1050380001030DF1020314BF05220422CDE9042166
:10504800020C1A70020A98705A700620CDF80CD01B
:10505800FFF7ACFF50B1D4F894000379022B02D1CA
:1050680002A9FCF787F8284609B030BD0546FAE7DB
:10507800982C00207FB5104BD3F8D0400026E40AC6
:10508800A64202DBE00204B070BD35196D10102293
:105098006946E802FFF7B6FF0F28F3DD6A460023EA
:1050A80052F8041B013104D10133042BF8D12C46EA
:1050B800E6E76E1C2546FAE70000002070B51C4D97
:1050C80088B000231646022200938DF8002095F838
:1050D800C42A8DF804309A4214BF05220422CDE96F
:1050E800042302931BBF030E8DF801300DF1010359
:1050F8000DF10203020C1A70020A98705A700446E5
:105108000620CDE90616CDF80CD0FFF74FFF062094
:10511800FCF7C4F8D5F89400012385F8C53A03795B
:10512800022B02D102A9FCF725F8301908B070BD8E
:10513800982C00202DE9F04F85B08B46009301EBA9
:105148008203019302900B464FF0000A53F8042B98
:105158009244019A9A42F9D1009B002B50D1FFF753
:1051680009FF00284CD1009805B0BDE8F08F029DDA
:105178005F46A0463B4657F8042B002A3AD04245E2
:1051880029682BD342460393FFF798FF2A68039BAD
:1051980042442A601A68A2EB08021A60D9F8E83279
:1051A800361B1C44009BC9F8E842A3B19EB1D9F84C
:1051B800E802C4B2A319B3F5807F134BD3F8D030FB
:1051C8008CBFC4F5807434469842D0D3002389F844
:1051D800673289F86632AAEB0600C5E7FFF76EFF6B
:1051E80057F8042C2B6813442B600023A8EB020803
:1051F80047F8043C019BBB4205F10405BAD1CDE751
:105208005646DFF80890D1E700000020884E0020BD
:105218001FB50C4C94F8662294F867329A420ED067
:1052280002A96846FFF76CFE0123022202A968461C
:10523800FFF780FF002384F8673284F8663204B0F1
:1052480010BD00BF884E0020064BD3F8D03010B5F3
:105258003BB1FFF70FFF0446FFF7DAFF024BC3F835
:10526800E84210BD00000020884E0020094B70B5B0
:10527800D3F8D030154682189A4288BF1D1A0446C2
:105288000E46FFF7C5FF2A4631462046BDE8704066
:10529800B8E600BF000000202DE9F04F93B0FFF7FB
:1052A800D3FFFFF7E7FE0027BA4C83463E46B846D1
:1052B8003D46B946AB4500F3C580B8F1640F19D037
:1052C8004D4517D0B44BB5490C2707FB083708F1F3
:1052D8000102384636F091F80123C4E90239B04B8F
:1052E800A362E3692760A5EB0905C4E90455C4E98D
:1052F80008330136371DDFF8C482AA4C002E00F0AF
:1053080046814FF04C0909FB07F7E319D4F84C51D3
:10531800C8F800514A460021184639F0A7FF4A4606
:10532800002139F0A3FFA04AE2510122C0E904BBE1
:10533800C0E9075582609A4A8262456205364FEA9B
:105348004B03B3F1805FD8F8007119DA4C256E432E
:10535800A3192A460021184639F088FF2A46002159
:1053680039F084FF914AA2510222427101228260DF
:10537800CBF100625200C0E90422C0E90777476216
:10538800884CDFF8448223460026254608EB0601B0
:1053980018464C2239F072FD4C360346B6F5987F14
:1053A800C0E90777476203F14C03EFD1AA68002AE6
:1053B80045D12B79002B42D02B68002B3FD0C5E973
:1053C800112278492A64EA6316461746C86C01F127
:1053D8004C03002840F0FA8002230646D4F800C0A7
:1053E800BCF1000F40F0208171499C1E714BCB60CD
:1053F8004A633F233E22C1E90423A70F4023A600A6
:105408008B6156EA0703C1E9094000F0388140F290
:10541800FF12B2184FF0000347EB0303520A42EAA7
:10542800C35202F14003CB6113440B6203EBC40384
:10543800DA0D8B605B02C1E90B55C1E9003213B08C
:10544800BDE8F08F20220AA92846FFF70FFF122295
:1054580059490AA839F058FF0090002840F0858083
:105468004D4520D04C4A08F101030C2101FB0828C6
:105478000193019A4949A5EB09034046A2460793BF
:1054880035F0BBFF079B4AF84C8BC4E90433444B07
:10549800A362E369DDF804800122C4E90229C4E9B2
:1054A800083316445446454BD3F80031E361A94606
:1054B800122312AA581C134413F8202C404BFB5CEF
:1054C8009A4255D10137152F53D120220AA94844B1
:1054D8000DF12409FFF7CAFE4A463A490AA839F0ED
:1054E80093FE4FF0000A30B30AF1FF33042B04D8BF
:1054F800DFE803F00E12161A1E0035F084FD009046
:105508004A46304900200AF1010A39F07DFEEAE7EF
:1055180035F079FD0390F3E735F075FD0490EFE77A
:1055280035F071FD0590EBE735F06DFD0690E7E786
:1055380035F069FD0290009B93B1A3F2BC72DDE9DE
:10554800031343EA411343EA4222069B05995B0190
:1055580043EAC123029943EA610343EA0243E36150
:10556800B8F1640F3FF4C6AEA94605F50065A1E69B
:105578000027202809D109F12009CB45F0DB024694
:105588000AA94846FFF772FE0020034691E7042661
:10559800D5E600BF98710020745100208296040857
:1055A8008B56000868700020AB960408B89604086B
:1055B800A01B0020C59604086F9604080000002070
:1055C80090960408A6960408F818040898681F64BA
:1055D80006F1FF3C6045C3E91177DF6305D1002E72
:1055E8003FF42DAF53F80C1C064606F1010C60453C
:1055F80008D1087900283FF422AF4B641964664645
:105608001946E3E6B0427FF41AAF00283FF417AF1B
:10561800D1F840C0DCF83C600136CCF83C60C3F8F7
:1056280040C08B648446EAE721795F1EA1B12363F9
:10563800E36B5B011ABF03F6FF731B0B0123C4E97D
:1056480004663B446363A363D4E90D13591A084401
:10565800013301324C34C1E62169236359B101F6A3
:10566800FF71090B63693944616333B103F6FF7352
:105678001B0B3B44E7E70121F4E70123F9E701228B
:10568800CFE613460A4601461846EFE51FB50F4C0C
:1056980094F8662294F867329A4214D002A96846B0
:1056A800FFF72EFC0023022202A96846FFF742FDFD
:1056B800FFF70EFC94F8660294F86732C31A584252
:1056C800584104B010BD0120FBE700BF884E002000
:1056D800F0B51E4C94F8E252C3B006460F46002DB2
:1056E800FDD1012384F8E232FCF762F9FF2E4FF076
:1056F800090388BFB5088DF804308DF8056088BFA8
:1057080005F0C00501AB00224FF00A0C0B2645EA54
:105718000201B85C83F802C00132362AD9701E71C2
:10572800587103F10403F2D14AF20803ADF8DE30F0
:1057380001AADC230021D4F8DC0234F0BFFFFCF717
:10574800EDF9002384F8E23243B0F0BD982C002034
:10575800F8B51D4C94F8E23205460F46002BFDD1F2
:10576800012384F8E232FCF723F9EAB2064609215C
:10577800D4F8DC0235F028F8B5F5807F05D1402251
:105788000A21D4F8DC0235F01FF850220821D4F899
:10579800DC0235F019F8FCF7C1F90025EAB20A2154
:1057A800D4F8DC0235F010F87A19C021D4F8DC02FC
:1057B800013534F0A5FF362DF0D10EB9FCF7F8F815
:1057C800002384F8E232F8BD982C00202DE9F04F30
:1057D8006E4B6F4E93F8E412A9B00A23002002938F
:1057E800024603460DF114094FF0050A4FEA521E0E
:1057F800674D02F01F0205EB8E0C4FF0FF3455F891
:105808002E5004FA02F707EA050292FAA2F2B2FA57
:1058180082F2D2B2202A6ED002EB4E125D4D05EB19
:105828004205C2F3072CB5F8D8E74FEA1E245FFA01
:105838008EF5019415F0040F09EB03040394D7B215
:1058480001F0400B03F1010403F1020870D0BBF131
:10585800000F08D10398042341F04001037009F8B0
:1058680004104346012028AC04EB030EAD004FF0B2
:1058780006040EF88A4C0EF8875C0EF8844C03F187
:105888000B0528AC4CF0020825440EF88B8C019CC3
:105898000EF88CAC4FF007080EF8897C0EF8888C4F
:1058A8000EF886AC0EF885CC0EF8837C0EF8828C48
:1058B8000C3305F88C4C4FEA521C012502F01F07E7
:1058C80005FA07F7029C56F82C50013C25EA070513
:1058D80046F82C50029456D110B12C4A82F8E412A2
:1058E8002A4805AA0021D0F8DC0234F0E7FE01209E
:1058F80029B0BDE8F08F0CF1040C274A944567469F
:105908000ED20CF1040C3D6895FAA5F5B5FA85F2AE
:10591800D2B2202AF1D0BF1B12EBC7027FF57EAFAF
:1059280010B11A4A82F8E412002BD9D11846DFE7E1
:10593800BBF1000F03D101F0380BAB450BD021F0C0
:105948007801039841EA0E010423C9B2037009F8EB
:1059580004104346012028ACE5184FF0060405F86A
:105968008A4C4FF0070405F8897C05F8884C5F1DC0
:1059780028AC2744019C05F88CAC05F88BCC063381
:1059880007F88C4C97E7013230E700BF982C0020CD
:1059980024560020884E002060560020F7B5234C7E
:1059A80094F8E232002B3FD101230DF10702842144
:1059B800D4F8DC0284F8E23234F0A2FE94F8E4224F
:1059C800D4F8DC0242F00402042134F0FDFE0DF1AB
:1059D80007028421D4F8DC0234F092FE9DF80730E7
:1059E80013F00405F3D13C222946114884F8E43227
:1059F800104E39F03BFCA6F13C0736F8023B1A0A78
:105A080022F0200203F00403134303D0294638464A
:105A180036F0BEFC0135B5F5F07FEED1FFF7D6FEC6
:105A28000028FBD184F8E20203B0F0BD982C0020D6
:105A3800245600206056002013B5224CD4F8DC020E
:105A4800F0B394F8E032012B13D0022B13D00DF1F0
:105A58000302A02134F054FE9DF8033003F005033F
:105A6800012B06D043B1D4F8902040F2DC539A427F
:105A780026D9402300E0002343F0080384F8E332EA
:105A88008DF8053040F20443ADF8063004230DEBE1
:105A980003020021D4F8DC028DF8041034F00EFE65
:105AA8003C22FF21084839F0E1FB94F8E1323BB988
:105AB800D4F8DC320BB1FFF771FF012384F8E1322F
:105AC80002B010BD982C0020245600202DE9F74F75
