:020000040800F2
:1000000000000110C5280408873F0008FD99020878
:1000100081290408812904088129040800000000BE
:10002000000000000000000000000000853F000804
:10003000833F000800000000813F0008A3D80308A8
:1000400081290408812904088129040881290408D8
:10005000812904088129040895DB0308A5DB03082E
:1000600081290408A1DB03089DDB030875820008D1
:100070006582000855820008458200083182000828
:100080001D820008098200088129040881290408CA
:1000900081290408812904088129040899DB0308BF
:1000A000B18300088983000861830008D9830008B0
:1000B0004D8300083983000825830008812904083E
:1000C0008129040881290408812904088129040858
:1000D00081290408998C00088D8C0008818C000807
:1000E00091DB030881290408EB650008D58200082C
:1000F000AD82000885820008FD820008F5810008B5
:100100008129040881290408118300088129040831
:10011000758C00086B8C000881290408812904086B
:10012000E1810008CD810008B9810008A58100089F
:100130009181000881290408812904088129040883
:1001400081290408812904088129040899390008B3
:100150007D81000869810008558100088129040813
:1001600081290408812904088129040881290408B7
:1001700081290408812904088129040881290408A7
:0801800081290408812904080B
:1001880009B9104BD96A0B6B834215D90D4BDB6A41
:10019800994202D20021084670470A6B904202D366
:1001A8008A6B9042F7D94C39F2E70B6B984202D32D
:1001B8008B6B9842EFD94C310B68002BF5D119465F
:1001C800E9E700BF401C00202DE9F84FCF012AD1F4
:1001D80003461F4A43F8082B4FF0FF3242600227BC
:1001E80018467E251B4ED6F83090041D013D494621
:1001F8006FF0704A4FF0010B0B6BBB4207F101081F
:1002080002D88B6BBB4212D23846FFF7B9FF0146C2
:1002180068B944F804BC4946474604346B1E25B9FE
:100228003163BDE8F88F8025DCE71D46E4E70B79EC
:100238004A6B23B1974208D144F804ACECE79742E3
:10024800FAD002D944F8043CE6E744F8048CE3E722
:10025800F8FFFF0F401C002030B50D4B00F00704DD
:10026800C0081D181B5CA340DBB20020C4F10802C3
:100278008A4228BF0A46C2F1080423419040891ADD
:1002880040EA03004FF0000415F8013FEED130BDFD
:10029800B81C0020012380F849307047044BD3F87C
:1002A800900020B1D3F89000431F5842584170473E
:1002B800401C0020064AD2E925138B42FDD0D118F4
:1002C8000133C3F30A03C2F8983091F89C007047D1
:1002D800401C0020044BD3E92530984288BF03F521
:1002E8000063181A704700BF401C002001207047A7
:1002F8007047704730B5114CD4E925329A4286BF11
:1003080003F50065AA1A9A1A0A44B2F5006F12D8C2
:1003180001440022814204D10AB1C4F8943000207B
:1003280030BDE21810F8015B82F89C500133C3F32A
:100338000A030122EEE70220F2E700BF401C00207A
:10034800064AD2F89C38D2F8A028934294BF4FF4BA
:1003580000600020013B9B1A18447047401C002095
:10036800EEE7212838B50C461BD022282BD02028B0
:1003780015D1A1B1072A12D1194DD5F8A43813B156
:100388000968002098472368C5F8A838237985F8B4
:10039800AC38637985F8AD38A37985F8AE38002094
:1003A80038BD0029FBD0072AF9D10D4BD3F8A8286E
:1003B8000A6093F8AC280A7193F8AD284A7193F84B
:1003C800AE388B71EBE70029E9D0022AE7D1044B5C
:1003D800D3F8B038002BE2D0098800209847DEE730
:1003E800401C0020024B0020C3F89000704700BF5B
:1003F800401C0020044B00200522C3F89020C3F8BD
:10040800B008C3F8A4087047401C00207047704724
:100418007047704770477047704704230B80014846
:10042800704700BF0000002012230B80004870476F
:1004380004000020044B41F2B4110122585C00B9B9
:100448005A545A70704700BF246A00200378022B60
:1004580008D10E4B1A684368B3EB422F2CBF01201A
:1004680000207047006970B1094B1B78032B0EBF41
:10047800084B80B24FF6F773984294BF00200120D2
:1004880000F0010070470120FAE700BF447C00201B
:10049800246A0020F7FFFF0F074B1B78022B0BBFC6
:1004A800030AC0F3D413C0B200F07F000CBF0B6086
:1004B8000B601060704700BF246A002010B50378F5
:1004C80041680F4A022B0AD141F20423D35802F59E
:1004D8009052106800EB430000EB512010BD0369F7
:1004E80041F21020023B145841F2182010580840DD
:1004F800400A04FB030041F20C23D3581844EDE7EB
:10050800246A0020837B042B0DD0074B41F298010D
:100518005A5801325A50426041F29C0104228273B7
:100528005A5801325A507047246A002008B5064BC1
:10053800C01A48BF00F2FF104012072803D9FFF77E
:1005480079FF4FF0FF3008BD3C6A00200048704733
:10055800A01C0020034B93F85C00032894BF0020E4
:1005680001207047401C0020034B93F85C000030CA
:1005780018BF0120704700BF401C002030B414464B
:100588001A69A24209D30D19AA429B6938BF111BE7
:100598000A46E11830BC42F09FBE30BC70470020CC
:1005A80070470020704701207047012070470020E5
:1005B8007047002070474FF400731360024B9B682C
:1005C8000B600020704700BF401C00200023F0B5DE
:1005D8004E1C1F46050FECB2092D94BF303437343A
:1005E80001F8134006F813700133DCB2A2424FEA57
:1005F8000010EFD8F0BD1A2310B50B80094B18680E
:1006080004331B68C0180AD0074B08491C68082225
:10061800FFF7DCFF042206492046FFF7D7FF05480D
:1006280010BD00BFE8F7FF1FEAF7FF1F1800002002
:10063800280000201600002004230B800048704783
:100648003000002012230B8000487047340000203F
:1006580008B5074BD3F88C301A79022A06D19A6864
:10066800920703D518693DF03DFA00BF08BD00BFE9
:10067800401C0020124A90F90C3070B50C46142129
:1006880001FB032305469E6C83689A0703D400691F
:100698003DF028FA00BFD4E90123216830463DF037
:1006A800ADFBD4E90423E16830463DF0A7FBAB6815
:1006B8009B0703D400BF28693DF019FA012070BDDB
:1006C8000000002037B50A4D0824012300220DF14F
:1006D8000701D5F88C003DF08FFD9DF80730FF2B02
:1006E80002D1012003B030BD013CEED12046F9E72C
:1006F800401C002073B50A4E451C0024012300222B
:100708000DF10701D6F88C003DF076FD9DF8070045
:10071800FF2802D10134AC42F0D102B070BD00BF55
:10072800401C002037B5104B104D1B88ADF8043025
:100738000024022301AA2146D5F88C00AC653DF0BF
:100748005BFD0120FFF7D6FFFF281FBF092385F8AF
:100758005C30D5F8B438EB6405BF0423022020468A
:1007680085F85C3003B030BD485C0408401C0020AC
:1007780070B5054608200E46FFF7BCFFFF2812D0CB
:10078800FE2812D10A4C334600222946D4F88C00A0
:100798003DF032FD002202231146D4F88C003DF0D2
:1007A8002BFD002070BD0120FCE70220FAE700BF06
:1007B800401C002013B540F040038DF800300B0EAC
:1007C8008DF801300B0C8DF802300B0A8DF80330D0
:1007D800952304468DF804108DF80530FFF772FF55
:1007E80000B964B9074806236A460021D0F88C008E
:1007F8003DF002FD0820FFF77DFF02B010BDFF208D
:10080800FBE700BF401C002007B58DF8070006482D
:1008180001230DF107020021D0F8B8083DF0ECFCE7
:1008280003B05DF804FB00BF401C0020104B70B5FE
:100838001E4693F8BC28002AFBD104464518AC4252
:1008480001D1002070BDD6F8A03814F8011BF218A9
:100858000133C3F30A0382F8BD18C6F8A038FFF7BE
:100868006FFD0028EBD101203DF00BF8F7E700BF42
:10087800401C002038B50D46FFF710FD50B1064C5E
:10088800002AD4F8B43805DD11462846FFF7CEFF14
:10089800D4F8B43838BD00BF401C002010B590F81B
:1008A8004810002380F8483071B10A4CD4F89020E1
:1008B80062B1D4F89020052A0AD13430D4F8B4387B
:1008C800FFF7B4FFD4F8B438012010BD1046FCE798
:1008D8001846FAE7401C0020002280F84920DDE78E
:1008E80090F84820531C0244DBB280F8483082F864
:1008F800341090F849200AB1132B00D9CEE770477D
:1009080008B5002108463DF065F8002008BD2DE92E
:10091800F843089D0E4617460021202204469846B3
:1009280042F0D2FE5DB12B68E381C3F30F426B68DE
:100938002282E382C3F30F426B89228363823046AB
:1009480040F0E4FFFB0604D400F1FF39B9F1FF3FA2
:1009580040D1082802464FF0FF39A8BF08220025D9
:100968004FF0203363602360C4F8073031462046D7
:1009780042F0B2FC04F1080309F101012A461846C5
:10098800314442F0A9FC621E0346E01D12F8011F23
:10099800A1F16105192D9CBF203911709042F5D144
:1009A800184604F10B0210F8013BA3F16101192963
:1009B8009CBF203B00F8013C9042F4D118232373DC
:1009C800C8F30F43A382099BE772A4F81A80E36176
:1009D800BDE8F88316F809302E2B02D009F1FF394B
:1009E800B4E74A46A0EB0905082A05F1FF35A8BF78
:1009F8000822032DA8BF0325B2E72DE9F04F0020F8
:100A080085B00D4616461C4601213CF0E3FFB94F60
:100A1800A31904350393039B9E42A5F1040407D14F
:100A2800002108463CF0D6FF002005B0BDE8F08F55
:100A38003A6AB24200F2B380D7F830A0A6EB0208B7
:100A48004FEAD80BDAF830300BF1020B9B4508F06F
:100A5800070803D3DAF838309B4513D9514658466E
:100A6800FFF78EFB824660B9A5F1080305F5FC7215
:100A7800A14943F8041F9342FAD1013605F50075E0
:100A8800C9E738639AF80430002B6CD04FF4007231
:100A98000021204642F018FEDAF84030B8F1000F85
:100AA80046D105F11C09CDE900883BBB20464346E9
:100AB8000822F968FFF72BFF4C464FF4F079DAF873
:100AC8004480A1444FF0000AB8F1000FD5D04C453E
:100AD800D3D098F80420D8F80010D8F8303004F1B2
:100AE800200B08F11C00AAB3CDE9000A1122204608
:100AF800FFF70DFF5C46D8F84880E5E7DAF83030B4
:100B08007E4911222046FFF702FFDAF840301A6CBE
:100B180005F13C04CDE9008842B943464846112214
:100B28007749FFF7F4FE4FF4E079C8E71B6BF5E768
:100B3800002B0CBF01220222C2EB0812DAF8448013
:100B4800B8F1000F03D0013AD8F84880F8D14FF433
:100B58000079B6E798F805C0D8F81020CDE900026A
:100B68004CF02102C3E7DAF82890B9F1000F06D15A
:100B78004FF400720021204642F0A6FD7DE7DAF826
:100B88003020ABEB020BDAF80C2008EBCB0853460D
:100B980002EB48224FF400712046C8476DE7002E4B
:100BA8006ED14FF400723146204642F08DFD80230D
:100BB80084F8B86184F8B96184F8BA6184F8BB61D3
:100BC80084F8BC6184F8BD6185F8BA310C2385F8D6
:100BD800BE313A694B49BB68C4F8C6218A42C4F899
:100BE800CA3118DDFF2285F8BB2185F8BD2185F8BB
:100BF800BC21444A013B934228DDFF2385F8BF31DD
:100C080085F8C13185F8C031552385F8FA31AA2312
:100C180085F8FB3131E73F2192FBF1F1C1EB811CF3
:100C280043F6C16492FBF4F4A2EB0C02A01020F08E
:100C38003F000132024385F8BC21FF2291FBF2F20A
:100C4800114485F8BD4185F8BB11D2E73F2293FBDB
:100C5800F2F2C2EB821443F6C16093FBF0F01B1B67
:100C6800811021F03F0101330B4385F8C031FF2388
:100C780092FBF3F31A4485F8C10185F8BF21C3E755
:100C88007B699E4240D15223237063706123A37015
:100C980084F8E731BB6AC4F8E8314FF000084FF038
:100CA800FF3341227221E27084F8E41184F8E511DF
:100CB80084F8E62184F8EC3184F8ED3184F8EE31DB
:100CC80084F8EF314FF4F0724146284642F0FCFCBC
:100CD8005523C5F8EC81C5F8F081C5F8F48184F88E
:100CE800FE316FF0550384F8FC8184F8FD8184F8A7
:100CF800FF31C2E6401C0020DEADBEEF00E704086D
:100D0800FFE60408FF03FB003B699E4278D14FF4DD
:100D180000720021204642F0D7FCEB2305F8043C82
:100D28003F4A582305F8033C902305F8023C136812
:100D380045F8013C5368C5F80330022200234FF000
:100D4800080CF821E372227385F809C0A273E373D3
:100D58002A736374A374E374237569743F2121763D
:100D68004FF0FF31A1763E2121773869B968A37524
:100D7800091AE3756376E3766377A377E3772162ED
:100D8800D7E90601091A616284F8283084F8293005
:100D980085F8263085F8273084F82C2084F82D3003
:100DA80084F82E3084F82F3084F8313084F83230CB
:100DB80084F833300122802384F8302085F83C30D1
:100DC800292385F83E309423164985F83F300E23B1
:100DD80085F840300D2385F841300B68124AC5F874
:100DE80043304B68C5F847308B68C5F84B301368FB
:100DF800C5F84E30536885F842C0C5F8523003E74D
:100E0800D7E906138E4206D39E4207D2711A2046AE
:100E1800FFF7DAF931E69E42FFF4AAAEF11AF6E7D7
:100E2800B4DA0408BDDA0408CADA040810B5044CB8
:100E380004480A4621463EF01BFF204610BD00BF6D
:100E4800FD2C0020D3DA040810B5044C04480A46E7
:100E580021463EF00DFF204610BD00BFFD2C0020AE
:100E6800E1DA040810B5044C04480A4621463EF06D
:100E7800FFFE204610BD00BFFD2C0020ECDA040860
:100E880010B5044C04480A4621463EF0F1FE2046BF
:100E980010BD00BFFD2C0020F6DA040810B5044C84
:100EA80004480A4621463EF0E3FE204610BD00BF36
:100EB800FD2C0020FBDA040810B5044C04480A464F
:100EC80021463EF0D5FE204610BD00BFFC2D002077
:100ED80003DB040810B5044C04480A4621463EF0DA
:100EE800C7FE204610BD00BFFC2D002011DB040802
:100EF80010B5044C04480A4621463EF0B9FE204687
:100F080010BD00BFFC2D00201CDB04080A4608B5F4
:100F1800044920B904483EF0ABFE024808BD034826
:100F2800F9E700BFFC2D00202FDB040847DB04088D
:100F380070B50D4C0D4E2546D4F88C301A79022A1E
:100F480005D0D5F88C00BDE870403CF0F7BF93F9A8
:100F58000C30142202FB0363986C3CF0E7FF002876
:100F6800EFD000BFE8E700BF401C002000000020D1
:100F78002DE9F041164C1E4694F85C30042B0546CA
:100F88008846174616D1FFF763FB94F85230D3B959
:100F980069021120FFF70EFCB8B90523C4E90E85D4
:100FA800C4E9117684F85C30D4F8B438E3640120DD
:100FB800BDE8F081082B01D00020F9E7FFF7B2FB6C
:100FC8000228F9D1DFE72946E3E7FFF7B1FFF3E7A6
:100FD800401C0020F8B500220F232F21022040F0EA
:100FE80088FA214BC3F88C001C4610B983F85C00C2
:100FF800F8BD00213DF022F94FF47A703CF041FC35
:10100800D4F88C00194D1A4E3CF098FF00220A23A0
:101018001146D4F88C003DF0EFF81427D4F88C3042
:101028001A79022A07D0D4F8B438E364012384F883
:101038005C30002315E093F90C3007FB0363986CD0
:101048003CF074FF0028EED0013DE7D1D4F88C00C5
:1010580040F042FA94F85030C4F88C5084F85C5050
:10106800013384F85030C3E7401C0020A1860100FA
:1010780000000020054B93F8CB21D3F8C40102F0FF
:10108800F702002183F8CB213CF0C6BF382D0020A1
:1010980010B504460022212100683CF0BDFFFC2267
:1010A800202120683CF0B8FF4022242120683CF031
:1010B800B3FF0C22232120683CF0AEFF002222213E
:1010C80020683CF0A9FF012010BD10B5012204469C
:1010D800102100683CF0A0FF48B114203CF0D1FB7F
:1010E8002068A0221121BDE810403CF095BF10BD3A
:1010F80010B524220446412100683CF08DFF80B1E0
:101108002022302120683CF087FF50B1062231218F
:1011180020683CF081FF20B10022342120683CF097
:101128007BFF05203CF0ADFB012010BD13B5094C39
:10113800D4F8C4010DF10702A0213CF009FF18B151
:101148009DF807309B0603D500203CF057FCEFE7DD
:1011580002B010BD382D00201FB5044600230DF144
:101168000702272100688DF807303CF0F1FE68B1CE
:101178009DF8070010F0080008D0062302AA2821CD
:1011880020683CF015FF18B9E086A06304B010BDD4
:101198009DF809209DF8083043EA02231BB2002B72
:1011A800B8BF03339B109DF80B20E3869DF80A30E7
:1011B80043EA02231BB2002BB8BF03339B102387DB
:1011C8009DF80D209DF80C3043EA02231BB2002B3A
:1011D800B8BF03339B106387D8E71FB500210446C7
:1011E800C18681630DF1070200683CF0B1FE08B3C7
:1011F8009DF8070010F008001CD0062302AA012160
:1012080020683CF0D5FEA8B19DF808209DF809306B
:1012180043EA0223E3869DF80A209DF80B3043EA4F
:10122800022323879DF80C209DF80D3043EA022302
:101238005B42638704B010BD13B5062304466A46B3
:10124800112100683CF0B4FE18B9E086A06302B032
:1012580010BD9DF801209DF8003043EA02231BB21F
:1012680007EE103AB8EEC77AF7EE086A27EE267A44
:101278009DF80320BDEEC77A17EE103AE3869DF875
:10128800023043EA02231BB207EE103AB8EEC77ADF
:101298009DF8052027EE267ABDEEC77A17EE103A9C
:1012A80023879DF8043043EA02231BB207EE903AE5
:1012B800F8EEE77A67EEA67AFDEEE77A17EE903A4F
:1012C8006387C4E7CA680B6810B513430468114AFA
:1012D800224013434A6913438A691343CA69134373
:1012E8000A6A13434A6A13434A6B13438A6B1343CC
:1012F80043F400330360D1E90B344269234322F0FD
:101308000702134343610B6943604B6883608B6832
:10131800C36010BD3F801CF010B5802104463EF02C
:10132800C2FC204600213EF0BEFC2046BDE810402D
:101338003EF02ABF420900F01F03032A4FF00100C4
:1013480000FA03F008D0042A0BD0022A0DD1074B6B
:101358005A6C104358647047044B1A6C1043186455
:101368007047024B1A6B10431863704700380240ED
:10137800CB4BF7B5CB4DCC4C0822C3F888202B6B50
:1013880043F001034FF4C0522B63064640F2023388
:1013980020460F466946CDE900233FF095FC636A75
:1013A80023F470436362636A43F420436362636AAD
:1013B80023F470236362636A43F4202363622C205E
:1013C8003CF069FB00213FF009FD6B6CB74CB84A53
:1013D800B84943F480436B646B6B43F080036B63E1
:1013E8002B6A43F080532B62B34B01255D61C4F82F
:1013F800B827B24AC4F8BC67C4E97412022284F858
:10140800D8214FF0A042C4F8DC2102F50062C4F8EC
:10141800E02102F58072C4F8E82102F50072C4F8F0
:101428002422A2F5F072C4F8EC2102F50072C4F887
:101438002822A2F5F072C4F8F02102F50072C4F86F
:101448002C22A2F5F072C4F8F42102F50072C4F857
:101458003022A2F5EC62C4F8E4214032C4F89C22A0
:10146800C032C4F860222032C4F864222032C4F8A2
:1014780068222032C4F86C222032C4F8702220324C
:10148800C4F874222032C4F8B47784F8DB51C4F865
:1014980078222032C4F87C2202F52262C4F8A02205
:1014A80002F58052C4F8A42202F58052C4F8A8229A
:1014B80002F58052C4F8AC224FF05022C4F8B02292
:1014C80002F58052C4F8B42202F58052C4F8B8225A
:1014D80002F58052C4F8BC22A2F5E4420021C4F807
:1014E800DC2204F5E87284F8E25284F8E41210462B
:1014F8000B46402680F81C11A0F82211013104295E
:1015080080F81D5180F81F31C0E94963C0F83031B7
:1015180000F12800EED100231946402082F87433E8
:10152800A2F87A330133042B82F8751382F8771303
:10153800C2E9DF01C2F8881302F12802EED14FF0A8
:10154800A0435F489A6822F001029A60DA6842F084
:101558004002DA603EF0F8FD0025212363F31745C9
:1015680094F8D9310BB145F4801594F8D321D4F807
:10157800DC31012A9D6307D19A6822F03E0141F0CF
:101588002A0161F307029A60DA68C2F3076121F061
:10159800600141F0400161F31F62DA60D4F8DC2297
:1015A80000201060D4F8E021116860F3CC211160AC
:1015B80094F8DB11012912D1116841F0030111607F
:1015C80080225A6202F580029A6202F14012C3F840
:1015D80004214FF4A072C3F80821C3F80C2110218C
:1015E8003848394D3FF086F836483FF06BF8D4F864
:1015F800E02194F8D10100234FF0FF3113611E461A
:101608005361FF279161D361834237D300232F4D64
:101618001E46FF27984267D8136994F8D31143F4FC
:1016280080730129136104BF294B1363D4F8DC319B
:1016380000229A614FF0FF306FF080425A61586083
:101648005A61244A9A610029234A0CBF10210021BB
:101658000A4399690A439A619A6842F001029A60BA
:10166800D4F8B8371B6898471C4B1D4ADA6068469F
:101678001C4B00933FF012F903B0F0BD55F8041B62
:10168800D1F800C0BCF1000FACBF4FF0000C4FF018
:10169800904CC1F800C001330E618F60B4E700BF01
:1016A80000E100E00038024000000240382D002030
:1016B8009800002008040100003C0140400040015F
:1016C800142F0020082F0020202F00205C2F00203E
:1016D800030181000008008008383C0000ED00E0AC
:1016E8000005FA054302000155F8041BD1F800C0B3
:1016F800BCF1000FACBF4FF0000C4FF0904CC1F89C
:1017080000C001330E618F6084E710B5084A92F873
:10171800C43702EBC3040133DBB2042B08BF002338
:10172800090284F8C80782F8C437C4F8CC1710BD7A
:10173800382D0020F7B5C24E96F8FB37C6F8E807F3
:101748001E2B0D4634460FD014D8122B00F0A5805E
:1017580005D8002B5DD0032B6DD02021FBE11A2B7F
:1017680000F0BA801B2BF8D10025A4F810582846A1
:1017780003B0F0BD282B00F0F78028D8232B00F009
:10178800C780252BE9D1D6F80C3828465B6806F6C1
:10179800140206F6180198470546002844D1D6F8E1
:1017A8001828A84B013A110E1970110C5970DA70EB
:1017B800110AD6F814289970110E1971110C597163
:1017C800110A9971DA710823A6F81038CFE72F2B80
:1017D80000F0A9815A2B00F08D802A2BBDD196F8F4
:1017E8001C38002B40F0648196F9F837002BB4DBE5
:1017F800D6F80C3808469B689847A8B9D6F80C382C
:101808002846DB6898470546002800F025812721EF
:101818000BE0D6F8F437002B9FD1D6F80C380846E1
:101828009B68984700289FD03A210220FFF76DFF58
:101838004FF0FF359BE7834B122219460020013AEF
:1018480012F0FF0203F8010BF9D170230B700C237F
:10185800CB7194F8C40794F81238984212D004EB6C
:10186800C300013390F8C8578D70DBB290F8CD579C
:1018780090F8CC070D73042B487314BF84F8123802
:1018880084F812281223A4F8103894F8FF37122B82
:1018980098BFA4F81038002569E796F8FC37DA07EE
:1018A80017D4D6F80C3896F8FF27DB6901EBC10589
:1018B80003EB85052B790533934228BF1346614A0C
:1018C800A4F81038002BE6D0013B9BB2E95CD15458
:1018D800F8E707235C4DF2E708235C495C4AA6F861
:1018E8001038013B11F8010902F801099BB2002BDD
:1018F800F7D1D0E708235749554AA6F81038013BD5
:1019080011F8010902F801099BB2002BF7D1C2E7CF
:101918004C4A0C2316460021013B9BB202F8011BDE
:10192800002BF9D1D4F80C3828465B686A4601A91F
:101938009847054600287FF477AF0823F370019B8A
:10194800013B1A0E32711A0C7271F3711A0A0223D2
:101958003372009BB2711A0C7272F3721A0A0C235A
:10196800B272A4F8103802E796F81C386BBB96F9E7
:10197800F837002BBFF6F1AED6F80C3808469B684E
:10198800984700287FF450AFB6F80238D6F8FD27FC
:10199800D6F818185BBA12BA9BB298188842C6F8DB
:1019A8002028C6F8243800F2D580022186F81C18B1
:1019B800D6F814184A43C6F82028D6F8F4274B431B
:1019C8009342C6F824387FF4C8AED4F82468D4F813
:1019D8000C08D4F81428D4F8201807694FF4805359
:1019E8009E4228BF1E46A4F810382846B6FBF2F3DC
:1019F800B1FBF2F29BB21349B847002802DA112171
:101A0800042013E733460F4AD4F8E80781213EF053
:101A180070F9D4F82038D4F824583344C4F820385E
:101A2800D4F83038AD1B9E1BC4F82458C4F830686D
:101A3800002D7FF430AF032384F81C3897E600BFED
:101A4800382D0020487C00204A5C0408585C0408B3
:101A58004F7C0020605C0408B6F80238D6F8FD1701
:101A68005BBA9AB209BAD6F81838C6F820185018CE
:101A78009842C6F824286DD8D6F8143859435343E9
:101A8800D6F8F427C6F820189342C6F824387FF40D
:101A980064AEB3F5805F28BF4FF4805301219BB239
:101AA8002E4AD6F8E80786F81C183EF0D8F95EE604
:101AB800D6F82448D6F80C08D6F81428D6F82018F2
:101AC8004769B4F5805F28BF4FF480542846B4FBBB
:101AD800F2F3B1FBF2F29BB22049B847002801DAD1
:101AE80003218DE7D6F82038D6F83028D6F8E8074D
:101AF8002344C6F82038D6F824381B1B141BC6F814
:101B08002438C6F830481BB900213EF0EDF9C2E68A
:101B1800B3F5805F28BF4FF480539BB20F4A012171
:101B28003EF09DF9B7E696F8FC379B0701D52421CE
:101B380011E0D6F8FD371ABAB6F80238C6F82028E8
:101B48005BBA9BB2C6F824381344D6F818289342D7
:101B58007FF60AAE2121052068E600BF487C0020F8
:101B68002DE9FF418046084615463CF0E1FF4FF459
:101B78007A72002306460F4640F0BAFCB5F90030E9
:101B88003C2403FB0404394630464FF47A720023A0
:101B980040F0AEFC002796B24FF47A73C3FB04679B
:101BA8003B46324601A83CF029FF3A4B93F83A38B5
:101BB800012B09D0022B35D032463B4640463CF03B
:101BC8001DFF04B0BDE8F0819DF80640E31E072B19
:101BD800F2D8231F052B0DD92146BDF804003CF08F
:101BE800BBFE9DF8073098420ED0E11E18BF0121B8
:101BF8000029E1D02B883C332B80274BF6184FF077
:101C0800000343EB0707D7E7032C03D19DF808101F
:101C18000031EBE70A2CCFD19DF80810B1FA81F119
:101C28004909E5E79DF80640E31E082BC4D8231FA1
:101C3800062BDFD92146BDF804003CF08DFE032CAD
:101C480012D10E280ADC9DF80730984208D19DF879
:101C58000810012994BF00210121C9E70738F0E7DE
:101C6800B4BF01210021C3E70B2CA5D107280ADC4A
:101C78009DF80730984208D19DF8081001298CBFBB
:101C880000210121B4E70738F0E7CCBF012100218A
:101C9800AEE700BF382D002080EE36002DE9F04772
:101CA80090B0DDE9184A0D460746904600213A22D1
:101CB8000DF1060099461A9E41F006FD334B02933A
:101CC8008DF80450CDF834A0002D54D0022D54D0F6
:101CD800032D54D0042D54D103232D4A02EB430382
:101CE8009B7E8DF805302B4B0394D3F8B4380697B8
:101CF8001C440123CDE904468DF83130B8F1000FBA
:101D080006D04A46414607A841F0E6FA8DF83090D9
:101D1800DFF884C09CF87EE80023BEF1010F0E9323
:101D28001ED80DF1040ABAE80F009CF87D683C241F
:101D380004FB06C404F508640FC4BAE80F000FC416
:101D4800BAE80F000FC49AE80700B6FA86F60EF153
:101D5800010E760984E807008CF87EE88CF87D6827
:101D68003B6883B14B4642462946384610B0BDE829
:101D7800F04720F024B92B46AFE70123ADE7022353
:101D8800ABE70023ADE710B0BDE8F087743500205D
:101D9800485C0408401C0020382D002013B501239E
:101DA8008DF805304FF48073ADF8063003681B6872
:101DB8005B79044623B101A88DF804303EF094FD08
:101DC80023681B689B7923B101A88DF804303EF085
:101DD8008BFD02B010BD031EB8BF2D2210B5B8BFD1
:101DE80058420C46AEBF0A2201F8012B0A223CF0E9
:101DF8002DFD00230370204610BD10B5084A0023AE
:101E080011461479844203D1142000FB031010BD3D
:101E180001330B2B02F11402F3D10020F7E700BFC6
:101E28006C5C040837B5424CD4F8B858002D7CD106
:101E380010232A462D2102203FF05BFBC4F8B80886
:101E480078B303213CF0FAF99F23322000933BF04A
:101E580018FD04236A460DEB0301D4F8B8088DF881
:101E680005503CF0C9F99DF806309DF805201B0285
:101E780043EA02439DF8072013432E4A93422E4A11
:101E88004ED036DC2D498B4248D00CDC2C498B4295
:101E980014D02C498B4245D00020C2E92F00C2F84B
:101EA800B40003B030BD28498B4237D001318B4292
:101EB80038D0A1F51A4103398B42EDD1234BC2F832
:101EC800B430B2F8B830B2F8B410214C1B02C2F8E2
:101ED800BC304B43B3F1807FC2F8C03005D9012331
:101EE800B72084F8FC38FEF78FFC012084F8FD0841
:101EF800D7E718498B42E1D007DC17498B420DD050
:101F080002318B42C8D1154BD9E715498B4209D00C
:101F180001318B42F7D002398B42BDD1114BCEE74C
:101F2800114BCCE74FF00123C9E70120B9E700BF07
:101F3800401C00201620C2000000002017301C00A2
:101F4800154001001860010017BA200020000001A8
:101F5800382D00201540EF001720C20000020001B4
:101F68001840EF0080000001400000012DE9F04713
:101F780006464068544D048A036889464FEAD41ED1
:101F880090B09246240900214FEA411C3CF80520F4
:101F98008EEAD21784EA121207F0030702F007024A
:101FA8003A4340F089806544F560002D00F08A804E
:101FB8002C7F002C40F08680B3F84420434F42F435
:101FC8000042A3F844201A8842F080021A8042791D
:101FD8003A444FF0010892F800011A8C08FA00F010
:101FE80080B222EA00021A841A8C104318841A88D4
:101FF80042EA08021A80284606F09EF80A23AB83B4
:10200800F568284606F098F8314BEB602B7DAE61F9
:1020180001A88DF804304FF48073ADF806308DF8C0
:1020280005803EF03BFCF36898683EF092FCF3684C
:102038009868036823F0010303603EF08AFC304689
:10204800CDE90144CDE90344CDE90544CDE9074490
:10205800CDE90944CDE90B44CDE90D440F9406F0D0
:1020680076FA4FF4806307934FF480414FF480531E
:10207800CDE90831736802901B8ACDF814A003F0EB
:102088000F0307EB830701A9D7F804310193402315
:1020980004934FF400330B93F368CDF80C909868D1
:1020A800FFF710F9F3689A68136843F01003136098
:1020B800404610B0BDE8F087013110297FF464AFC5
:1020C800002571E70020F4E7C4000020485C0408FC
:1020D800A56A0008F0B5264D05F5166105F6381213
:1020E800C5F830192349C5F81C1985B00646C5F846
:1020F8002C2900214FF478730131122922F8023B70
:10210800FAD11D4F85F8001942F6F8220023C7E9D5
:1021180002234020194BC5F8203920F0A7FD0446BA
:1021280020B308F057F995F8A63995F8A71994F946
:1021380004C00096041E14BF03220122002B0CBF0A
:1021480007230623002914BF082100210B43CDE9EA
:102158000123402107F16003094A604620F0BEFDD3
:102168000CB1C5F8C809003018BF012005B0F0BD92
:10217800382D0020D5FF0108383600202701020835
:102188009D06020870B50B4B0B4CA34202D30022EC
:10219800104670BD5A7982420AD11A7A8A4207D10A
:1021A8001A681E791579AE4202D11568AB42EFD094
:1021B8000C33EAE72C2F0508A030050873B50C4E40
:1021C800052400250A203BF05CFB0DF107020021E5
:1021D800D6F8CC098DF807503BF0BAFE18B19DF837
:1021E8000730482B02D0013CECD1204602B070BD2C
:1021F800382D0020642828BF642000EB800070B5CB
:10220800450064240026B5FBF4F4E4B2F3B29C4222
:1022180012D80A2C0BD01420B5FBF0F0C4EB8415AF
:102228006638C4EB85052844C0B213F0B9FE013402
:10223800E4B2092C05D970BD9F2013F0B1FE013618
:10224800E4E79A20F1E7002170B508463BF0C2FBAD
:10225800002101203BF0BEFB0C4D01244FF4067613
:1022680055F8040B20B1C680047201213EF0B6FD7A
:102278000134042CF4D1002108463BF0ABFB0021CB
:102288000120BDE870403BF0A5BB00BF6C5D0408B1
:1022980070B50E4C05460C2694F8143A072B01D954
:1022A800002011E05A1C06FB034384F8142AD3F8D3
:1022B800182AD107F0D51542EED093F91C0A20F060
:1022C800FBFC0028E8D0406870BD00BF382D002016
:1022D800024B002283F8142ADAE700BF382D0020C9
:1022E8002DE9F041FCEEC07A0A4617EE901A044632
:1022F800D0F814808769C669056A0123B0EE600AC0
:1023080089B23DF014FBC4F81480A761E661256228
:10231800BDE8F08130B5264B10201D78A5F13001BD
:1023280009291A4603F1010329D9214C0021131B5D
:10233800022B27DC0023A2422ED82E2D36D1501C8A
:1023480004240022057802EB8202303D5200092D58
:1023580092B298BF521904F1FF349CBF013092B277
:1023680014F0FF04EED164205043124A02FB03002C
:102378000623B0FBF3F0104B03FB010001E001382A
:10238800CBD130BD01EB8101490014F8010B303984
:10239800014401F0FF01CAE703EB83035B0014F873
:1023A800010B303B034403F0FF03C4E70022DAE7E4
:1023B800B437002040420F008096980030B50023C3
:1023C80051F8234052F82350641B40F8234001334E
:1023D800032BF5D130BD30B50468E46985B02CB164
:1023E8000DF10F050095A04705B030BD2046FBE76D
:1023F80008B5074833F094F8064835F0A5FB064BB6
:1024080093F88C2A12B1012283F88D2A08BD00BFE7
:102418005FDB04086BDB0408382D00202DE9F04F42
:1024280087B0DFF8ACA0059107469046994600258D
:10243800B8F1000F07DBA84505D00135042DF7D109
:1024480007B0BDE8F08F059AD6236B4302EB030B68
:102458001E4AD31804930024B9F1000F01DBA145EB
:102468002FD1049B3BF8146033F81430F21A56420B
:10247800564113F4006F03F01F02C3F3441114BF55
:1024880056234823CDE90213CDE900422B46524694
:102498003146384634F01CF83BF8143013F4006F1A
:1024A80003F01F02C3F3441114BF56234823CDE998
:1024B8000213CDE900422B4652463146384634F0E5
:1024C8001DF801346B2CC7D1B7E700BFC83700200F
:1024D80078DB04082DE9F04F41F22473364C374A73
:1024E800DFF8E4B08846E15C354B002908BF1A469E
:1024F80041F2257387B0E1568146324833F012FC29
:1025080004F6286446460027B8F1000F52D096F822
:1025180000A094F85C03F168B6F910C096F816E0CC
:102528005045D6E9013243D1D4F8600398423FD1EF
:10253800D4F8640390423BD1D4F86803884237D179
:10254800B4F96C03604533D194F87253A5EB0E00CF
:1025580045424541CDE90221CDE900A3CDE904CEAC
:102568003B465A462946484633F0B2FF94F8723340
:102578000593B4F96C330493D4F868330393D4F80F
:1025880064330293D4F86033019394F85C33009376
:102598005A463B4629464846013733F0AFFF3C2FA1
:1025A80004F1180406F11806AED107B0BDE8F08FA3
:1025B8000025CFE74546D9E7382D0020700A0508E1
:1025C80092DB040895DB0408A4DB040870B541F22B
:1025D8001013204DEB5C2DED028B04460E4693B391
:1025E80041F21813EB58036041F21C13EB58436097
:1025F80005F589531B68836005F6286393EDBB8A4C
:10260800DFED158A96ED000A80EE280A41F0C4FA3B
:1026180023681844206028EE288A96ED010A80EE87
:10262800080A41F0B9FA63681844606096ED020A36
:1026380041F0B2FABDEC028BA368184441F21013C2
:10264800A060E85C70BDC0E900338360B7EE008A23
:10265800D6E700BF382D00202C7D8E3F70B541F2A3
:1026680010131D4CE55C95B341F218160B68A6597A
:10267800DFED1A6A9B1B07EE103A41F21C164B68F5
:10268800A659B8EEC77A9B1B27EE267A07EE903A32
:1026980004F62863012A80ED007A93EDBB7A8B68F3
:1026A80018BF04F58954F8EEE77A27EE267A18BFA2
:1026B800226867EE877A18BF9B1AC0ED017A07EE89
:1026C800903AF8EEE77AC0ED027A284670BD00230A
:1026D800036043608360F8E7382D00202C7D8E3F2F
:1026E8000C4608B5054620F089F8204620F086F803
:1026F800002108463BF06EF9002101203BF06AF901
:1027080028463BF019F970B1012100203BF062F92D
:1027180028463BF00BF9014620463BF010F9002112
:1027280008463BF057F920463BF006F90028E7D069
:10273800012100203BF04EF920463BF0F7F8014616
:1027480028463BF0FCF800210846D7E7F0B50546D7
:102758000C4689B014220021204640F0B5FF2A68B3
:102768001D4E04A9C2F3855000230D4640FA03F715
:10277800FF0744BF9F5D01F8017B0133062BF5D1AC
:10278800164800230B70C2F303210144C2F3053637
:1027980091F836118DF8181000F23D100DF119015D
:1027A80046FA03F7FF0744BF1F5C01F8017B0133BA
:1027B800062BF5D100230B70C2F38343029306ABBB
:1027C800CDE90053064902F00F032046C2F3031275
:1027D8003CF073FA09B0F0BD785D0408485C040861
:1027E800BCDB04081FB5314901A84A7D58311AF0ED
:1027F8009EFA0398019A80EAE073A3EBE07307EE70
:10280800903AF8EEE77AF7EE086AC7EEA65A82EA37
:10281800E273A3EBE27307EE103AB8EEC77A029BB5
:10282800F4EEC75AF1EE10FA13DD83EAE371A1EB77
:10283800E37106EE101AB8EEC66AF4EEC65AF1EE67
:1028480010FA06DD0028CCBF0020012005B05DF895
:1028580004FBC7EE265A83EAE371A1EBE37106EEA7
:10286800101AB8EEC66AF4EEC65AF1EE10FA09DD8F
:10287800F4EEE57AF1EE10FA04D5002ACCBF022076
:102888000320E3E7C6EE265AB4EEE57AF1EE10FA35
:1028980009D5F4EEE57AF1EE10FA04D5002BCCBF99
:1028A80004200520D2E74FF0FF30CFE700000010EA
:1028B80030B52A4C94F85C368B424ED194F85D269C
:1028C800DFED276AD4F8805604EB4201013202F0AA
:1028D8000F0284F85D26234AB1F85E36A1F85E0639
:1028E80092F8B41992F8B52907EE101AB8EEC77A1B
:1028F800C31A27EE267A2B44FDEEC77AC4F8803631
:1029080017EE901A07EE902AF8EEE77A1B0967EEA1
:10291800A67AA4F88436FDEEE77A17EE902A91425B
:102928000FDD9BB29A42D4BF9B1A00239942A6BFDF
:10293800CB1A9BB20023A4F884360B4617EE901AE4
:102948001A46B4F884365B1AC3EB8323521A93FBF6
:10295800F2F282F30A02A4F8842630BD303E002049
:1029680014AE2341382D00202DE9F04F2DED108BAA
:10297800DFEDAF5A8DB00223009003910B920191C5
:102988000293B0EE655A019B009AD9084FEA4119A3
:1029980002EB090CCA00182008926FF017024A438C
:1029A80000FB01F428200CEB0207049400FB01F45F
:1029B800079430200C0107EB0906B518069400FBB4
:1029C80001F43820059400FB01FB05EB090400988D
:1029D8002244DB0002EB090800F1040E4FF0000A64
:1029E800DCED007A1EED017AD7ED003AD5ED004A0C
:1029F80098ED003AD2ED002A77EE276A37EE677A2B
:102A0800D6ED007A33EEA76A73EEE73AD4ED007A92
:102A180034EEA74A74EEE77A72EE834A36EEC48A39
:102A280036EE640A76EE846A36EE246A72EEC32ABB
:102A380076EE864A76EEC66A4EED014ACCED006A1D
:102A4800DEED004A9CED016A97ED014A95ED013AE9
:102A5800D8ED011A74EE866A34EEC66AD6ED014ADC
:102A680034EE242A34EE644AD4ED014A33EE241AB3
:102A780073EE644A92ED013A73EE210A33EE613A3D
:102A880076EEC11A76EE816A32EE601A32EE202AAC
:102A980076EE820A76EEC26ACEED000ACCED016AC5
:102AA80078EE016A38EE412AC5ED006A71EEC06A17
:102AB80084ED002AC5ED016A70EE216A34EE432ADE
:102AC800C4ED016A73EEA26A73EEE21A34EE034AA9
:102AD800F0EE673AE6EEE53A9C441D44E6EEA57A48
:102AE8001C449E44F0EE462AF0EE466AB0EE646A54
:102AF800B0EE473AA4EE256AA1EEA57AE2EE652A81
:102B0800E2EE256AB0EE642AA1EEE53AA4EE652A63
:102B180077EE064A37EE467AC7ED004A88ED007A26
:102B280033EE027A33EE423A86ED007A36EEE77AF1
:102B380077EEA67A82ED003A87ED017AC8ED017A40
:102B480072EEE37A73EEA23AC6ED017AC2ED013A6B
:102B580001988244039850451F441E441A449844DF
:102B68003FF63EAF072940F26881009A00984A4430
:102B78000A92089A02440992079A02440892069A0D
:102B880002440792059A02440692049A0244059266
:102B98000BEB000204924FF001094FF0000A029A71
:102BA80092440B9A4FEACA042244D2ED001A2244F6
:102BB80092ED008A2244D2ED004A224492ED009A16
:102BC8002244D2ED003A22446FF02F00D2ED000AE1
:102BD8002244D2ED002A00FB0A2292ED011A009845
:102BE8002244D2ED018A224492ED014A2244D2EDD8
:102BF800019A224492ED013A224492ED010A2244BC
:102C080092ED012A4FEAC90200EB02080A9800EB8C
:102C1800020E099800EB020C089887180798861886
:102C280006988518059884180498CB46024401E054
:102C3800F304353FDEED007ADCED006A97ED007AAB
:102C480098ED00AA96ED00BA94ED00EA3AEE276AEC
:102C580036EEC7DA3AEE67AA76EE877AD5ED006ADD
:102C68003BEE267A3BEE66BAD2ED006A7EEE26AAE5
:102C780036EE47FA77EEEAEA36EE076A77EEAA7A90
:102C88003EEE66EA36EE277A76EE67AA88ED007A97
:102C980098ED016ADEED017ADCED01CAD6ED016A34
:102CA800D4ED01FAD2ED01DA36EE277A76EE67BA7C
:102CB800D7ED017A3CEEA76A7CEEE7CAD5ED017A3A
:102CC80036EEA7CA76EEE77A7FEEAD6A7FEEEDDAEA
:102CD80077EE4CFA37EE0CCA36EE667A36EE266A8E
:102CE8007FEE076A3FEE477A3CEE06FA3CEE46CAAC
:102CF80088ED01FA29EE8C6A3FEEEEFAA9EE2A6A0F
:102D080098447EEEAFEA8EED006A2AEEE96A7DEE1F
:102D18004EAAA9EE0C6AB0EE4ACA8EED016A28EEF8
:102D28008F6AAAEEC5CA9E44A8EE266A66EEE86ACD
:102D380086ED006AE8EE0F6A3CEEED6AC6ED016AC0
:102D480060EE2E6AAAEE85AA1E44E0EE876A27EE98
:102D5800407AC5ED006AA0EEAE7A7DEE0E6A85ED8A
:102D6800017A3CEEAD7AF0EE6BCAE6EE05BA1D4488
:102D7800E6EE45CAB0EE6B6AF0EE67BAE7EE45BA22
:102D8800E7EE057AF0EE4BAAA6EE85BA3CEE2B7A72
:102D9800E6EEC5AA7AEE276A7AEE677A3CEE6BAA67
:102DA80036EE4BCA3BEE066A61EE0CBA3CEEEABA66
:102DB800E1EEA6BA66EEC16ACCED00BAE1EE8C6A25
:102DC8007AEEACAACCED016A62EE066A9C44E2EEA9
:102DD800A76AC2ED006A67EEC26A63EE0B7AE2EE9A
:102DE800866AE3EE877AC2ED016A27EE437AC7ED79
:102DF800007A64EE2A7AA3EE8B7A1A44E4EE8A7A91
:102E080087ED017AC4ED007A6AEE447A1F44E4EE55
:102E1800AA7AC4ED017A01988344039858451C4462
:102E28003FF608AF09F1010949457FF4B8AE029BA6
:102E3800DB009BB2CDE90113A5E50DB0BDEC108B0D
:102E4800BDE8F08F30B5194CD4ED1A7A89B0F1EE9F
:102E5800677ACDED057AD4ED1B7A00230093F1EE65
:102E6800677A0B680193CDED067A4B68D4ED1C7A2E
:102E780002938B6803930546636E0493F1EE677AB9
:102E88006A4604A96846CDED077A24F0A7FD69468D
:102E980004F16402084624F0A1FD019B2B60029B0B
:102EA8006B60039BAB60284609B030BD0000001082
:102EB80038B502782DED088B30EE608AD0ED01AA86
:102EC8000446B0EE40AAF0EE419AB0EE619AB0EE38
:102ED80042BA0D4668EE2AAA01F001034AB1002B56
:102EE8000CBFF0EE607AF0EE487A0022C0ED0B7A63
:102EF8000270D4ED0B7A002B60D078EE677AF0EE92
:102F0800480A87EEA90AC4ED0B0AD4ED090AD4EDE4
:102F1800038AF5EEC00AF1EE10FA05DDB0EE691A83
:102F280004F1180039F060FFD4ED057A94ED0A7ABF
:102F38002AEE27AA20EE280A7AEE877A77EE807A98
:102F480077EE8A7AF4EEC97AF1EE10FA08D4F4EE44
:102F5800CB7AF1EE10FAD4BFB0EE679AB0EE4B9A86
:102F6800D4ED026A94ED046AC4ED0DAA28EE268A0F
:102F7800F0EE476AE9EE886A6B0779EE677A84EDC6
:102F88000C7A67EE867A84ED0E0AE9EEA76A84ED7C
:102F98000FAA84ED109AF0EE667A08D5F0EEE66A8C
:102FA800B0EEC77AF4EEC76AF1EE10FA01D5C4EDB7
:102FB8000A7AB0EE490ABDEC088B38BD70EEE77AA4
:102FC800F1EE677A87EEA90A9DE72DE9F0412DED2C
:102FD800068B09EE100A0BF05FF9A44DD0ED047AC8
:102FE80095EDB58A90ED037AD5EDB48AA04F38EE09
:102FF800678A78EEC78A28EE080AA8EEA80A41F080
:10300800EFF8DFED9C7A9C4B97ED006AD3F874805B
:10301800B4EEE70AF1EE10FAC9BFDFED987ADFEDFA
:10302800987AC7EE806AB0EEE87AC2BFF0EEC87A46
:1030380027EE267A67EEA67AB8EEC98ADFED916A9E
:1030480028EE268ADFED906A68EE266AD8BFB0EED1
:10305800677A18F4006F18BF76EEA66AB1EE47AA31
:1030680036EE669AB4EECA9AF1EE10FA00F1F280E2
:10307800B4EE479AF1EE10FAC8BFB0EE479A36EEB2
:10308800266AB4EEC6AAF1EE10FA08DCB4EEC67AE7
:10309800F1EE10FA54BFB0EE46AAB0EE47AA7B4E46
:1030A80096ED007A77EE668AF1EE679AF4EEE98A91
:1030B800F1EE10FA00F1D180F4EE678AF1EE10FA21
:1030C800C8BFF0EE678A76EE876AF4EEE69AF1EE0C
:1030D80010FA08DCF4EEE67AF1EE10FA54BFF0EEDE
:1030E800669AF0EE679A0BF0D7F8D5EDB4AAD0ED52
:1030F800030A6748B0EE4A2AF0EE491A0021B0EEFA
:10310800481AB0EE6A0AFFF7D3FEB0EE409A0BF009
:10311800C3F895EDB5AAD0ED040A5E480021B0EEDB
:10312800692AF0EE681AB0EE481AB0EE4A0AFFF7BC
:10313800BFFE594B93F8BE4618F4805F04EB840435
:103148004FEA44043DD093F8CA26D2B307EE902A3A
:10315800DFED526AB3F8CE2695EDB06AB8EE677A1D
:10316800C7EE267A06EE902AB3F8A426B8EE667A59
:1031780006EE902A36EE476AF8EE666A26EE276A69
:1031880076EEC76A86EE267ADFED456A37EE267A4E
:10319800B4EEE67AF1EE10FA62D4F4EEC77AF1EE04
:1031A80010FA58BFF0EE477AB7EE007A77EE877AD2
:1031B80093F8D24629EE279A04EB840420EE270AD6
:1031C8006400D5EDAE7A95EDAD7A86ED000A60EE35
:1031D800278A20EE070ADFED330A87ED009AA9EE69
:1031E800270AE9EE478A3CF021F9B0EE408A3CF024
:1031F800F1F9DFED2C0A28EE800A3CF017F9F2EE1F
:10320800046A20EE260A9FED287AC0EE077A624209
:10321800FDEEE77A17EE903A934224DBA342A8BF6B
:10322800234668EE266A2149C6EE877A41F248703D
:103238000B52FDEEE77A17EE903A9A4203DC9C4275
:103248002246A8BF1A46BDEC068B41F24A73CA5201
:10325800BDE8F081B0EE4A9A11E7F0EE698A32E7EC
:10326800F0EE667AA0E71346DBE700BF603B00207C
:10327800B8440020CDCCCC3D0000001000007544BF
:10328800C23D2D44BD3786350080D444BC4400205F
:10329800403C0020843C0020303E00200000C84212
:1032A800000000008F2A754435FA8E3C382D002026
:1032B80010B588B0002300930B6801934B68029304
:1032C8008B6815490393D1ED1A7A4B6E0493F1EE8E
:1032D800677ACDED057AD1ED1B7AF1EE677ACDEDFF
:1032E800067AD1ED1C7A0446F1EE677A6A466431B3
:1032F8006846CDED077A24F071FB694604AA0846B2
:1033080024F06CFB019B2360029B6360039BA3601A
:10331800204608B010BD00BF0000001010B51E4CBC
:1033280094ED1A0AD4ED196A94ED1B7AD4ED1C7A3F
:1033380020EE000AA6EEA60AA7EE070AA7EEA70A3D
:1033480040F04EFFDFED157AB4EEE70AF1EE10FA21
:1033580008D54FF07E5363660023A366E3662367B0
:103368000F4810BD94ED197AC7EE007A94ED1A7AD9
:10337800C4ED197AC7EE007A94ED1B7AC4ED1A7A77
:10338800C7EE007A94ED1C7AC4ED1B7AC7EE007A7A
:10339800C4ED1C7AE4E700BF00000010BD37863595
:1033A8006400001030B51C7814B1012C05D030BD74
:1033B8009A780270DB780B70F9E7B3F9024052B1E2
:1033C800157B94FBF5F40470B3F904302AB1527BF1
:1033D80093FBF2F3EFE70C25F3E71222F8E730B599
:1033E8001C7814B1012C0FD030BD9D7842B1147BEC
:1033F8006C430460D8782AB1537B43430B60F3E7EE
:103408000C24F5E71223F8E7B3F902200260B3F9B8
:103418000430F3E72DE9F0412DED028B1B4D84B00C
:1034280004460E461746984613460A460146D5F8FE
:103438000007B0EE408A3AF039FC9FED150A9DF876
:103448003030CDF8048028EE000A0022FDEEC07A64
:10345800009217EE901A02A812F0D0FF9DF83400DF
:1034680026F05AFA804638463EF050FA611C01446C
:10347800CDF8008002AB3246C9B2D5F800073AF061
:10348800DAFB04B0BDEC028BBDE8F081303E0020D1
:103498000000C84270B50D4C06460D4613460A4654
:1034A8000146D4F800073AF089FC94F9043704EB94
:1034B800430201335BB2272BC8BF002382F805679C
:1034C80082F8065784F80437012070BD303E00208A
:1034D8002DE9F347284C1646FE2284F8572794F81E
:1034E8006C2884F85927013284F86C284FF6FF724B
:1034F8001F4684F8586784F85A0784F85B17ADF8B4
:103508000620062504F5EB68013DADB23DBBDFF8AA
:103518007080BDF8063094F85857A4F855374FF620
:10352800FF79A8F1080A013DADB24D451ED13846D4
:10353800124907F0E5FB94F85837B4F855272344A7
:1035480006F1080083F85D2794F85837B4F8552732
:103558002344120A83F85E2702B0BDE8F0870DF114
:10356800060118F8010B07F0CBFBCDE7514618F818
:10357800010B07F0C5FBD6E7303E0020854500204B
:103588008D45002017B48DF805308DF804200A4BBE
:10359800BDF804209DF81040A3F85D272F2283F87A
:1035A8005C2783F85F47032299238DF8064003B010
:1035B8005DF8044B8CE700BF303E0020054991F8C8
:1035C80099280023042A036028BF042201F69E01DB
:1035D8003FF082BE303E002010B4074991F8992888
:1035E80000240480022A28BF022201F69E015DF809
:1035F800044B3FF071BE00BF303E0020F8B5204CB0
:103608001D250F46064684F8A6591EF0DFFF002048
:103618001EF068FF08201EF065FF0E201EF062FFF6
:1036280028461EF05FFF04201EF05CFF04201EF0F9
:1036380059FF00201EF056FF30201EF053FF0020D7
:103648001EF050FF38461EF04DFF00201EF04AFFC6
:103658001EF09CFF04F6A7101EF0ACFE234670B1C6
:1036680094F8A72952B994F8A829302A00D02AB981
:1036780093F8A92912B993F8AA3933700120F8BD33
:10368800303E0020011D0023884201D118467047B2
:1036980010F8012B5340082213F0800F4FEA430320
:1036A80018BF83F03103013ADBB2F5D1ECE7094AE0
:1036B80000231046117831B19178802903D168220E
:1036C80002FB030070470133102B02F16802F1D1AD
:1036D80000207047E84700202DE9F743104D15F802
:1036E800C04C07468846CCB9A5F1BC06A14605F5ED
:1036F800EC75306858B13AF0FFF840B1CDF8009059
:10370800334642463946B6201EF036FC0446DC36BF
:10371800AE42EED1204603B0BDE8F0830024F9E7BD
:10372800284F00200E4B062230B483F8DA212422D9
:1037380083F8DB2183F8DC21002283F8DD21094AA4
:1037480003F5EF7102F1240452F8045B41F8045BBD
:10375800A242F9D130BC83F8E00111F067B800BF8C
:10376800284F00208B5D040813490023F0B51A4642
:103778000D461E460A278C1894F87C4A0CB9184640
:10378800F0BD2E2C06D101320028F8D08C18044444
:1037980084F87C6AAC187B4394F87C4AA4F1300C1A
:1037A800BCF1090F9CBF303B1B190E2A01D801320E
:1037B800E1E70023E3E700BF382D002010B50B4CEC
:1037C80004F5B95008300BF065F841F23473E3584A
:1037D800C01A3BF0E5FD0028B8BF404242F2107322
:1037E8009842D4BF0020012010BD00BF382D002012
:1037F800F8B5144C0746D4F81C0203791E3B012B7C
:1038080002D900213AF09BF80F4E0025BD42D4F8AA
:103818001C0210DB00213AF092F80C4BD3F8B438B4
:10382800C4F840320023C4F84432B4F848320133B3
:10383800A4F84832F8BD16F8011B3AF080F80135B3
:10384800E4E700BF284F002048510020401C00201A
:10385800F0B5234A034687B01546144600270120D1
:1038680095F806E0A3EB0E0605F1060C002EA3EB77
:103878000705B8BF7642002DB8BF6D42AE4200F1D1
:103888000100BCBF4FFA8EF7644610286546E7D1A1
:1038980000201578BD420CD1668855888E1B4D1BBB
:1038A800002EB8BF7642002DB8BF6D42AE42C8BFE9
:1038B80014460130102802F10602EAD16279049216
:1038C800227903926288029222780120CDE90012BF
:1038D800044A03213BF03AFF204607B0F0BD00BF81
:1038E800B05D0408CBDB0408F0B59F083F010D4626
:1038F8001446C619B04205F1100504F1100408D1A8
:1039080003F0030339443A4406EB83039E4223D170
:10391800F0BD84469CED006A15ED045AD0ED016AAD
:1039280055ED037A90ED027A55ED025A26EE056AB6
:1039380066EEA76AD0ED037A04ED046A15ED016A14
:1039480044ED036A27EE257A67EE867A103004ED97
:10395800027A44ED017ACDE7F6EC017AB1EC017A0E
:1039680067EE877AE2EC017AD0E710B51C203AF0CE
:1039780092F8112104463DF031FA20463AF0B2F8A7
:10398800C82039F07EFF2046BDE810403AF0AFB8B5
:103998002DE9F04FB54CD4F8DC315E6916F001061C
:1039A8008BB040F085825A699B691340019300F0FF
:1039B8007F82C3F30743180700930ED5D4F8E0318C
:1039C800DFF8B0929F69DB6904F5E87B1F403F0C84
:1039D800DA46D846002F40F00381009B590711D5DD
:1039E800D4F8E021A24F9369D26903EA02081FFACA
:1039F80088F83E464FF0000AA7F5E87BB8F1000FBB
:103A080040F040819DF80460B10741BF974BD3F85F
:103A1800DC3102225A61019B002B1BDA934B93F88D
:103A2800DA213AB1D3F8DC22136823F0030161F3F9
:103A380007031360D4F8E0218D48536823F001038D
:103A480053608C4BD3F8DC329847D4F8DC314FF014
:103A580000425A61019BC3F307252A072FD500238B
:103A68008DF8173094F8E2328DF81730814B804882
:103A7800D3F8D8329847D4F8DC21D4F8E0314FF4A1
:103A880000619B68516194F8DA21C2B1DB0716D551
:103A980094F8E532012B12D19DF81730032B0ED183
:103AA800D4F8DC321A6842F001021A601A6842F04F
:103AB80003021A60704A136943F00603136137075B
:103AC8000AD56A4F6B4B07F5E870D3F8D0329847A0
:103AD800D7F8DC3108225A61F60614D5D4F8DC018F
:103AE800836923F010038361036AC3F34341022906
:103AF80003F00F0200F06C81062900F091818369C0
:103B080043F010038361E80633D5D4F8E021584820
:103B18005368002623F00103536031463CF0EAFD68
:103B280094F8D1C1554A37463346FF206345C0F063
:103B38008581D4F8E0314E484FF0FF329A614FF05A
:103B48000112DA610B2262F3070662F307075E616E
:103B58001F611A686FF30A121A603CF015FBD4F85B
:103B6800DC3143484FF480525A61424BD3F8D43287
:103B78009847A90640F17E813C4AD2F8E031D2F854
:103B8800E80199680268C1F34101022906BF0321CF
:103B980061F30A026FF30A0202605A6842F4807203
:103BA8005A6006A83CF05CFFD4F8DC11D4F8E001B8
:103BB800CB68079A6FF38D23CB6085683048C5F3CF
:103BC8004105284490F8C801032840F03E810022AE
:103BD80084F8D2214FF40072A4F8D421092243E1D9
:103BE800F9073BD5F1B204EB8103D3F824329D6881
:103BF800D4F8E0315B691D40EA071FD594F8D3017A
:103C0800DBF854300125A8429D6007D11869DAF81D
:103C18007C33C0F312001B1ACAF88C33D9F8C432AB
:103C28004046984794F8D331012B07D136B994F818
:103C3800E132052B02D140463CF0A6FAAB0742BF61
:103C4800DBF8543002259D60280707D5D9F8CC3217
:103C580040469847DBF8543008229A6001367F08BE
:103C68000BF1040B0AF1280AB4E600BF382D002036
:103C7800082F00200000002000ED00E0202F002089
:103C8800485C040818F0010F61D0D4F8E0315FFAFD
:103C98008AF919695D6B04EB890225FA09F5D2F8EE
:103CA800E821ED019268EDB20D431540EA071CD5F5
:103CB8005A6BA048012505FA0AF122EA01025A6363
:103CC800BB699D609C4B4946D3F8C832984794F825
:103CD800D331AB4209D1BAF1000F06D194F8E132E1
:103CE800042B02D193483CF04FFA280742BFBB6926
:103CF80008259D60E90642BFBB6910259D606A06DC
:103D080042BFBB6940259D60AB0742BFBB69022526
:103D18009D6028061BD5D6E94C329B1AD6F824217B
:103D2800D7F818C0DBF8E0E1DCF81850934228BF58
:103D38001346033309F132099B080BEB8909ADB22D
:103D48009D4204D9D6E94C02904200D930B90AF113
:103D5800010A4FEA5808043728364FE6D6F82431C6
:103D6800801A984228BF18469BF8D321C31C9B0889
:103D7800DAB1D6F82811D6F83421DCF81850014405
:103D8800C6F82811D6F8301102448A42C6F8342100
:103D9800D5D196F81C11DEF83420012000FA01F183
:103DA80022EA0102CEF83420C9E7D6F82811029198
:103DB80081B2033189100391D9F8D8110D460399BE
:103DC8009142D6D0029951F8221029600132F6E7C3
:103DD80047F6F07119423FF492AE282101FB0241E7
:103DE800C3F30A13DE1CD4F8A0C2D1F85075B6107C
:103DF80000218E420ED1514E282101FB0262D2F8D9
:103E080050151944C2F85015D2F85C150B44C2F885
:103E18005C3574E6DCF800E047F821E00131E8E7BA
:103E2800D4F8A0120E68C4F89C670968C4F8A017F3
:103E3800282101FB0242C3F30A13E5E752F8041BE9
:103E48008860916B0133886070E6012084F8D201A4
:103E58004020A4F8D401A0F56400A0F56240384CD5
:103E68001044A04227D80E2262F38D23CB604FF472
:103E780000534B61009BDA060BD5304C2E4B04F5F2
:103E8800E870D3F8E0329847D4F8DC314FF4801268
:103E98005A61009B9B060BD5284C274B04F5E8700C
:103EA800D3F8E4329847D4F8DC314FF400125A6161
:103EB8000BB0BDE8F08FA2F57400224CA0F51050AD
:103EC800A04201D80D22CFE71F48204C1044A04241
:103ED80001D80C22C8E7A2F18C701D4CA0F5434014
:103EE800A04201D80B22BFE71A481B4C1044A0423D
:103EF80001D80A22B8E71948194C1044A0427FF6A5
:103F08006DAEA2F1B770174CA0F55850A04201D879
:103F18000822A9E71448154C1044A04201D80722EA
:103F2800A2E713481044134A904294BF0622052280
:103F38009AE700BF082F002000000020382D00203D
:103F48003F420F00DFC810002013FBFE1FD61300EE
:103F5800FF69180000D3CEFE3F771B00C05BB3FE9D
:103F6800BF9121003FAC2700C01D6AFE3FE133002E
:103F7800803C36FEDF9C41007047704770477047B1
:103F8800F8B54FF0FF312E4A2E4C0D460023907A9B
:103F980004280BD103F5817004EB0010C079C70722
:103FA80004D46E1C10682FD088422DD30133082BFF
:103FB80002F11002EBD16B1C40D0224C224F05F5C8
:103FC800817604EB0613998849B1D7F8583233B192
:103FD80004EB051041F218029B6880589847D7F8FF
:103FE8005832A3B104EB051C1849DF68184A41F29E
:103FF8001800002301EB45215CF80000B84730B1F8
:10400800022811D00020F8BD1D460146CEE741F236
:104018009C02A358013BA35004EB06140323A3718D
:104028000C4B01221A70EDE741F29C02A358013BA8
:10403800A35004EB06140123A371E3E70120E2E790
:10404800407A0020246A0020284F00203C6A002083
:104058009B480008C47A002090F91A305A1C0AD0EC
:1040680003F58172124B03EB0213DA796FF3000246
:10407800DA71FF23837690F91B104B1C16D00C4A7B
:1040880001F5817102EB011302EB0112DB79D179A1
:10409800C3F34503012B86BF03F1FF3303F03F034E
:1040A800002363F34601FF23D171C376704700BF35
:1040B800246A002012F0020C2DE9F84F88461746B2
:1040C8009B4600F0C080002840F0BD80FCF7B2F9A4
:1040D80002209CE04FF0FF32DFF8A8E19146154638
:1040E80092460026DEF800309EF80E10984218D14D
:1040F800002900F0908041F298013546625801325B
:10410800625006F581710901625005F5817604EB6C
:1041180006129279042AD9D8DFE802F02B56AA565B
:10412800600011B3012911D106F5817104EB011169
:10413800C979CB070AD411F07E0F07D1CB0916D164
:10414800DEF80810514501D2B1468A460136082EDC
:104158000EF1100EC6D1561C73D1691C5CD1B9F191
:10416800FF3F00F085804D4656E03246EEE7354683
:10417800ECE717F0010212D03E4BD3F85832002B6F
:1041880076D03D495F683D4A002301EB4521B84799
:1041980000286DD004EB06140223A37168E004EB39
:1041A8000611F81091F807E0BBF1030F60F3C71E82
:1041B80081F807E02DD94FF6FF7293455B4628BF7B
:1041C800134604EB06129380BCF1000F06D004EBF3
:1041D800051000F580501830FCF794F97A0741BFB4
:1041E80004EB0612D37943F00103D371FB0608D51B
:1041F80004EB0614E379C3F34502013262F3460384
:10420800E3711D4901EB4521C8F800100120BDE804
:10421800F88F1346D5E7354604EB051141F29806A9
:1042280041F218028850A2590132A25141F21C06EB
:104238008A5105F581710901661862500022726081
:1042480063E71546E8E70E4941F208220C468A580A
:10425800002A3FF43FAF41F2102541F20C264D5998
:10426800895905FB02129042FFF434AFFCF7E2F8DB
:104278000020CCE7284F00203C6A0020115300089A
:10428800246A00203C7A00207FB5104D02AA0C4613
:1042980001A9FCF701F905F59053019E1868012260
:1042A800002303A93044FFF705FF01280BD1DDE9FE
:1042B80002232978022916BF53F8223033F8123026
:1042C80023F07043236004B070BD00BF246A00204F
:1042D80037B50446C0690D4698B10023032201A9E9
:1042E800FFF7E8FE012806D1B4F92020002A0ADAEF
:1042F800FCF7A0F8022003B030BDE5258D54A26874
:104308000AE00120F7E701995201012D01EB0203B0
:10431800F5D0022DF1D0E268DA612278032A04D1BF
:1043280000221A775A779A77DA77626A5A83C2F341
:104338000F419982DFE77FB50E4D01AA0C4602A90D
:10434800FCF7AAF805F59053029E1868032200238B
:1043580003A93044FFF7AEFE012808D12978039B52
:10436800019A02290CBF23F8124043F8224004B0F6
:1043780070BD00BF246A0020034B1B78032B0CBFC1
:1043880080204FF480707047246A002008B50B4ADB
:1043980068B1816811B10723937008BDFFF7ECFF7E
:1043A8000423C2E90100C2E903111175F4E741F2DF
:1043B800B411012353545370EFE700BF246A00205F
:1043C80008B5FFF7D9FF034A41F21023D3585843E1
:1043D800400208BD246A00202DE9F04F0E4685B042
:1043E800174602A901AA80463068FCF755F8374AF3
:1043F8000299136801EB0309019B013BDD19FFF7E3
:10440800BBFF3368ED1A0544A2F5905AB5FBF0F5E9
:104418004D443368BB42A5EB090103D3012005B025
:10442800BDE8F08FDDF804B00BEB0702D21AFFF7F6
:10443800A3FF8242044643D214460B220B46484649
:1044480003A9FFF737FE0128E9D19AF8000032687E
:104458000399019B022802F101022ED1A34223D322
:104468003368019A9B1A2344B8F1010F336016D1BF
:10447800BB4214D19AF80030022B0BBF04F1004460
:1044880004F1804404F1FF3404F1FF340BBF4FF60C
:10449800FF734FF0FF3321F8143041F82430002324
:1044A80009F101090193B4E721F81320013301321E
:1044B800D4E741F8232001330132A342F9D3CFE7EF
:1044C800BBF1000F14BF0B220A22B7E7247C00209F
:1044D8002DE9F7430029DFF808813F4E044614BF51
:1044E8000227002794F83C30042B66D8DFE803F055
:1044F8002403313B5A00DFF8EC9098F80030206B29
:10450800032B4AD1484594BF00250125002D42D1EF
:1045180001A9FFF7B9FE01285AD12946206BFFF7F8
:104528000AFF012854D1019B23633268013B93425F
:1045380094BF33603260E0E739462046FFF7C8FE93
:10454800012803463BD1626B02B1022384F83C3058
:10455800C8E7626B04F130010020FFF73DFF012836
:104568002DD10323F2E71D48E26A036802609A1A14
:10457800C36F534350F81C2C5B021A4440F81C2CA0
:1045880050F8182C134440F8183C00212438FFF741
:104598009FFE012813D10423D8E785B24FF6F7739D
:1045A8009D42B0E794F82830042B04BF002384F818
:1045B8002830A36B0BB120469847012008E0022859
:1045C80006D194F82830042B02D1002384F828302F
:1045D80003B0BDE8F08300BF387C0020B87B002022
:1045E800246A0020F7FFFF0F2DE9F0412C4E044606
:1045F80000F1300806F1240794F83830032B4CD822
:10460800DFE803F00229313A39682161FFF7D8FE63
:10461800E368244D1844E060FFF7AEFE08443860B4
:10462800FFF7CEFE2B68181A2860FFF7C9FE6B68E3
:10463800181A68602163FFF79FFEE36A0844606305
:1046480023B96162012384F83830D5E7FFF794FE77
:10465800081A2063F6E700213046FFF739FE0128E3
:104668000ED10223EFE7626B41460120FFF7B4FE4B
:10467800012805D10323E6E700212046FFF728FE9D
:10468800431EDBB2012B06D894F82830062B04BF52
:10469800002384F82830BDE8F0810120F0E700BF4E
:1046A800947B00209C7B00202DE9F04F85B00C46C0
:1046B80081461646FFF760FE01AA804602A92068D7
:1046C800FBF7EAFE09F1FF33012B66D9019B2BB9F1
:1046D8004546DFF8DCB00BF5905A1BE0FBF7AAFE65
:1046E800022005B0BDE8F08F2F4A1268B2B12F49F9
:1046F8000868984212D1C96F531E49020B44B3FB94
:10470800F1F30344B3FBF5F205FB12320AB12B4473
:104718009B1A23602368B342E6D32EE0DAF8003010
:1047280002981F4607440023092203A93846FFF7C9
:10473800C1FC012804D043B28BB30228EAD1CFE7E9
:10474800039A9BF80030022B07D0032BC8D1019B9A
:1047580052F8233023F0704302E0019B32F8133003
:104768002168B9F1010FB3FA83F38CBF002001204F
:104778005B09984204D18E4213D826600320B0E723
:10478800019B2B442944434521600193D9D3029BC3
:104798000133029300230193BCE7012599E71846EA
:1047A8009FE701209DE700BF9C7B0020B87B00208D
:1047B800246A002070B5304D044605F10C0694F8C3
:1047C8003430052B12D8DFE803F003253038404990
:1047D8002A6804F1300102320120FFF765FF012841
:1047E80006D010F0FF0F01D0032811D9002070BDAA
:1047F800224A236B1168E268336002EB4122E260CF
:10480800E26A236102B96362012384F83430D6E78F
:104818000523FAE74FF0FF31206BFFF78CFD0128E5
:10482800E4D1E36A3BB10223EFE7D4E90B01FFF7D8
:1048380082FD0128DAD10323E7E700212046FFF7AC
:1048480047FD0128D2D10423DFE794F82830082B4C
:1048580002D1002384F828300120C8E794F82830D2
:10486800074A082B04BF002384F8283041F2B51307
:104878000121D1540220BAE72C7C0020347C00208E
:10488800246A002010B5044608B9FBF7D3FD20467A
:1048980010BD38B5164C002304F87A3954F80E0CBC
:1048A80088421ED1207803281BD1124C03F581754C
:1048B8004AB941F29C0204EB05150423AB71A358D5
:1048C8000133A35038BD04F1180101EB4323D31A77
:1048D8005842584104EB0514FFF7D4FF0123A37194
:1048E800F0E70133082B04F11004D7D1EAE700BF41
:1048F800C47A0020246A0020030770B50C461546C8
:1049080011D541F294130A4AD6580134A64234BF4D
:1049180000200120FFF7B6FFA64206BF00232B6048
:104928002C60012070BD20461146BDE87040ABE404
:10493800246A00204368F7B5C3F308020A44B2F5B5
:10494800007F04460D4603D21D44656001202EE019
:10495800FFF782FB0378022B01D16368F4E7164B5B
:1049680041F210229E587602AE4222DB41F2182212
:1049780047689B581F407B42AB421ADCEB19B34295
:1049880010D30169007E01AAFFF7B6FF012810D1F4
:1049980023696361019B236163683344DB1BAD1B9F
:1049A80063603D442046FBF751FD0028D5D003B095
:1049B800F0BD0020FBE700BF246A002070B5044664
:1049C8000E461546FFF7B6FF20B10DB12046A847A1
:1049D800012008E094F82830022023B9C4E90B56D6
:1049E80084F82800184670BDD0E9013210B59A4203
:1049F8002CBF82608360FFF72FFB0022436A42616D
:104A0800036142601146BDE81040D7E710B51A4C63
:104A180004F58F530146187860BB49B191F82820F6
:104A28002AB94422A3F128003EF056FC012010BD0B
:104A3800442212483EF048FE41F2D2134FF6FF726C
:104A4800E25241F2D0130322E25423780B48022B9E
:104A580041F2B81308BF0222E25441F21C23E25883
:104A680041F2DC13E25041F2D1131022E254FFF775
:104A7800BBFFDBE70020DAE7246A0020DC7B0020AC
:104A88002DE9F04F4668DFF894A185B004468946C1
:104A98001746C6F308064FF00008BFB1C6F5007503
:104AA80094F91AB0BD4228BF3D46BBF1FF3F2046EE
:104AB80010D0FBF703FD544B41F2180203EB0B1126
:104AC8008A58904200F09A80FBF7B4FC404605B043
:104AD800BDE8F08FFBF7BAFC20B3237E94F82810CA
:104AE8001A0771D50629F1D0FFF76AFC474B1B68F6
:104AF800984205D9444A41F2B5130121D154E5E75A
:104B0800434B1B78002BE1D10029DFD1062384F821
:104B18002830636984F83810E3622046FFF764FDA3
:104B28000128D3D12046FBF7C9FC6368C3F3080208
:104B38008346002A5ED123F4FF7121F00101A268A7
:104B480001F5007191422CBF06210721227E02F057
:104B58000C020C2A50D10193FFF732FC019B01385B
:104B680000EA0302FFF708FCDAF800304343A3EB3E
:104B780052230A46584603A9FFF79CFA0128A5D1F3
:104B88000398FBF7D3FCA076039800289ED02A460A
:104B9800494630443EF0A0FB002229462046A8445E
:104BA800FFF70CFF002891D0237E1B0708D5194B6F
:104BB80020691B6898422CBF00200120FFF762FE85
:104BC8007F1BA944002668E7114B1B78002B7FF454
:104BD8007DAF00297FF47AAF082384F82830636911
:104BE800E3620D4B84F834101B6823632046FFF7FB
:104BF800E1FD95E70721A9E70023BAE7183303EB9E
:104C08004B230393C0E700BF246A00209C7B00204D
:104C1800D97B0020B87B0020387C0020347C002021
:104C280070B50378023B012B04461CD8237E9906F5
:104C380023D42046FFF710FA237E1A070AD51F4E01
:104C480041F29815705DC31F58425841FFF71AFE8C
:104C5800002373550023237084F82830E36A5BB17E
:104C6800BDE870401847037E13F0060FDED001211F
:104C7800FFF72EFB0128D9D070BDE2691049002347
:104C880018014058824211D10C4903F5817201EB99
:104C98000213DB79C3F34503012B0BD8002301EB87
:104CA8000212D17963F34601D171C2E70133082BAF
:104CB800E6D1BEE7013B03F03F03F0E7246A00209A
:104CC8003C7A002010B580B1027872B190F82820A3
:104CD8006AB9D0E9012494422CBF8460826003221F
:104CE80080F82820C162FFF79BFF012010BD00203B
:104CF800FCE72DE9F743DFF82081044608F10809AD
:104D080094F83830032B00F28280DFE803F00210B9
:104D18006F782046FFF74EFD012802D184F838004D
:104D2800EEE7022873D1032384F83830E8E72378C4
:104D38006568022B18BFD9F80030204618BF1D40FF
:104D4800FBF7BCFBC5F34F2506462D1A00230222AC
:104D580001A93046FFF7AEF9AF190128BFB257D104
:104D68004FF40072002101983EF0AEFCE3691BB3DA
:104D780063680BBB019B4FF020322E211A605A60EA
:104D88001970C3F80720606A5883C0F30F4C1020CD
:104D980083F8201083F82110D872C3F82220C3F8B2
:104DA800262083F82A20E26BA3F814C0C2F30F412F
:104DB80099865A8783F82B00D8F800104B1E9F421B
:104DC80008D24FF400712046FFF7B4FDFFF75AFDF3
:104DD8000136BBE7C1EBC151490201F5007120461C
:104DE800FFF7A8FDFFF74EFD02239DE7002384F897
:104DF8002830236C0BB120469847012008E0236C2B
:104E0800002084F8280003B19847022000E0002021
:104E180003B0BDE8F08300BF347C0020B1F9043052
:104E28000F2B2DE9F34104460D4616460BD14FF4DE
:104E38000071FFF77FFD18B9002002B0BDE8F081CE
:104E48004FF6FF73AB802046FBF738FB94F91B2025
:104E5800531C074611D01F4B41F2180103EB0210F7
:104E680041588F4230D0FBF7E5FA2046FBF7EEFABF
:104E78000028E1D00023336024E02046FBF7E6FA5F
:104E880080460028F1D1381C18BF0120FFF7FAFC32
:104E98004346112201A93846FFF70CF90128E4D14D
:104EA8000198FBF743FBE076019A002ADDD0AB8836
:104EB80001331BB2AB8002EB431333602046FBF790
:104EC800FDFA28600120B8E7183303EB4223019369
:104ED800EAE700BF246A00202DE9F041914D86B031
:104EE800044605F1280694F83030042B11D8DFE881
:104EF80013F0130005005400CF00150104F11C083D
:104F080001AA41462846FFF789FF01280ED002284A
:104F18003ED006B0BDE8F0812846FFF765FD4FF6A4
:104F2800FF732384012384F83030DCE7019F0FB13D
:104F38003B7863B92846FFF78FF8237ED9062AD530
:104F4800FFF752FD4FF6FF7323840223EBE70B2292
:104F580004F1310138463EF005FC0028D0D1BA8A68
:104F68007B8B43EA0243704A63621268FB69A36061
:104F78005202B3FBF2F102FB113109B113445B1A7F
:104F8800E360FB7A63762846FFF766F80323CAE7EF
:104F98002846FFF761F80423C5E73378002BB8D11A
:104FA800624FA7F1380801AA04F11C015D48FFF718
:104FB80035FF01284BD1019878B30378E52B01D050
:104FC800002BF0D1FBF7B2FA594F07EB0010FBF7B3
:104FD80099FA07F5D070FFF73FF8202200210198D1
:104FE8003EF072FB2346019A53F8311F116059684D
:104FF8005160198911819B7A9372019B627EDA72E2
:1050080003A839F080FD019B20BB6FF07E021A7463
:1050180047225A749873D87335E02B78022BBAD08C
:105028003278002AB7D109233370424B3A70C3E96A
:10503800002253F8281C03F8082C1A6A43F8101C9D
:1050480043F80C2C4046FFF754FE0128ABD0022849
:10505800A1D05EE79DF80E109DF80F2042EA41129C
:10506800BDF80C10A1F2BC7142EA41221A829DF8E7
:1050780010209DF81110D20242EA41129DF8121038
:1050880042EA5102DA811A8A1A83DA89DA827DE7DA
:10509800237E9A0608D50023112202A9E069FFF7AA
:1050A80009F801287FF435AF2046FFF79DFC2269F7
:1050B800237E8AB91B0708D51F4A41F29813D15C91
:1050C80000297FF426AF0721D154002384F8283023
:1050D800E36A204698471CE703F0F70113F004033E
:1050E8002176E26A07D0002384F82830A168204698
:1050F800FFF764FC0DE71229E7D1A263626A84F81E
:105108003C30042184F82810C4E90B2263636362ED
:10511800C4E902332046FFF767FCFAE60020207056
:10512800E36AD7E7DC7B0020347C0020147C002075
:105138003C7A0020187C0020246A00202DE9F341E5
:10514800037804466BB190F82830013B082B08D847
:10515800DFE803F0050A48584B5C075F6200FFF779
:10516800BBFE02B0BDE8F0812D4B456841F210222C
:105178009E5841F2182276029B581D40216B20460A
:1051880005EB0108FBF762F94645074624D870B1DC
:10519800D4E901329A422CBFA260A360002384F8AC
:1051A8002830E36A002BDCD020469847D9E701AACB
:1051B8002169207EFFF7A0FB0128D2D12369636112
:1051C800019B2361636833445B1B6360236B9B1BF8
:1051D8001D4425633D46D1E763680028D8D10B44B8
:1051E8006360D5E7FFF71CFDBBE70121FFF770F906
:1051F8000128B6D1002384F82830216C2046FFF717
:1052080061FDAEE70021FFF763F9AAE7FFF7ECF9C4
:10521800A7E7FFF7CFFAA4E7FFF76BFDA1E700BF09
:10522800246A0020F8B504460D461646002144229B
:105238001F463EF049FA4FF6FF736383012384F853
:10524800283027762E4928463CF056FB28BB2D4BA4
:1052580041F2DC129A58626241F2C4129A58E26032
:1052680003F58E521268A26041F2D1129A5C6276FE
:1052780041F2B8129B5C2370069BE36220492846E2
:105288003CF03AFB00280CBF03230023204684F897
:105298003030FFF721FE2046F8BD04F1310304F158
:1052A80039002A462027117809B12E2916D11F70F6
:1052B80001338342F7D111782E2908BF013204F156
:1052C8003C002027117891B91F7001339842F9D119
:1052D800F30666764CBF03230123CCE7A1F1610CEA
:1052E800BCF1190F98BF203919700132E0E7A1F11C
:1052F800610CBCF1190F98BF203919700132E4E72D
:1053080000E70408246A002038B5134C0023A07B6A
:10531800E0B125688D4219D1104C03F581751AB991
:1053280004EB0514A27138BD04F1180101EB432305
:105338009A4209D1831E5842584104EB0514FFF7DD
:10534800A1FA0123A371EEE70020F6E70133082B49
:1053580004F11004DBD1E6E73C7A0020246A00203F
:10536800034BD3F8580208B1C3691847704700BF08
:10537800284F002038B50D461446FFF7F1FF0368A3
:105388002B604FF400732360002038BD034BD3F823
:10539800580208B183691847704700BF284F00209A
:1053A800034BD3F8580208B143691847704700BF48
:1053B800284F0020034BD3F8580208B10369184757
:1053C800704700BF284F00202DE9F0470F46012104
:1053D80008461546984638F0FDFADFF8489000244C
:1053E800A04517DD07EB442601E0FFF7E3FFD9F8F6
:1053F800583243B1D3F80CA000231A463146284648
:10540800D0470028F1D1FFF7D5FF0028FBD00134A1
:105418000135E5E70021012038F0DCFA0020BDE87D
:10542800F08700BF284F00202DE9F0470F460121E3
:10543800084615461E4638F0CDFADFF844800024A9
:10544800A64206DC0021012038F0C4FA0020BDE89D
:10545800F08707EB442AD8F8583203B9FEE7D3F8A7
:10546800049000231A4651462846C8470028F2D01F
:10547800FFF7A0FF0028FBD001340135E0E700BFAB
:10548800284F002008B5FFF795FF80F00100404243
:1054980040B208BD002108B5084638F09BFA094B10
:1054A800094A03F53C71C2F85812D3F8F03298470C
:1054B800FFF780FF0028FBD00121002038F08AFA8E
:1054C800002008BD00000020284F0020034BD3F81F
:1054D800880008B138F03ABB01207047401C002012
:1054E80010B5FFF7F3FF0E4C18B9002384F85C30B1
:1054F80010BD94F85C30032B04D90021D4F88C003B
:1055080038F09CFE94F850300133DBB2072B84F856
:105518005030EAD8D4F8B438E3640123E6E700BF92
:10552800401C002070B51B4C94F85C30042B0546D9
:105538000E4610D1FBF78CF800213720FBF73AF91B
:1055480031461720FBF736F988B1FBF7F1FCFFF776
:10555800C7FF032002E0082B01D0012070BD636D56
:10556800834212D0FBF7DEF80228F6D1E2E794F87E
:10557800523063B969021920FBF71CF90028E4D1FD
:10558800C4E91556082384F85C300220E6E729466A
:10559800F1E700BF401C00202DE9F743264E0546E1
:1055A8000F4691469846344696F85C30042B0AD04C
:1055B800082B06D1736DAB4219D0FBF7B3F802285C
:1055C800F2D001200EE0FBF743F896F8523063B9A9
:1055D80069021820FBF7EEF848B1FBF7A9FCFFF7C2
:1055E8007FFF032003B0BDE8F0832946F1E794F874
:1055F8005C30D4F88C00082B0CBFFC23FE23FF2260
:105608008DF804208DF8053001AA0223002138F016
:10561800F3FD80233A460021D4F88C0038F0ECFDE5
:10562800012384F840300623C4E90E75C4E91198B3
:1056380084F85C300020D5E7401C00202DE9F043B9
:10564800BF4CD4F88C0085B0002800F09881BD4D7F
:1056580004F1780694F85C30013B082B00F27A815B
:10566800DFE813F009004000C900780194011A012D
:105678005B017801C201FAF7EBFF00210846FBF74E
:1056880099F88046FBF754FCB8F1010F40F06281AD
:10569800002784F85170FAF7DBFF40F2AB110820BD
:1056A800FBF788F805280CD184F85180FBF740FCFB
:1056B80094F85130002B00F04081022384F85C30CC
:1056C800C8E70128F2D104233A466946D4F88C0089
:1056D80038F092FD9DF80330AB2B04BF022384F809
:1056E8005130E3E7FAF7B4FF94F85130022B0CBFBE
:1056F8004FF08047002700213720FBF75BF8394639
:105708002920FBF757F80746FBF712FC002F40F05B
:10571800218194F85130022B39D1FAF799FF394693
:105728003A20FBF747F8042380463A466946D4F8FE
:105738008C0038F061FDFBF7FBFBB8F1000F02D0DD
:10574800FFF7CEFE86E7009B1BBAC3F3807384F88D
:105758005230FAF77DFF00210920FBF72BF898B9A2
:1057680010213046FBF704F8804668B901217F20F4
:10577800FAF772FD0128074606D102214046FAF7DA
:105788006BFD38B101282BD0FBF7D2FBE2E084F89F
:105798005270DEE704212C20FAF75EFD03218146D2
:1057A8004E20FAF759FD0C2180463620FAF754FDB1
:1057B80008F10208013000FA08F007FA09F7A0FB1F
:1057C8000701430A43EAC1532366FBF7B1FBFAF723
:1057D8003FFF00210A20FAF7EDFF48B903236DE7E0
:1057E80016213A20FAF738FD013080022066ECE7EE
:1057F800FBF79EFBA4E710216846FAF7B9FF0028DB
:1058080040F0A8809DF800309DF8012084F86630AB
:105818009DF8023043EA0223A4F864309DF803306F
:1058280084F86730019BA3669DF808301A0903F0D5
:105838000F0384F87130DDF8093084F870201BBA42
:10584800E3669DF80D309DF80E201B01DBB243EA9C
:10585800121303F5FA6302F00F02A4F8723084F809
:105868007420FBF765FB94F8523063B9FAF7F0FE41
:105878004FF400711020FAF79DFF0746FBF758FB1D
:10588800002F7FF45DAF0221D4F88C0038F0D6FCED
:105898000023A365042311E794F84010A26BD4F801
:1058A8008C00802302EBC112002138F0A5FC94F88B
:1058B80040300133DBB2042B84F840304AD1022354
:1058C8002A460021D4F88C0038F096FC01230022E7
:1058D8006946D4F88C0038F08FFC9DF8003003F04E
:1058E8001F03052B0DD10723656C84F85C30D4F8B1
:1058F800B438E36475B3D4E90E21A36C0120A8473A
:1059080028E0FFF7EDFD676C002F3FF4A3AEA36C12
:10591800E16B00220120B8479CE6FAF7D3FE002885
:1059280069D0002384F85030A36D012B0CD9013BBA
:10593800A365636D01336365082384F85C3009E06F
:10594800401C0020145E04081CD1FAF7EBFE022864
:105958003FF41AAF94F85C30013B022B07D8D4F817
:10596800B438E26C9B1AC82B01D9FFF7B9FD94F83B
:105978005C00042847D0A0F108035842584105B0FC
:10598800BDE8F083042384F85C30FDE64FF4007131
:10599800A06BFAF7EDFE01281FD047B277B10228B5
:1059A800D8D1FBF7C5FAFFF79BFD676C002F3FF4D2
:1059B80051AE0022A36CE16B1046ACE7FBF7B8FAD6
:1059C800656C84F85070042384F85C30002DC1D0D5
:1059D800A36CD4E90E21384691E7E36CD4F8B428D7
:1059E80064339342DDD3B5E7FAF76CFE18B1FBF7E1
:1059F8009FFA0423A1E7E36CD4F8B428FA3393425E
:105A0800FFF49EAEA6E70120B9E70B4B93F85C22A2
:105A18001044C0B2020648BF803883F85C0293F88D
:105A28005D2293F85C12914202BF002283F85D2246
:105A380083F85C22704700BF284F002030B50B4A1E
:105A480092F85C3202F25E24E518C0E9005492F83C
:105A58005D2293429BBFD31A0B60C3F180030023DE
:105A680094BF4B60C1E9003230BD00BF284F002011
:105A78001FB502A86946FFF7E1FF054B0098D3F868
:105A8800E0321844019B184405B05DF804FB00BFE0
:105A9800284F0020054B93F85D0293F85C3298423A
:105AA80036BFC3F18003C01AC0187047284F0020C2
:105AB80013B50C4C94F8FD0870B10B480523ADF8EC
:105AC80000306A46022301A9D0F8B80838F094FBE0
