:020000040800F2
:1000000000000120B922050845230508F5740308FE
:100010004523050845230508452305080000000081
:10002000000000000000000000000000452305085B
:1000300045230508000000004523050897BF040874
:1000400045230508452305084523050845230508DC
:10005000452305084523050803C3040817C30408FE
:1000600013C304080FC304080BC3040885860108E2
:10007000718601085D8601084D8601083D860108EC
:100080002D8601081D86010845230508452305081E
:1000900045230508452305084523050807C304082B
:1000A000CD7C0108957D0108B97C0108BD7D010862
:1000B000817D01086D7D0108597D01080D910108C0
:1000C00019910108F59001080191010845230508DF
:1000D00045230508417B0108357B0108297B010880
:1000E000FFC204084523050845230508A37C010831
:1000F000097D0108E17C0108317D010809860108BC
:100100004523050845230508457D010845230508C5
:100110001D7B010845230508452305088331010897
:10012000F5850108E1850108CD850108B98501083B
:10013000A58501084523050845230508452305082D
:10014000452305084523050845230508A93401086A
:10015000918501087D85010869850108117B0108E9
:10016000DD900108E99001084523050845230508AD
:100170004523050845230508452305080000000020
:100180004523050845230508057B01084523050887
:10019000452305084523050845230508452305088B
:1001A0000000000000000000452305084523050865
:1001B000452305084523050845230508452305086B
:0801C00045230508452305084D
:0801C8001C1E050001000000EF
:1001D00008FC0120020800000003545124FC012007
:1001E000020C00000003545140FC0120010F0000EC
:1001F000000076005CFC01200115000000001E00DC
:1002000078FC0120011B000000000D0094FC01207F
:10021000011C000000000E00B0FC0120011D0000C8
:1002200000001E00CCFC01200118000000000C00A2
:10023000E8FC01200119000000000E0004FD01206F
:10024000011A000000000C0020FD01200126010021
:10025000000018003CFD0120011E000000004800C5
:1002600058FD0120011F00000000490074FD01201D
:100270000120000000004A0090FD01200121000043
:1002800000004B00ACFD01200122000000004C00EA
:10029000C8FD01200123000000004D00E4FD012005
:1002A0000124000000004E0000FE01200125000096
:1002B00000004F001CFE01200227010000012C005D
:1002C00038FE0120022F06000000140054FE012019
:1002D000012E000000003C0070FE0120012C0000F7
:0402E00000004000DA
:020000040801F1
:100000000023013830B55A1C845C64B9DBB20A4A5B
:1000100001335B000B80137003235370022310F82D
:10002000015F15B930BD1346EDE7591CD5540233B5
:10003000C9B2DBB25454F2E790230120DFEDB15A8C
:100040000223B0EE655A2DE9F04F2DED108B8DB0E7
:10005000009003910B9201910293019B1820009A4A
:100060004FF0000AD908DB004FEA411900FB01F408
:10007000282002EB090CCA00049408926FF01702C2
:1000800000FB01F430204A4307940C010CEB0207FB
:10009000069407EB090600FB01F43820B518059417
:1000A00000FB01FB009805EB090400F1040E22445B
:1000B00002EB0908DCED007A1EED017AD7ED003A7B
:1000C00077EE276AD5ED004A37EE677AD6ED007AEB
:1000D00098ED003AD2ED002A33EEA76A73EEE73AC4
:1000E000D4ED007A34EEA74A74EEE77A72EE834AD2
:1000F00036EEC48A76EE846A36EE640A36EE246AF8
:1001000072EEC32A76EE864A76EEC66A4EED014A54
:10011000CCED006A9CED016ADEED004A97ED014AE4
:1001200074EE866A95ED013A34EEC66AD6ED014A60
:10013000D8ED011A34EE242A34EE644AD4ED014A93
:1001400033EE241A73EE644A92ED013A73EE210AFB
:1001500033EE613A76EEC11A76EE816A32EE601ABB
:1001600032EE202A76EE820A76EEC26A38EE412A14
:10017000CEED000A9E44CCED016A78EE016A9C4403
:10018000C5ED006A71EEC06A84ED002A34EE432AA0
:1001900034EE034AC5ED016A70EE216A73EEE21A8D
:1001A0001D44B0EE473AC4ED016A73EEA26AF0EE68
:1001B000673A1C44F0EE462AE6EEA57AE6EEE53A0A
:1001C000F0EE466AB0EE646AE2EE652AE2EE256A77
:1001D000A1EEA57AB0EE642AA4EE256AA1EEE53A76
:1001E000A4EE652A77EE064A37EE467AC7ED004A56
:1001F00088ED007A33EE027A33EE423A86ED007AE9
:1002000036EEE77A77EEA67A82ED003A87ED017A4C
:100210001F44C8ED017A72EEE37A73EEA23A984475
:10022000C6ED017A1E44C2ED013A1A440198824497
:10023000039850453FF63EAF072940F26881009A87
:100240004FF0000A00984A444FF001090A92089AB8
:1002500002440992079A02440892069A02440792BD
:10026000059A02440692049A024405920BEB00029E
:100270000492029A6FF02F00CB4692440B9A4FEAF9
:10028000CA042244D2ED001A224492ED008A22448C
:10029000D2ED004A224492ED009A2244D2ED003A77
:1002A0002244D2ED000A2244D2ED002A00FB0A22A9
:1002B000009892ED011A2244D2ED018A224492ED77
:1002C000014A2244D2ED019A224492ED013A22449D
:1002D00092ED010A224492ED012A4FEAC90200EB95
:1002E00002080A9800EB020E099800EB020C08982D
:1002F0008718079886180698851805988418049812
:10030000024401E0F304353FDEED007ADCED006AE3
:1003100097ED007A98ED00AA96ED00BA36EEC7DAAE
:100320003AEE276A94ED00EA3AEE67AA76EE877A0B
:10033000D5ED006A3BEE267A3BEE66BAD2ED006A56
:100340007EEE26AA36EE47FA36EE076A77EEEAEA3E
:1003500077EEAA7A3EEE66EA36EE277A76EE67AA5E
:1003600098ED016A88ED007ADEED017ADCED01CAD4
:1003700036EE277AD6ED016A76EE67BAD7ED017AC6
:10038000D4ED01FAD2ED01DA3CEEA76A7CEEE7CAC1
:10039000D5ED017A36EEA7CA76EEE77A7FEEAD6A42
:1003A0007FEEEDDA77EE4CFA37EE0CCA36EE667A6F
:1003B00036EE266A7FEE076A3FEE477A3CEE06FA93
:1003C0003CEE46CA88ED01FA3FEEEEFA29EE8C6A61
:1003D00098447EEEAFEAA9EE2A6A8EED006A2AEE14
:1003E000E96A7DEE4EAAA9EE0C6AB0EE4ACAAAEE00
:1003F00085AAAAEEC5CAF0EE4BAA8EED016A28EED8
:100400008F6A9E44A8EE266A66EEE86AE8EE0F6AF6
:1004100086ED006A3CEEED6AC6ED016A60EE2E6A7A
:100420001E44E0EE876A27EE407AA0EEAE7AC5ED74
:10043000006A7DEE0E6AA6EE85BA85ED017A3CEE85
:10044000AD7AF0EE6BCA1D44E6EE05BAE6EEC5AA3B
:10045000E6EE45CAB0EE6B6AF0EE67BAE7EE057AF3
:10046000E7EE45BA7AEE276A7AEE677A3CEE2B7AA7
:100470003CEE6BAA36EE4BCA3BEE066A3CEEEABA9D
:1004800061EE0CBA7AEEACAAE1EEA6BA66EEC16AEB
:10049000E1EE8C6ACCED00BACCED016A62EE066A40
:1004A0009C44E2EEA76AC2ED006A67EEC26A63EEA0
:1004B0000B7AE2EE866AE3EE877A27EE437AA3EEC2
:1004C0008B7AC2ED016A1A44C7ED007A64EE2A7A8B
:1004D000E4EE8A7A87ED017A1F44C4ED007A6AEE71
:1004E000447AE4EEAA7AC4ED017A1C44019883446C
:1004F000039858453FF608AF09F1010949457FF4D3
:10050000B8AE029BDB009BB2CDE90113A5E50DB0AF
:10051000BDEC108BBDE8F08F30B50E4B00F007043A
:10052000C0081D181B5C0020A340DBB2C4F1080208
:100530008A4228BF0A46C2F108049040891A43FA49
:1005400004F34FF0000440EA030015F8013FEDD139
:1005500030BD00BFD0240120F0B59F080D461446E1
:100560003F01C619B04205F1100504F1100408D18D
:1005700003F0030339443A4406EB83039E4223D13C
:10058000F0BD844615ED045AD0ED016A10309CEDA3
:10059000006A55ED037A26EE056A10ED027A55EDF4
:1005A000025A66EEA76A50ED017A04ED046A27EE5E
:1005B000257A15ED016A44ED036A67EE867A04ED4B
:1005C000027A44ED017ACDE7F6EC017AB1EC017ADA
:1005D00067EE877AE2EC017AD0E7012380F84930B0
:1005E0007047034B93F85403C31E58425841704759
:1005F00090230120014BD3F88C03704790230120F6
:100600000120704770477047054AD2E9E4329342AF
:1006100094BF4FF480500020013B9B1A1844704750
:1006200090230120F0E7044B0A68C3F898030020E8
:10063000C3F88C23704700BF90230120212808B500
:100640000B4617D0222823D0202811D181B1072AA8
:100650000ED1164A18790968107158799B79116082
:100660009371134B5071D3F89C330BB10020984712
:10067000002008BD0029FBD0072AF9D10B4A1168D8
:100680001960117919715179927959719A71EFE75D
:100690000029EDD0022AEBD1054AD2F8A023002A86
:1006A000E6D0098800209047E2E700BF0000012063
:1006B0009023012000207047002070470023F0B5F0
:1006C0004E1C1F46050F0001ECB2092D94BF3034BB
:1006D000373401F8134006F813700133DCB2A2423C
:1006E000F0D8F0BD08B50248FFF78AFC014808BD04
:1006F000DFC405089023012008B50248FFF780FCFD
:10070000014808BDEDC40508902301201A2310B547
:100710000B80094B186808331B68C0180AD0074BB8
:10072000082207491C68FFF7C9FF04220549204633
:10073000FFF7C4FF044810BD20F4F01F24F4F01F9D
:100740000A0001201A0001200800012008B5024813
:10075000FFF756FC014808BDF8C4050890230120A6
:1007600008B520B90348FFF74BFC034808BD034810
:10077000F9E700BFFDC40508902301201EC5050848
:10078000042301480B80704724000120064B10B55C
:1007900018681224054B0C8003F1140204498842A6
:1007A00014BF1846104610BD4040024028000120EA
:1007B0001010DDDD00207047044B41F2B41101221E
:1007C000585C00B95A545A70704700BFAC7301208E
:1007D0000378022B08D10E4B1A684368B3EB422F03
:1007E0002CBF012000207047006970B1094B1B78B5
:1007F000032B16BF80B2084B4FF6F773984294BF95
:100800000020012000F0010070470120FAE700BF3E
:10081000CC850120AC730120F7FFFF0F074B1B783D
:10082000022B0BBF030AC0F3D413C0B200F07F0049
:100830000CBF0B600B601060704700BFAC730120F1
:1008400010B503784168022B0E4A0AD141F2042305
:10085000D35802F59052106800EB430000EB512092
:1008600010BD036941F21020145841F21820023BD8
:1008700010580840400A04FB030041F20C23D358EF
:100880001844EDE7AC730120837B042B0DD0074B9C
:1008900041F298015A5801325A5041F29C0142608B
:1008A000042282735A5801325A507047AC730120A7
:1008B00008B5064BC01A48BF00F2FF1040120728C7
:1008C00003D9FFF779FF4FF0FF3008BDC473012053
:1008D00000487047B8240120034B93F824010328F3
:1008E00094BF00200120704790230120034B93F810
:1008F0002401003018BF0120704700BF9023012061
:1009000037B50824094D012300220DF10701D5F860
:1009100054013BF034FF9DF80730FF2B02D101203A
:1009200003B030BD013CEED12046F9E79023012011
:1009300073B5451C0024094E012300220DF1070167
:10094000D6F854013BF01BFF9DF80700FF2802D1A9
:100950000134AC42F0D102B070BD00BF9023012041
:10096000114B37B51B880024104D01AAADF8043097
:1009700021460223D5F85401C5F820413BF0FFFE83
:100980000120FFF7D5FFFF2805D10423022085F8B9
:10099000243103B030BD0923204685F82431D5F831
:1009A000A433C5F81431F4E7FC5205089023012064
:1009B00070B5054608200E46FFF7BAFFFF2812D093
:1009C000FE2812D10A4C334600222946D4F854019D
:1009D0003BF0D5FE00220223D4F8540111463BF02F
:1009E000CEFE002070BD0120FCE70220FAE700BF28
:1009F0009023012040F0400313B58DF800300B0E1A
:100A000004468DF804108DF801300B0C8DF802307F
:100A10000B0A8DF8033095238DF80530FFF770FF32
:100A200000B964B9074806236A460021D0F854018A
:100A30003BF0A5FE0820FFF77BFF02B010BDFF20B2
:100A4000FBE700BF9023012030B410491424104864
:100A5000D1F854311A79022A0ED193F90C2004FBF3
:100A60000202126D956815F4C05F07D192681506F1
:100A700004D49A68920703D430BC704700BFE7E7FC
:100A800000BF186930BC3BF097BB00BF902301202A
:100A900000000120F8B5044646180B4D0B4FB44238
:100AA00000D1F8BDD5F8943314F8012BFA54013372
:100AB000C3F30B03C5F89433FFF7A6FD0028EED16E
:100AC00001203BF05CFAF7E790230120AC630120A2
:100AD00010B5002390F8481080F8483089B10B4CCD
:100AE00094F85423032A0ED1D4F8A4333430D4F824
:100AF0007023D2F81432002BFBD1FFF7CBFFD4F8D0
:100B0000A433012010BD1846FCE700BF902301204C
:100B1000002280F84920DBE790F84820531C02446B
:100B2000DBB280F8483082F8341090F849200AB1DE
:100B3000132B00D9CCE7704738B50D46FFF751FDB0
:100B400080B1094C002AD4F8A4330BDDD4F870131B
:100B5000D1F81432002BFBD111462846FFF79AFF3B
:100B6000D4F8A43338BD00BF9023012008B5074B4B
:100B7000D3F854311A79022A06D19A68920703D51C
:100B800018693BF013FB00BF08BD00BF9023012094
:100B90002DE9F041174C1E460546884694F824314D
:100BA0001746042B17D1FFF7E1FF94F81A31DBB990
:100BB00069021120FFF71EFFC0B90523012084F848
:100BC0002431D4F8A433C4E94085C4E94376C4F899
:100BD0001431BDE8F081082B01D00020F9E7FFF7C0
:100BE000BFFE0228F9D1DEE72946E2E7FFF72CFF36
:100BF000F3E700BF9023012070B50F2300222F21BF
:100C000002203DF044FD264BC3F854011C4610B9A8
:100C100083F8240170BD00213BF0D2FD4FF47A70BF
:100C20003BF0ADF9D4F854311A79022A06D19A680A
:100C3000920703D500BF18693BF0BEFA00220A23D1
:100C4000D4F854011146174D3BF099FDD4F85401E6
:100C5000154A14210379022B0BD190F90C3001FBBA
:100C600003231B6D9E6816F4C05F0BD19B681B06A7
:100C700008D4D4F8A433C4F81431012384F82431FF
:100C800000230AE0013DE8D13DF0F4FC94F818316E
:100C9000C4F85451013384F8245184F81831B9E769
:100CA00090230120A186010000000120054B0021B6
:100CB00093F8AF23D3F8A80302F0F70283F8AF2329
:100CC0003BF098BC90230120144BDB68C3F3022354
:100CD00010B5C3F107041A1D042C28BF0424062AEA
:100CE00088BFDA1E4FF0FF3398BF0022002803FAB6
:100CF00004F321EA030303FA02F34FEA0313DBB21E
:100D000006DB00F1604000F5614080F8003310BD63
:100D100000F00F00024A1354F9E700BF00ED00E0B5
:100D200014ED00E0294B2A4A13B52A4CC4F8B43319
:100D300042F20F73C4F8C033274BD3F8A030B3FB93
:100D4000F2F3013BC4F8B8330023C4F8C433C4F849
:100D5000BC3394F8F13303F0FF020BB984F8F023AD
:100D600002231E49194884F8F1333EF075FD012332
:100D70000621372084F8F133194B1A6C42F0200217
:100D80001A641B6C03F020030193019BFFF79CFF87
:100D9000144B4FF4000200205A60D4F8B433DA68E0
:100DA00042F00102DA601A6842F001021A60D4F8D7
:100DB00070330D4AC3F81002C3F808220B4AC4E985
:100DC000E700C3F8042202B010BD00BF00140040C9
:100DD00080841E009023012000000120482701206C
:100DE0000038024000E100E0AC630120AC53012078
:100DF00008B50E4B4FF47A72D3F8A030B3FBF2F380
:100E0000013BB3F1807F09D2094AF0215360094BBD
:100E100083F82310002393600723136000214FF011
:100E2000FF30FFF751FF002008BD00BF0000012088
:100E300010E000E000ED00E0026838B5044690697B
:100E400010F010002ED0184D936913F020031CD021
:100E5000102320252046D361D5613EF0CFF92268CA
:100E60000120536823F0FF7323F48B3323F4FF73C3
:100E700023F00103536004236364002384F841508A
:100E800084F8403084F842300CE0D5F8F403401A7E
:100E90000A28D9D92022032084F8403084F8412040
:100EA00084F8423038BD00BF9023012070B504465D
:100EB0000D46104E23689B699B0701D5002015E065
:100EC00029462046FFF7B8FF88B9D6F8F4335B1BF4
:100ED0000A2BEFD9636C84F8400043F0200363646D
:100EE000202384F8413084F84200032070BD0120A3
:100EF000FCE700BF9023012070B504460D46104E5C
:100F000023689B699B0601D5002015E029462046F1
:100F1000FFF792FF88B9D6F8F4335B1B0A2BEFD9A1
:100F2000636C84F8400043F020036364202384F85A
:100F3000413084F84200032070BD0120FCE700BF6F
:100F400090230120294B002210B5C3F810244CF245
:100F50005034D3F8F403264AD168C90337D4D16892
:100F600011F0F2013AD0D268920705D5D3F81024D7
:100F700042F02002C3F810241D4AD168CC0605D5E2
:100F8000D3F8101441F01001C3F81014D268900681
:100F900005D5D3F8102442F00802C3F81024144AEF
:100FA000D168490605D5D3F8101441F00401C3F8FF
:100FB0001014D268120605D5D3F8102442F00202AC
:100FC000C3F810240A4BF2220120DA6010BDD3F8D6
:100FD000F413091AA142BFD90320F7E7D06810F033
:100FE0000100F3D001230846D360EFE790230120EE
:100FF000003C02402DE9F0474FF0A043C44D0026CD
:101000000321C5F81434042305F5AC72C14CC5F8AE
:1010100018344023C5F8102805F21442C5F82834C6
:10102000022385F8CD1788B0C5F82C34C5F82034D4
:10103000C5F84464C5F82464C5F83464C5F8306460
:10104000C5F84064C5F83864C5F88823226BB248F7
:1010500042F001022263226B02F001020292029A24
:101060004FF4C052CDE903230A23CDE9056103A95A
:1010700007933DF0BBF9D5F84034012B08D14FF46C
:10108000007303A9A4480596CDE903363DF0AEF9F7
:10109000636B0621432043F080036363636B03F0BB
:1010A00080030093009B636C43F480436364636C30
:1010B00003F480430193019BFFF706FE974B082240
:1010C000D5F814449A60A368D5F8246423F001038A
:1010D000A360D5F82C34012B40F02A81A36BD5F8FE
:1010E000482423F48033012AA363E36823F48403B0
:1010F00023F04003E360E36823F44013E36003D18B
:10110000E36843F48013E36020463EF065FF012E60
:1011100007D1A36843F00603A360A36843F020034C
:10112000A360D5F8143432200124DA6822F0C042DA
:10113000DA60DA6842F08042DA6040F04FF8784BCB
:1011400000211A46084682F83810D187013182F80A
:1011500039400F2982F83B00D064C2E9100002F147
:101160001C02F0D10022D5F81444114683F8F8216E
:1011700002F14000DA87013204EB800083F8F911B4
:101180000F2A83F8FB11C3F80C12C3E980114160E8
:1011900003F11C03EAD1A36BD5F8407443F40013A8
:1011A000D5F818A4D5F82024D5F82484D5F82C1423
:1011B000D5F83094A3635FB9A36B23F40013A36342
:1011C000236843F040032360236843F080032360D7
:1011D0000023012904F50066C4F8003ED4F8003865
:1011E000C4F80038D4F8003840F0AD80002A40F050
:1011F000B080C4F80038102120463FF0A3FB102334
:101200002361484B013B02D02269D206FAD4002266
:101210004FF0FF334FF090404FF0FF0C326111461A
:101220007261B36104F51063F261924540F09480FD
:10123000002104F530634FF0904C4FF0FF0E08464C
:101240008A4240F097803369B8F1010F23F480732C
:10125000336108D1344B3363336B43F4803343F051
:1012600003033363336B0023A3616FF08043636137
:10127000B8F1000F03D1A36943F01003A361A26981
:101280002A4B1343A361B9F1000F03D0A36943F0C4
:101290000803A361012F05D1A36943F0804343F004
:1012A0000403A361D5F838240123012A85F8CD373A
:1012B000D5F814340ED1C5F80828002285F8002886
:1012C0009A6942F000629A615A6D42F0805242F08F
:1012D00003025A65D3F80428032042F00202C3F83F
:1012E00004283FF07BFFD5F81434802200205A6296
:1012F0005A6A42F480029A625A6A996A02EB11426F
:1013000042F40002C3F8042108B0BDE8F08700BF32
:1013100090230120003802400000024000E100E07C
:10132000A4270120410D03000001800000383C800B
:10133000E368204643F04003E3603EF04DFE4FF487
:101340008033A363E3E603293FF450AF43F0030384
:101350004FE743F001034CE7D3F800E0BEF1000F84
:1013600006DA186019610132C3F808C020335CE75F
:101370001960F7E7D3F800A0BAF1000F07DAC3F855
:1013800000C018610131C3F808E0203358E7186045
:10139000F7E7D0F82802120210B590F85D3200EBA2
:1013A000C3040133DBB284F83C12C4F84022042B9E
:1013B00008BF002380F85D3210BD2DE9FF411546BE
:1013C000804608463C243BF085FE4FF47A720023A9
:1013D00006460F4640F08AFDB5F900304FF47A72A8
:1013E0003946002703FB04043046002340F07EFD0D
:1013F0004FF47A7396B201A8C3FB04673B463246AA
:101400003BF0CEFD394B93F81638012B09D0022B57
:1014100035D032463B4640463BF0C2FD04B0BDE805
:10142000F0819DF80640E31E072BF2D8231F052B01
:101430000DD92146BDF804003BF060FD9DF8073052
:1014400098420ED0E11E18BF01210029E1D02B885F
:101450003C332B80264BF6184FF0000343EB070775
:10146000D7E7032C03D19DF808100031EBE70A2CD5
:10147000CFD19DF80810B1FA81F14909E5E79DF84F
:101480000640E31E082BC4D8231F062BDFD92146B4
:10149000BDF804003BF032FD032C12D10E280ADC0B
:1014A0009DF80730984208D19DF80810012994BF93
:1014B00000210121C9E70738F0E7B4BF012100216D
:1014C000C3E70B2CA5D107280ADC9DF8073098420A
:1014D00008D19DF8081001298CBF00210121B4E733
:1014E0000738F0E7CCBF01210021AEE790230120AF
:1014F00080EE36002DE9F04790B00E460746904644
:1015000000213A220DF1060099461A9DDDE9184A9C
:1015100041F060FD334B8DF804600293CDF834A0A8
:10152000002E54D0022E54D0032E54D0042E54D169
:1015300003232D4A02EB4303DB788DF805302B4B58
:101540000394D3F8A423069714440122CDE904455B
:101550008DF831201D46B8F1000F06D04A464146AD
:1015600007A841F02FFB8DF8309095F85AE800233A
:10157000BEF1010F0E931FD895F859C83C240DF108
:10158000040A0EF1010E04FB0C54BCFA8CFC85F825
:101590005AE804F65C044FEA5C1CBAE80F000FC47A
:1015A000BAE80F000FC4BAE80F000FC49AE80700AA
:1015B00084E8070085F859C83B6883B14B4642462A
:1015C0003146384610B0BDE8F0471FF0B1B8334699
:1015D000AFE70123ADE70223ABE70023ADE710B08F
:1015E000BDE8F087A82B0120FC52050890230120BC
:1015F000420900F01F030120032A00FA03F008D07B
:10160000042A0BD0022A0DD1074B5A6C10435864A0
:101610007047054B1A6C104318647047024B1A6BE5
:1016200010431863704700BF003802400449D1F8E6
:10163000F028B1F8F438506943405361704700BF57
:101640009023012013B5094C0DF10702A021D4F815
:10165000A8033AF091FF18B19DF807309B0602D518
:10166000FFF7E4FFF0E702B010BD00BF90230120B8
:10167000044BD3F8F028B3F8F43800B11B0493619D
:10168000704700BF902301202DE9F84F4368914631
:10169000834D88461A8A0646D0F80CA0C2F302137E
:1016A00002F00F027F4805EB830305EB8202DB6843
:1016B000D76AE91813F5803FDAF8042091F84C4016
:1016C0006DD182425ED1784B1A6942F400121A61E0
:1016D0001A6922F400121A61304606F0A9FB83460B
:1016E000504606F01CFF0A23AAF81C30D6F80CA0BE
:1016F000504606F014FF6D4B01219AF91400CAF808
:101700000C30CAF81860FFF7DFFA9AF914003DF0C0
:10171000BBFCF3685B681A59191922F45F3222F492
:10172000787242F4153242F040021A514A6942F08E
:1017300007024A611A5922F0C0721A511A5922F44A
:10174000C0021A51C1F80C80C1F808B04A68120CE6
:10175000120442EA09024A601A5922F060621743F1
:101760001F5173689A795B7912F0040F32681D4437
:10177000506895F8541000F08F803DF0AAFE0120CB
:10178000BDE8F88F4A4B9A42A6D1A3F530531A69A7
:1017900042F480021A611A6922F480029BE711590F
:1017A000824221F00101115112D1BBB941490020FF
:1017B000086048608860C86008612120486111594C
:1017C00021F060611151002B42D13F23936083E7E8
:1017D00037498A423AD12BB91031E8E7012B05D1BC
:1017E0003549E4E7012B05D13449E0E7022B05D167
:1017F0003349DCE7022B05D13249D8E7032B05D169
:101800003149D4E7032B05D13049D0E7042B05D16A
:101810002F49CCE7042B05D12E49C8E7052B05D16C
:101820002D49C4E7052B05D12C49C0E7062B07D16C
:101830002B49BCE72B492C48062B08BF0146B6E7CD
:101840002A492848072B18BF0146B0E72549AEE7CB
:10185000012B02D14FF47463B8E7022B02D14FF48D
:101860007C13B3E7032B02D14FF07463AEE7042B74
:1018700002D13F23D3602FE7052B02D14FF47463CD
:10188000F8E7062B02D14FF47C13F3E7072B7FF424
:1018900023AF4FF07463EDE73EF044F86FE700BF0D
:1018A000FC52050800600240003802408D630108C8
:1018B0000064024010600240286002402864024038
:1018C0004060024040640240586002405864024058
:1018D0007060024070640240886002408864024088
:1018E000A0600240B8640240A0640240B8600240B8
:1018F000031EBABF2D2258420A2210B50C46BCBFA7
:1019000001F8012B0A223BF071FA002303702046F4
:1019100010BDF0B5264D85B006464FF4787305F638
:10192000F84105F54D62C5F8C81C2249C5F8C42C1C
:10193000C5F8B41C0021013122F8023B1229FAD16A
:1019400042F6F82200231C4F402085F8981CC7E976
:1019500002231A4BC5F8B83C1FF044FD044620B3DF
:1019600008F096FB94F904C095F83E3D041E95F8E6
:101970003F1D604614BF03220122002B00960CBFBE
:1019800007230623002914BF082100210B4340210F
:10199000CDE9012307F16003094A20F0E7FC0CB10F
:1019A000C5F8600D003018BF012005B0F0BD00BFC4
:1019B000902301201DDC0208283001206FDD020881
:1019C000D5E7020870B50B4B0B4CA34202D30022A3
:1019D000104670BD5A7982420AD11A7A8A4207D1DA
:1019E0001A681E791579AE4202D11568AB42EFD064
:1019F0000C33EAE7D0010008E4020008642828BF9D
:101A0000642000EB800070B5450064240026B5FB1F
:101A1000F4F4E4B2F3B29C4212D80A2C0BD0142096
:101A2000B5FBF0F0C4EB84156638C4EB850528449B
:101A3000C0B219F04BF90134E4B2092C05D970BDDC
:101A40009F20013619F042F9E4E79A20F1E770B5DA
:101A50000A4D01244FF406760020FFF709FE55F8E1
:101A6000040B20B1C680012104723CF0CFFD01348B
:101A7000042CF4D10020BDE87040F9E5545305086A
:101A800070B505460D4C0C2694F8643D062B01D923
:101A9000002011E05A1C06FB034384F8642DD3F8A0
:101AA000682DD107F0D51542EED093F96C0D20F0DA
:101AB0004BFC0028E8D0406870BD00BF9023012097
:101AC000024B002283F8642DDAE700BF9023012047
:101AD000FCEEC07A0A460123B0EE600A17EE901AB7
:101AE0002DE9F0410446D0F81480876989B2C669AF
:101AF000056A3CF010FAC4F81480A761E66125621B
:101B0000BDE8F081254B102030B51C781946013313
:101B1000A4F13002092A27D90020204A8B1A022B6F
:101B200025DC002391422CD82E2C34D10131042401
:101B300000220D7802EB8202013C303D5200092D5B
:101B400092B29EBF5219013192B214F0FF04F0D14B
:101B500064214A43124901FB03230622B3FBF2F33B
:101B6000104A02FB003001E00138CED130BD00EB5D
:101B7000800012F8013B40003038184400F0FF00AC
:101B8000CCE703EB830312F8015B5B00303B2B4493
:101B900003F0FF03C6E70022DAE700BF503101205F
:101BA00040420F0080969800002330B551F8234042
:101BB00052F82350641B40F823400133032BF5D126
:101BC00030BD30B5046885B0E4692CB10DF10F0566
:101BD0000095A04705B030BD2046FBE708B5074893
:101BE00032F056F9064834F037FC064B93F8D02D06
:101BF00012B1012283F8D12D08BD00BF3FC50508F1
:101C00004BC50508902301202DE9F04F074687B00A
:101C1000904699460025DFF8A4A00591B8F1000F81
:101C200007DBA84505D00135042DF7D107B0BDE885
:101C3000F08FD623059A00246B4302EB030B1E4A58
:101C4000D3180493B9F1000F01DBA1452FD1049BF8
:101C500038463BF8146033F81430F21AC3F34411D9
:101C60005642564113F4006F03F01F0214BF56236F
:101C70004823CDE90042CDE9021352462B463146B6
:101C800033F0BCF83BF81430384613F4006F03F01F
:101C90001F02C3F3441114BF56234823CDE9004269
:101CA000CDE9021352462B46314633F0BDF80134DC
:101CB0006B2CC7D1B7E700BF6431012058C50508B8
:101CC0002DE9F04F354C8846354B002794F87019B4
:101CD0004646344A7434DFF8D4B087B0002908BFD0
:101CE0001A4694F9FD1881462F4832F0D3FCB8F11A
:101CF000000F50D096F800A094F85C03F1685045AE
:101D0000B6F910C096F816E0D6E9013241D1D4F800
:101D1000600398423DD1D4F86403904239D1D4F89D
:101D20006803884235D1B4F96C03604531D194F829
:101D30007253A5EB0E00454245414846CDE90221CC
:101D4000CDE900A3CDE904CE3B465A46294633F0FF
:101D500055F894F872335A46294648460593183484
:101D6000B4F9543318360493D4F850330393D4F8A9
:101D70004C330293D4F84833019394F844330093DE
:101D80003B46013733F050F83C2FB0D107B0BDE8E7
:101D9000F08F0025D1E74546DBE700BF88340120FE
:101DA00072C50508B2F2050875C5050884C50508A1
:101DB00070B51D4D04460E4695F85C332DED028B33
:101DC00063B3D5F8643395EDD88A0360D5F86833EA
:101DD0004360D5F86C338360DFED148A96ED000A1A
:101DE00080EE280A41F0E2FB236896ED010A1844D0
:101DF00028EE288A206080EE080A41F0D7FB63684D
:101E000096ED020A1844606041F0D0FBA368BDEC77
:101E1000028B1844A06095F85C0370BDC0E90033E4
:101E20008360B7EE008AD7E7883401202C7D8E3F8F
:101E300070B51C4C94F85C5375B3D4F86463012AF4
:101E40000B68DFED196AA3EB0603D4F8686318BFCB
:101E5000D4F86C2307EE103A4B68B8EEC77AA3EBC0
:101E6000060307EE903A8B6827EE267AF8EEE77ABB
:101E700018BF9B1A80ED007A94EDD87A27EE267A67
:101E800067EE877AC0ED017A07EE903AF8EEE77ACE
:101E9000C0ED027A284670BD002303604360836072
:101EA000F8E700BF883401202C7D8E3F0C460546A4
:101EB00008B51FF059F820461FF056F80020FFF72C
:101EC000D7FB28463AF0ECF860B10120FFF7D0FBD1
:101ED00028463AF0DFF8014620463AF0E4F80020C0
:101EE000FFF7C6FB20463AF0DBF80028E9D00120D6
:101EF000FFF7BEFB20463AF0CDF8014628463AF0FF
:101F0000D2F8DBE7F0B50C46054689B01422002173
:101F1000204641F05FF82A6804A90023C2F38550E7
:101F20001D4E0D4640FA03F7FF0748BF9F5D03F1C2
:101F3000010348BF01F8017B062BF3D100231748AA
:101F4000C2F305360B70C2F303210144713091F8DE
:101F50006A108DF818100DF1190146FA03F7FF0702
:101F600048BF1F5C03F1010348BF01F8017B062B4A
:101F7000F3D1002320460B70C2F383430849029338
:101F800006ABCDE9005302F00F03C2F303123BF09E
:101F900068F909B0F0BD00BF60530508FC520508A0
:101FA0009CC505081FB5314901A84A7D58311DF06F
:101FB000BAFD0398F7EE086A019A80EAE073A3EB92
:101FC000E07307EE903A82EAE273F8EEE77AA3EB69
:101FD000E27307EE103A029BC7EEA65AB8EEC77A34
:101FE000F4EEC75AF1EE10FA13DD83EAE371A1EBC8
:101FF000E37106EE101AB8EEC66AF4EEC65AF1EEB8
:1020000010FA06DD0028CCBF0020012005B05DF8E5
:1020100004FBC7EE265A83EAE371A1EBE37106EEF7
:10202000101AB8EEC66AF4EEC65AF1EE10FA09DDDF
:10203000F4EEE57AF1EE10FA04D5002ACCBF0220C6
:102040000320E3E7C6EE265AB4EEE57AF1EE10FA85
:1020500009D5F4EEE57AF1EE10FA04D5002BCCBFE9
:1020600004200520D2E74FF0FF30CFE7000000202A
:1020700030B52A4C94F8A0398B424ED194F8A1295E
:10208000DFED276A04EB42010132D4F8C45902F0B3
:102090000F02B1F8A239A1F8A20984F8A129C31A44
:1020A000204A2B4492F84C1D92F84D2D07EE101A41
:1020B000C4F8C4391B09B8EEC77AA4F8C83927EEAA
:1020C000267AFDEEC77A17EE901A07EE902AF8EE00
:1020D000E77A67EEA67AFDEEE77A17EE902A91424C
:1020E0000FDD9BB29A42D4BF9B1A00239942AABF2C
:1020F000CB1A00239BB2A4F8C8390B4617EE901AEE
:102100001A46B4F8C839521A5B1AC3EB832393FBFF
:10211000F2F282F30A02A4F8C82930BD8834012003
:1021200014AE2341902301202DE9F043DE4C94F8B6
:10213000FD312DED028B83B0062B30D8DFE813F094
:102140000700CA00D60029017E015502A302B4F897
:1021500000C2D6484FEA5C01D4F8042200EB8C0898
:10216000A0F5DA758B0096464FEADC0C4746C61898
:10217000434402EB0C1CE64507F1100706F110067C
:1021800003F1100305F1100519D18DB22946FDF7B1
:1021900055FFD4F8042229464046FDF74FFF94F836
:1021A000FD3107220133B3FBF2F2C2EBC2029B1AEC
:1021B00084F8FD3103B0BDEC028BBDE8F08317ED70
:1021C000040A0EF1100E95ED696A57ED030A36EE1A
:1021D000008A95ED6A4A53ED046A36EE406A53ED83
:1021E000034A17ED027A17ED015A56ED032A16ED50
:1021F000023A56ED013A53ED027A53ED015A16EDCB
:10220000042A85ED698A34EE208A95ED6B1A34EE46
:10221000604AD5ED6C1A85ED6A8A31EE078A31EE97
:10222000477A85ED6B8A31EE858A31EEC55A72EEBA
:10223000261A85ED6C8A76EEC26A46ED041A72EEB5
:10224000A41A74EEE24A46ED031A73EE271A77EEEB
:10225000C37A46ED021A73EEA51A75EEE35A46EDFF
:10226000011A5EED033A1EED043A64EE232AE6EE0F
:10227000032A23EEC66AA4EE036A47ED042A07ED9B
:10228000036A23EE646AA6EEA36A66EE836AE4EE4E
:10229000A36A03ED046A43ED036A1EED026A5EED74
:1022A000016A65EE264AE7EE064A26EEC77AA5EEF3
:1022B000067A47ED024A07ED017A26EE657AA7EE27
:1022C000A67A67EE867AE5EEA67A03ED027A43ED0A
:1022D000017A50E7D4F80822B4F80C1273483EF0A3
:1022E000A9FF94F8FD31013384F8FD31D4ED877AEC
:1022F000B0EE006AD4ED865AB6EE007A77EEA77A91
:10230000B4F80022694B013AD4F81402F0EE676A7F
:10231000D5EE867A03EBC2011030A3F5DA73E5EE51
:10232000866A083967EE877A66EE876AC4EDA77A0F
:10233000C4EDA66AF0EE476A91ED034A013A91EDC9
:10234000027A00F10800D3ED6F3AA1F10801D3ED54
:10235000707A03F1080337EE635A50ED045A34EEF5
:10236000276A50ED034A37EE237A77EEC47AA5EE5A
:10237000857AE4EE857AA4EE867AE5EEC67A27EED3
:10238000267A67EEA67A83ED8D7AC3ED8E7AD3D165
:1023900005E7474D4FF0000904272E46C84695ED46
:1023A0008E0AD5ED8D7A20EE000AA7EEA70AB5EECB
:1023B000C00AF1EE10FA6ADB41F0A4FA86ED6D0A6C
:1023C00095ED900AD5ED8F7A20EE000AA7EEA70AC8
:1023D000B5EEC00AF1EE10FA5CDB41F093FA86ED3F
:1023E0006E0A95ED920AD5ED917A20EE000AA7EEDD
:1023F000A70AB5EEC00AF1EE10FA4EDB41F082FA00
:1024000086ED6F0A95ED940AD5ED937A20EE000AD9
:10241000A7EEA70AB5EEC00AF1EE10FA40DB41F0D4
:1024200071FA86ED700A013F05F1200506F11006EC
:10243000B5D194F8FD31013384F8FD3194F890233F
:1024400000231B4D02F16D0118469FED1A7A1E46BE
:1024500005EB81010F2A2FDD04EB83021F4619468D
:1024600092ED867A5A1C67EE077A67EE877A07EE56
:10247000102A03F16E02B8EEC77A05EB820227EE4E
:10248000277A0F292ED105EB8303421C5BE0C6F8A7
:10249000B49195E7C6F8B881A3E7C6F8BC81B1E767
:1024A000C6F8C081BFE700BF00000020180200206E
:1024B0006400002000000000F1EC017A3EB951ED0B
:1024C000026AF4EEE76AF1EE10FA09D5D0B2B4EE82
:1024D000E77A0126F1EE10FA44BFB0EE677AD3B284
:1024E0000132B7E712ED016A0131D2ED006A043220
:1024F000B4EEE66AF1EE10FAC5DD66EE066A66EE47
:10250000866A06EE101AB8EEC66A77EEA67AA6EECE
:10251000867AB6E793ED6D6A043B791ED3ED6D6A5A
:10252000B4EEE66AF1EE10FA0FDD66EE066A781C8C
:102530000F4666EE866A06EE100AB8EEC66A77EEB9
:10254000A67AA6EE867A9742E4DCF5EEC07A94F895
:10255000FE61F1EE10FA3FDD87EE278AF7EE007A92
:1025600038EE678AD4EDE57A28EE278AB4F8980326
:102570003FF014F8CDE9000118EE100A3FF030F8F2
:102580009DED001B41EC100B40F086FE51EC100B52
:102590003FF04EFB242300EE100A03FB065505F521
:1025A0002D7038F099FF94F8FE31BCEEC00A03F5A7
:1025B000C87304EB4303B3F86420A3F86A2010EE59
:1025C000102A92B2A3F86420B4F89C339A4238BF20
:1025D0001A46A4F89C23E2E504EB4603B3F88A33D9
:1025E00008EE103AB8EE488AC0E794F8FE0100F50C
:1025F000C87304EB4303B3F86420B3F86A3000EE09
:10260000102A93422FD0364D00EBC00094F82034AE
:1026100005EB800095ED1B8AD4F81014002B59D0DF
:10262000B8EEC00AD5ED217AF0EE480A8C3520EEDE
:10263000270AFFF74DFA94F8FE0155ED017AF0EE06
:10264000480A04EB4003D4F8101400EBC000B3F8C0
:10265000843305EB800000EE103AB8EEC00A20EE9D
:10266000270AFFF735FA94F8FE3103220133B3FB52
:10267000F2F202EB42029B1A84F8FE3194F8FD312B
:10268000013384F8FD3194F87820164DC2F1200111
:1026900094F8FE01063205F23446CFB202EB401048
:1026A00031463B4605F5DA7205EB8000FDF754FF35
:1026B00094F87830002B3FF472ADB90094F8FE0125
:1026C00001F5DA7205EBC01031442A441830FDF7E9
:1026D00043FF64E5F0EE480AB8EE400AC1E700BFE8
:1026E000A00300206400002030B5194C89B00023FD
:1026F0000546D4ED017A6A4600936846F1EE677AA2
:102700000B680193CDED057AD4ED027A4B68F1EEBA
:10271000677A02938B6804A9CDED067AD4ED037A2B
:102720000393F1EE677A23680493CDED077A23F0E3
:1027300009F969462246084623F004F9019B284618
:102740002B60029B6B60039BAB6009B030BD00BF88
:102750001805002038B52DED088B30EE608AD0EDDD
:1027600001AA02780446B0EE40AA0D46F0EE419A66
:1027700001F00103B0EE619AB0EE42BA68EE2AAA07
:102780003AB1002B4FF0000240FE887A0270C0ED93
:102790000B7AD4ED0B7A002B5DD078EE677AF0EEF1
:1027A000480A87EEA90AC4ED0B0AD4ED090AD4ED54
:1027B000038AF5EEC00AF1EE10FA05DDB0EE691AF3
:1027C00004F1180038F0D4FED4ED057A20EE280A82
:1027D00094ED0A7A2AEE27AA7AEE877A77EE807A43
:1027E00077EE8A7AF4EEC97AF1EE10FA05D4F4EEB7
:1027F000CB7AF1EE10FA3BFE279AD4ED026A79EE1D
:10280000677A94ED046A6B0728EE268AC4ED0DAA58
:10281000F0EE476A84ED0C7A67EE867A84ED0E0A54
:1028200084ED0FAAE9EE886A84ED109AE9EEA76AB2
:10283000F0EE667A08D5F0EEE66AB0EEC77AF4EE0E
:10284000C76AF1EE10FA01D5C4ED0A7AB0EE490A72
:10285000BDEC088B38BD70EEE77AF1EE677A87EE53
:10286000A90AA0E72DE9F041A34CA44F2DED068B5A
:1028700009EE100A0BF050FB94EDD28AD0ED047AE9
:1028800090ED037A38EE678AD4EDD18A78EEC78A64
:1028900028EE080AA8EEA80A41F034F8DFED987A8D
:1028A000984BB4EEE70A97ED006AD3F82885F1EE6D
:1028B00010FAC5BFDFED947AB0EEE87ADFED937AD7
:1028C000C7EE806AC8BFF0EEC87AB8EEC98AD2BF38
:1028D000B0EE677A27EE267A67EEA67ADFED8C6A8D
:1028E00018F4006F28EE268ADFED8A6AB1EE47AA57
:1028F00068EE266A18BF76EEA66A36EE669AB4EEE1
:10290000CA9AF1EE10FA00F1EC80B4EE479AF1EEBB
:1029100010FA37FE099A36EE266AB4EEC6AAF1EE30
:1029200010FA08DCB4EEC67AF1EE10FA54BFB0EE3D
:1029300046AAB0EE47AA784EF1EE679A96ED007A75
:1029400077EE668AF4EEE98AF1EE10FA00F1CC80B7
:10295000F4EE678AF1EE10FA77FEA88A76EE876ABF
:10296000F4EEE69AF1EE10FA08DCF4EEE67AF1EE17
:1029700010FA54BFF0EE669AF0EE679AD4EDD1AA41
:102980000BF0CAFAB0EE4A2AD0ED030AF0EE491A6B
:102990000021B0EE481A6148B0EE6A0AFFF7DAFE8D
:1029A00094EDD2AAB0EE409A0BF0B6FA0021D0ED29
:1029B000040AB0EE692A5A48F0EE681AB0EE481AD6
:1029C000B0EE4A0AFFF7C6FE94F8025A18F4805F88
:1029D00005EB85054FEA45053DD094F80E3AD3B393
:1029E00007EE903ADFED4F6AB4F8123AB8EE677A24
:1029F00094EDCD6AC7EE267A06EE903AB4F8E8393F
:102A0000B8EE667A06EE903AF8EE666A36EE476AF7
:102A100076EEC76A26EE276A86EE267ADFED426AF0
:102A200037EE267AB4EEE67AF1EE10FA5FD4F4EEE1
:102A3000C77AF1EE10FA58BFF0EE477AB7EE007A97
:102A400094F8165A05EB850577EE877A6D0029EE26
:102A5000279A20EE270AD4EDCB7A94EDCA7A60EE5D
:102A6000278A86ED000A20EE070ADFED300A87ED9F
:102A7000009AE9EE478AA9EE270A3AF0A3FFB0EEE2
:102A8000408A3BF06FF8DFED290A28EE800A3AF021
:102A900099FFF2EE046A9FED267A6A4220EE260A3A
:102AA000C0EE077AFDEEE77A17EE903A934221DB0B
:102AB000AB42A8BF2B4668EE266AA4F89439C6EE4E
:102AC000877AFDEEE77A17EE903A9A4203DC9D4250
:102AD0002A46A8BF1A46A4F89629BDEC068BBDE885
:102AE000F081B0EE4A9A16E7F0EE698A36E7F0EE2A
:102AF000667AA3E71346DEE788340120543E0120BE
:102B0000CDCCCC3D0000002000007544C23D2D44DA
:102B1000BD3786350080D444583E0120DC35012085
:102B2000203601200000C842000000008F2A7544B2
:102B300035FA8E3C10B5002388B0044600936A46EF
:102B40000B68684601934B6802938B6812490393A4
:102B5000D1ED017A0B68F1EE677A0493CDED057A39
:102B6000D1ED027AF1EE677ACDED067AD1ED037AF6
:102B7000F1EE677ACDED077A22F0E4FE694604AA09
:102B8000084622F0DFFE019B20462360029B636023
:102B9000039BA36008B010BD1805002010B51E4CA3
:102BA00094ED010AD4ED006A20EE000A94ED027A59
:102BB000D4ED037AA6EEA60AA7EE070AA7EEA70AA7
:102BC00040F0A0FEDFED157AB4EEE70AF1EE10FA60
:102BD00008D54FF07E53236000236360A360E36059
:102BE0000D4810BD94ED007AC7EE007A94ED017A9D
:102BF000C4ED007AC7EE007A94ED027AC4ED017A52
:102C0000C7EE007A94ED037AC4ED027AC7EE007A3B
:102C1000C4ED037AE4E700BF18050020BD37863510
:102C200030B51C7814B1012C05D030BD9A780270F3
:102C3000DB780B70F9E7B3F9024052B1157B94FBD6
:102C4000F5F40470B3F904302AB1527B93FBF2F32C
:102C5000EFE70C25F3E71222F8E730B51C7814B142
:102C6000012C0FD030BD9D7842B1147B6C430460C1
:102C7000D8782AB1537B43430B60F3E70C24F5E784
:102C80001223F8E7B3F90220B3F904300260F3E746
:102C90002DE9F0411C4D04460E4617469846134652
:102CA0000A460146D5F8440A2DED028BB0EE408A63
:102CB00084B039F0B9FB9FED150A00229DF8303041
:102CC00028EE000ACDF80480009202A8FDEEC07A3A
:102CD00017EE901A11F0F4FE9DF8340024F09AFBE0
:102CE000804638463EF010FB611C02AB3246014480
:102CF000CDF80080D5F8440AC9B239F059FB04B0C8
:102D0000BDEC028BBDE8F081883401200000C84290
:102D100070B50D4C06460D4613460A460146D4F8DA
:102D2000440A39F009FC94F9483A012004EB4302C3
:102D300001335BB282F8496A82F84A5A272BC8BF2E
:102D4000002384F8483A70BD883401202DE9F34708
:102D5000284C1646FE221F46062504F69C2884F8B9
:102D60009B2A94F8B02B84F89C6A84F89D2A01323F
:102D700084F89E0A84F8B02B4FF6FF7284F89F1AED
:102D8000ADF80620013DADB23DBBDFF870804FF6D7
:102D9000FF79BDF8063094F89C5AA8F1080AA4F807
:102DA000993A013DADB24D451ED13846124907F062
:102DB0000BFE94F89C3AB4F8992A06F108002344D3
:102DC00083F8A12A94F89C3AB4F8992A2344120A69
:102DD00083F8A22A02B0BDE8F0870DF1060118F8C9
:102DE000010B07F0F1FDCDE7514618F8010B07F094
:102DF000EBFDD6E788340120213F0120293F012047
:102E000017B48DF805308DF804200A4BBDF8042066
:102E10009DF81040A3F8A12A2F2283F8A34A83F833
:102E2000A02A992303228DF8064003B05DF8044BD5
:102E30008CE700BF883401200549002391F8DD2B81
:102E400001F6E2310360042A28BF04223FF0BABE33
:102E500088340120074910B491F8DD2B002401F6D5
:102E6000E231022A04805DF8044B28BF02223FF0C1
:102E7000A9BE00BF88340120F8B5204C1D250F469F
:102E8000064684F8EA5C1DF057FF00201DF0E0FEC6
:102E900008201DF0DDFE0E201DF0DAFE28461DF094
:102EA000D7FE04201DF0D4FE04201DF0D1FE00202A
:102EB0001DF0CEFE30201DF0CBFE00201DF0C8FE20
:102EC00038461DF0C5FE00201DF0C2FE1DF014FFA7
:102ED00004F6EB401DF024FE234670B194F8EB2C71
:102EE00052B994F8EC2C302A00D02AB993F8ED2C82
:102EF00012B993F8EE3C33700120F8BD88340120FC
:102F0000011D0023884201D11846704710F8012B9B
:102F10005340082213F0800F4FEA430318BF83F099
:102F20003103013ADBB2F5D1ECE7094A0023104640
:102F3000117831B19178802903D1682202FB030016
:102F4000704701336832102BF2D10020704700BF68
:102F5000884101202DE9F743104D0746884695F832
:102F60008842CCB905F52376A14605F5A4653068FD
:102F700058B139F075F840B1CDF80090334642466B
:102F80003946B6201DF07EFB0446DC36AE42EED15B
:102F9000204603B0BDE8F0830024F9E78045012016
:102FA0000E4B062230B483F82225242203F2265148
:102FB00083F8232583F82425002283F82525084A51
:102FC00002F1240452F8045BA24241F8045BF9D1F7
:102FD00083F8280530BC10F06DBA00BF8045012091
:102FE0007353050800231349F0B51A460D461E46D3
:102FF0000A278C1894F8C04D0CB91846F0BD2E2C39
:1030000006D101320028F8D08C18044484F8C06D31
:10301000AC187B4394F8C04DA4F1300CBCF1090FFF
:103020009CBF303B1B190E2A01D80132E1E7002377
:10303000E3E700BF9023012010B50A4C04F674109A
:103040000BF068FAD4F88039C01A3AF076FC002800
:1030500042F21073B8BF40429842D4BF0020012012
:1030600010BD00BF88340120F8B5144C0746D4F8D1
:10307000640503791E3B012B02D9002139F013F8B6
:103080000F4E0025BD42D4F8640510DB002139F055
:103090000AF80C4B0022D3F8A433C4F888350A4B45
:1030A0005A60B4F890350133A4F89035F8BD16F89D
:1030B000011B013538F0F7FFE4E700BF8045012030
:1030C000E84A012090230120084B0120214A0346B1
:1030D0000120F0B5154687B01446002795F806E0A4
:1030E00005F1060CDD1B0130A3EB0E06002EB8BF68
:1030F0007642002DB8BF6D42AE426546BCBF4FFA66
:103100008EF764461028E9D100201578BD420CD115
:10311000668855888E1B4D1B002EB8BF7642002D49
:10312000B8BF6D42AE42C8BF144601300632102807
:10313000EBD1627901200492227903926288029293
:103140002278CDE90012044A03213AF0C7FD204657
:1031500007B0F0BD98530508ABC5050810B51C2095
:1031600038F0FCFF044611213BF050FA204639F0BC
:103170001DF8C82038F003FF2046BDE8104039F0A4
:103180001BB870B5474CD4F8B4331A69910709D508
:10319000DA68920706D56FF002021A619A69002276
:1031A00084F8D0231A69560709D5DA68550706D579
:1031B0006FF004021A619A69002284F8D0231A6918
:1031C000100709D5DA68110706D56FF008021A61F1
:1031D000DA69002284F8D0231A69D20609D5DA68A0
:1031E000D60606D56FF010021A61DA69002284F85B
:1031F000D0231A69D5072DD5DA68D0072AD56FF004
:1032000001021A61284A934224D1D4E9E425AA4252
:1032100020D0D4F870138CBFC2F58055AD1A234B63
:10322000D1F814621A44ABB2C1F80822C1F81032C6
:1032300086B90120C1F814028121D4F888033DF039
:103240004FF8D4F890331D44B5F5805F08BF35467C
:10325000C4F89053D4F8B4331A69110605D5DA6866
:10326000120602D56FF080021A611A69D60505D5DB
:10327000DA68150602D56FF080021A611A695406E1
:1032800005D5DA68500602D56FF040021A611A6956
:10329000910605D5DA68920602D56FF020021A6110
:1032A00070BD00BF9023012000140040AC630120DA
:1032B00070B5D0F830621C200D4600FB0164C4F8E4
:1032C0000C320023C4F8042204F5FC71C4F8103257
:1032D00084F8F93184F8F8513369012B08BFC4F838
:1032E0000822DAB230681DB93CF0AEFE002070BD95
:1032F0003CF018FFFAE71248014610B5D0F89833B1
:1033000003B9FEE7D1F88C23002AF7D013F8014B5C
:10331000013AC1F89833C1F88C2362B9D1F87033FF
:103320004BB1D3F8042291F8683133B14023012125
:103330000448FFF7BDFF204610BD4FF40073F6E7C9
:1033400090230120E82401204BB21C22002B4FEADD
:10335000D37310B5D0F8304201F07F00ACBF02FB50
:10336000014102FB00414FF00102ACBF01F5FC71CD
:1033700038318A7008704B7094F8B833934223D078
:1033800084F8B8234B782268012B09784FF020038A
:103390000CBF02F5106202F5306213FB01231A68BC
:1033A000002A03DB1A6822F080421A601A6842F48D
:1033B00000121A6028B904F56F72217C20683CF075
:1033C00023FE002384F8B833002010BD10B5044656
:1033D0008021FFF7B9FF00212046BDE81040B3E788
:1033E00070B5D0F8304248B201F07F061C250028A5
:1033F0004FEAD070B5BF05FB064105FB01413831EE
:1034000001F5FC710E7048708B60CA7000B1CE80FF
:10341000022A04BF00230B7194F8B833012B27D084
:103420000126236884F8B86303F500604A780D78B4
:10343000B2421FD1AA40C66903F5106392B232436B
:10344000C26103EB4512136818040ED4886816682D
:10345000C0F30A03C878334343EA804343EA855301
:1034600043F0805343F400431360002384F8B833DF
:10347000002070BDC269AE4003F5306342EA0646E3
:1034800003EB4513C6611A681204EED48A68186803
:10349000C2F30A02C978024342EA814242F08052F2
:1034A00042F400421A60E0E7914B2DE9F04FD3F867
:1034B000145487B06B6913F00103029340F0A681A6
:1034C0006A69AB691A4200F0A1816B69AA6913406D
:1034D0009C0701D502236B616B69AA69134018032D
:1034E00000F19781824CD4F814345A6999690A40E2
:1034F000510311D5D3F8182803F5006304F21447DB
:1035000005F5106BDB694FF0000913409BB2019386
:10351000019B002B40F00E84D4F8140442698369A7
:103520001A4216D5D5F8043823F00103C5F804383B
:1035300094F80038012B15BFD4F81038002393F805
:10354000FD2184F8003818BF83F8FC214FF00043B8
:1035500043614369826913401B050FD5D5F80838CC
:10356000DF0708D5D4F8103893F8FC2183F8FD2143
:10357000042283F8FC214FF40063436143698269AC
:1035800013401E010FD54FF00063436194F80038DB
:10359000002B40F0E284012384F80038436DC3F32C
:1035A0008303C4F80438436982691340D90439D5C8
:1035B00005F500667368102123F0010373603DF088
:1035C000C1F9D4F8180405F510630022FF218242E6
:1035D00040F0CE844FF0FF33B361F36943F0011341
:1035E000F361D4F84434002B00F0C984D6F8843059
:1035F00043F00B03C6F88430736C43F00B03736421
:10360000D5F800383B4A23F4FE6394F82414D4F828
:103610001404C5F800383CF0F7FCD4F814344FF427
:1036200080525A61D4F814345A6999690A40920454
:1036300070D5D3F8002922F4FF6222F00702C3F804
:10364000002903F50062916801F00601042905D103
:10365000D3F8001941F00301C3F80019516841F48F
:1036600080715160D96821F47051D960916811F06E
:10367000060F11D0916801F00601022900F089843B
:10368000916801F00601062900F08384926802F037
:103690000602042A00F07D844FF400720027C4F86B
:1036A0002824DA68C4F8207442F41052DA60D4F89E
:1036B000106800224FF04008402311463046FFF7C3
:1036C0008FFE4346C6F81081002280213046FFF766
:1036D00087FE0123C6F8208086F8FC31D6F8183220
:1036E00053B9D6F820323BB9D6F8283253B103E0AB
:1036F00090230120602B0120D6F814323046317916
:103700005B689847D4F810384FF400521F74D4F80F
:1037100014345A61D4F81424536991690B40DB06C0
:103720002FD5936923F0100393612B6AC3F34340B1
:1037300003F00F07022840F0998447F6F0710B421E
:103740001BD01C20C3F30A1305F5805500FB07406E
:10375000DE1CD0F818C6B61002998E4240F07E8466
:103760001C2101FB0741D1F81856D1F824061D444D
:103770001844C1F81856C1F82406936943F01003A1
:1037800093615369926913401F070ED5D4F810084E
:1037900090F8FC31032B04D1D0F81432DB6903B16B
:1037A0009847D4F8143408225A61D4F81424536981
:1037B00091690B40DE0202D54FF4801353615369C7
:1037C00091690B409D0202D54FF400135361536978
:1037D00091690B40580002D54FF080435361536903
:1037E00091690B40590711D555686B0709D5D4F875
:1037F0001008012380F8FC31D0F8143201795B689D
:103800009847D4F814345A6815435D6007B0BDE892
:10381000F08FD5F8183805F53068D5F81C284FF02A
:10382000000AB24F1340A7F214461B0C0193019BF0
:10383000002B3FF457AE019BDA0740F14B81D6F8DD
:1038400014345FFA8AF103F5306203F5006302EB8A
:10385000411292685B6902EA030919F0010F3AD03C
:103860000123C8F80830D6F82434012B0DD1D8F83C
:103870001030D7F80022C3F31203D31AC7F810325E
:10388000D7F804321344C7F80432D6F81048002998
:1038900069D1D4F8F431032B0FD1D4E94303984212
:1038A00053D9C01AD6F818268342C4F80C0128BF91
:1038B000034620469BB2FFF7FBFCD6F824140129EF
:1038C00009D1D6F820365AEA030304D1884AD6F83B
:1038D00014043CF099FB19F0080F00F0EF80D6F8C3
:1038E000104896F8D0C704F5027B84F808C296F811
:1038F000D1E784F809E296F8D31796F8D23703EBAC
:1039000001239BB2A4F80A3296F8D52796F8D4077B
:1039100000EB022080B2A4F80C0296F8D71796F8B4
:10392000D62702EB0122012192B2C4E97D120CF0EC
:103930001F01A4F80E22012900F04B81F9B10229E0
:1039400000F05C810CF08001EEE1D4F814321B69C8
:103950002BB194F8FC21032A01D120469847204638
:103960003CF099FFA9E7D4F814329B69002BA4D04E
:1039700094F8FC21032AA0D1204698479DE7BEF188
:10398000090F74D8DFE81EF0FE001A0173000F0162
:1039900073006D000A007300EE00B6001A0A013AC7
:1039A000062A64D8DFE802F0041D2A63634A530044
:1039B000D4F810321B680DF11601207C9847BDF831
:1039C0001620002A77D0B4F80E32002B73D09A421A
:1039D000014628BF1A46ADF8162020463CF068FF85
:1039E00069E0227CD4F8143232B99B6A0DF11600DA
:1039F000984702234370E2E7DB6AF7E7DBB2052B67
:103A000035D8DFE803F003070B0F1317D4F8103293
:103A10005B68D0E7D4F810329B68CCE7D4F810325A
:103A2000DB68C8E7D4F810321B69C4E7D4F8103259
:103A30005B69C0E7D4F810329B69BCE7237CB3B95B
:103A4000D4F814320DF116005B6B9847B7E7237C6E
:103A50006BB9D4F814320DF116001B6B984707238D
:103A6000C8E7024303D194F8FC11032901D1204691
:103A700067E003F07F0BD4F8303284F8FEB193F89E
:103A8000B81301290ED01968D1F8000820F4FE609F
:103A9000C1F80008D1F8000840EA0B10C1F800088E
:103AA00083F8B82320463CF0F6FEBBF1000F1AD095
:103AB000022384F8FC310823C8F8083019F0100FED
:103AC00002D01023C8F8083019F0200F02D02023AC
:103AD000C8F80830019B0AF1010A08F120081C37D8
:103AE0005B080193A3E60123E3E700BFA4270120BD
:103AF000602B0120D9B28E4B012983F89E15B6D8D0
:103B000094F8FC31022B0FD0032BB0D1E1B9022382
:103B10006160204684F8FC31D4F814325A6890472A
:103B200020463CF0B8FEC6E70029F9D00121032366
:103B3000616084F8FC3120463AF090FB0228204670
:103B4000EFD1FFF743FCB6E761680129E8D0D4F86C
:103B50001432C9B220465B689847754B93F89E159E
:103B60006160E8E7012A82D194F8FC31022B04D08D
:103B7000032B7FF47CAF211D2FE72146002341F862
:103B8000083F2AE794F8FC31023B012B3FF66FAF68
:103B90000123E360D4F804320BB10323E360022273
:103BA00004F10C0119E7012B85D1C4F80432D4F8D3
:103BB0001432594620469B689847B1E794F8FC2197
:103BC000023A012A3FF653AF012B7FF474AF002372
:103BD000EBE794F8FC31032B7FF449AFC0B2032824
:103BE0003FF645AFD4F81432594620469B689847B3
:103BF000B4F80E32002B7FF45EAF91E70CF0600C4E
:103C0000C1B2BCF1200F06D1D4F814325946204677
:103C10009B6898474FE7BEF1010F15D0BEF1000F2A
:103C20005BD0BEF1030F7FF446AF94F8FC21022A6B
:103C300077D0032A7FF41BAF002BB8D14B06B6D048
:103C40002046FFF781FBB2E794F8FC21022A68D0F6
:103C5000032A7FF40CAF002B7FF42DAF11F07F030C
:103C60003FF45EAF40B2D4F830224FF01C0C002875
:103C70004FEAD070B4BF0CFB03210CFB01214FF0C5
:103C8000000CB4BF383101F5FC7181F802C00B7033
:103C9000487092F8B833012B89D001234FF0200CE3
:103CA00082F8B83348781368012808780CBF03F508
:103CB000106303F530631CFB0033186820F4001018
:103CC0001860C9780239012903D8196841F0805178
:103CD0001960002382F8B83369E794F8FC31022BAD
:103CE0001FD0032B7FF4C3AE42B201F07F03D4F8A0
:103CF000300204EB0311002AB4BF143101F58271C4
:103D0000002A4FF01C0202FB03034FF00202B4BF73
:103D100093F83A3093F8FA31003318BF01230B605F
:103D20005BE648063FF4C7AE2046FFF70DFBC2E650
:103D300080450120019BDA0740F1AD80D4F81424BE
:103D40005FFA89F0D2F8101802F5106252F8CC3CF4
:103D500002EB4012039023FA00F892684FEAC81869
:103D60005FFA88F848EA010808EA020818F0010F2B
:103D70004AD00121D5F8343801FA09F123EA0103C8
:103D8000C5F834380123CBF80830D4F82434012B9B
:103D900002BFD7E910239B187B6419F0FF0AD4F8FF
:103DA000106840F0A880D6F8F431022B17D1D6E97C
:103DB0000713994279D903981C22CB1A514602FB6A
:103DC0000042D6F83002D2F85824F3619BB23CF09E
:103DD00087FA002330461A461946FFF769FA96F823
:103DE0000032012B02D1002386F80032D4F82414CB
:103DF000012909D1D4F8603459EA030304D1A74A50
:103E0000D4F814043CF000F918F0080F02D008238D
:103E1000CBF8083018F0100F02D01023CBF8083080
:103E200018F0400F02D04023CBF8083018F0020FF2
:103E300002D00223CBF8083018F0800F2BD0D4F832
:103E40001404D7E9133200F5106600F580519B1A6F
:103E50003A6C06EB491A039E934201EB0638A8BF61
:103E60001346DA1C48BF9A1D9210DAF8181089B26E
:103E7000914205D9D7E913218A4201D9002A49D1B3
:103E8000002B08DC0122D0F8343802FA09F223EAC8
:103E90000203C0F83438019B09F101091C370BF10A
:103EA000200B5B080193FFF733BBB269B2FBF3FA57
:103EB00003FB1A2ABAF1000F0FD193420DD8D6F89E
:103EC000F8319A4209D2534652465146D6F830024A
:103ED0003CF006FAC6F8F8A17BE7D6F81432DB68A6
:103EE0002BB196F8FC21032A01D1304698470523CF
:103EF000C6F8F4316DE7D6F814325B69002B3FF455
:103F000075AF96F8FC21032A7FF470AF5146304616
:103F100098476BE7521A3B6C94F824149342A8BF5D
:103F20001346DA1C48BF9A1D921031B1796C1944BE
:103F30007964396D1944396597E71FFA83FCD7F81E
:103F400044E00CF1030C4FEAAC0C8C45EED05EF86B
:103F500021600131C8F80060F7E7D4F8103893F811
:103F6000FC2183F8FD21042283F8FC21FFF71BBB11
:103F700099600132C3F808122033FFF728BB736938
:103F800043F02B037361336943F00B033361FFF795
:103F900037BB032242494348C4F820244022C4F8D6
:103FA0002824414AD2F8A0201144814206D8DA6878
:103FB00042F47052DA600127FFF779BB3B493C4875
:103FC0001144814203D8DA6842F46052F2E7A2F564
:103FD00074013848A1F51051814203D8DA6842F4DF
:103FE0005052E7E7A2F183713348A1F5E7418142DE
:103FF00003D8DA6842F44052DCE7304930481144D3
:10400000814203D8DA6842F43052D3E72D492E4872
:104010001144814203D8DA6842F42052CAE72B499E
:104020002B481144814203D8DA6842F41052C1E7A8
:10403000A2F1B7712748A1F55851814203D8DA6837
:1040400042F40052B6E724491144244A9142DA6806
:1040500094BF42F4E05242F4C052ABE702992868A0
:104060004CF8210001310291FFF776BB06287FF45E
:1040700084AB05F58055C3F30A132968C4F8D0173B
:104080002968C4F8D4171C2101FB0741D1F8240684
:104090000344C1F82436FFF770BB00BF602B01203A
:1040A000405327FFFF340C0000000120401E1BFF7F
:1040B0003F420F007F4F12001FD6130060B6E5FE8F
:1040C0005FE3160000D3CEFE3F771B00C05BB3FE5C
:1040D000BF9121001F753800E05459FEDF9C41005C
:1040E0004FF0FF312E4AF8B50D4600232D4C907A43
:1040F00004280BD103F5817004EB0010C079C707C9
:1041000004D46E1C10682ED088422CD30133103298
:10411000082BECD16B1C40D0224C05F58176224F48
:1041200004EB0613998849B1D7F8A03533B104EBF5
:10413000051041F218029B6880589847D7F8A035BF
:10414000A3B104EB051C194941F21800DF68184AB5
:10415000002301EB45215CF80000B84730B102288C
:1041600011D00020F8BD1D460146CFE741F29C0268
:10417000A358013BA350032304EB06140122A371AF
:104180000C4B1A70EDE741F29C02A358013BA3507F
:1041900004EB06140123A371E3E70120E2E700BF6B
:1041A000C8830120AC73012080450120C473012025
:1041B000DF4901084C84012090F91A305A1C0AD0BA
:1041C00003F58172124B03EB0213DA796FF30002ED
:1041D000DA71FF23837690F91B104B1C16D001F582
:1041E00081710B4A02EB011302EB0112DB79D179E9
:1041F000C3F34503012B8ABF03F1FF33002303F010
:104200003F0363F34601FF23D171C376704700BFBC
:10421000AC73012012F0020C2DE9F84F894690464C
:104220009B4600F0BE80002840F0BB80FCF7C4FA3B
:1042300002275FE04FF0FF32654F00269646154695
:1042400092463B68B97B984218D1002900F09180D2
:1042500041F29801354662580132625006F581718B
:104260000901625005F5817604EB06129779042F57
:10427000DCD8DFE807F02956AB56600001B301290E
:1042800010D106F5817104EB0111C979CB0709D46E
:1042900011F07E0F06D1CB0914D1B9688A4501D936
:1042A000B6468A4601361037082ECAD1511C76D13F
:1042B0006B1C5FD1BEF1FF3F00F08880754659E06E
:1042C0003246EFE73546EDE718F0010215D0414BD5
:1042D000D3F8A035002B79D03F49D3F804800023D0
:1042E0003E4A01EB4521C04700286FD004EB06147D
:1042F0000223A3713846BDE8F88F04EB0611BBF129
:10430000030F4FEAE800CF7960F3C717CF712ED9BA
:104310004FF6FF725B46934528BF134604EB061227
:104320009380BCF1000F06D004EB051000F580501F
:104330001830FCF7A9FA18F0040F1FBF04EB06129F
:10434000D37943F00103D37118F0100F08D004EBB8
:104350000614E379C3F34502013262F34603E371C5
:104360001D49012701EB4521C9F80010C2E713469A
:10437000D4E7354604EB051141F2980641F21802E4
:104380008850A2590132A25141F21C068A5105F50A
:1043900081710901625066180022726062E7154659
:1043A000E8E70F4941F208228A580C46002A3FF4F8
:1043B00041AF41F2102541F20C264D59895905FBB8
:1043C00002129042FFF436AFFCF7F6F9002791E7AE
:1043D000C483012080450120C47301205154010889
:1043E000AC7301207FB5104D02AA0C4601A9FCF761
:1043F00015FA05F59053019E0122186803A90023C0
:104400003044FFF707FF01280BD12978DDE90223AB
:10441000022916BF53F8223033F8123023F07043CC
:10442000236004B070BD00BFAC73012037B50446F3
:10443000C0690D4698B10023032201A9FFF7EAFEE7
:10444000012806D1B4F92020002A0ADAFCF7B4F9D1
:10445000022003B030BDE5258D54A2680AE001209A
:10446000F7E752010199012D01EB0203F5D0022D6E
:10447000F1D0E268DA612278032A04D100221A77A7
:104480005A779A77DA77626AC2F30F415A83998230
:10449000DFE77FB50E4D01AA0C4602A9FCF7BEF975
:1044A00005F59053029E0322186803A900233044A7
:1044B000FFF7B0FE012808D12978039B019A022951
:1044C0000CBF23F8124043F8224004B070BD00BF77
:1044D000AC730120034B1B78032B0CBF80204FF4DF
:1044E00080707047AC73012008B50B4A68B18168D1
:1044F00011B10723937008BDFFF7ECFF042311757A
:10450000C2E90100C2E90311F4E7012341F2B41149
:1045100053705354EFE700BFAC73012008B5FFF7A9
:10452000D9FF034A41F21023D3585843400208BD33
:10453000AC7301202DE9F04F0E4685B0174680463A
:1045400001AA02A93068FCF769F9384A0299136890
:1045500001EB0309019B013BDD19FFF7BBFF33684A
:10456000A2F5905AED1A0544B5FBF0F54D443368B9
:10457000A5EB0901BB4203D3012005B0BDE8F08FD4
:10458000DDF804B00BEB0702D21AFFF7A3FF0446D5
:10459000824244D214460B220B46484603A9FFF739
:1045A00039FE0128E9D19AF80000326802280399FF
:1045B00002F10102019B2FD1A34224D33368B8F149
:1045C000010F019AA3EB02032344336016D1BB42CF
:1045D00014D19AF80030022B0BBF04F1004404F10F
:1045E00080444FF6FF734FF0FF330BBF04F1FF34ED
:1045F00004F1FF3421F8143041F82430002309F18C
:1046000001090193B3E721F8132001330132D3E705
:1046100041F8232001330132A342F9D3CEE7BBF1A5
:10462000000F14BF0B220A22B6E700BFAC850120A1
:1046300000292DE9F743044614BF02270027DFF8BD
:10464000F8803B4E94F83C30042B63D8DFE803F04D
:104650002403313B5700DFF8E49098F80030206BDA
:10466000032B47D1484594BF00250125002D3FD19C
:1046700001A9FFF7B7FE012857D12946206BFFF7A4
:1046800008FF012851D1019B32682363013B93420B
:1046900094BF33603260E0E739462046FFF7C6FE3C
:1046A0000128034638D1626B02B1022384F83C3002
:1046B000C8E7626B04F130010020FFF73BFF0128DF
:1046C0002AD10323F2E71B480021E26A0368243859
:1046D00042629A1AD0F8A030534382685B021A44AF
:1046E0008260C2681344C360FFF7A0FE012813D1A3
:1046F0000423DBE785B24FF6F7739D42B3E794F8E6
:104700002830042B04BF002384F82830A36B0BB19E
:1047100020469847012008E0022806D194F8283066
:10472000042B02D1002384F8283003B0BDE8F083C5
:10473000C085012040850120AC730120F7FFFF0FE9
:104740002DE9F0412C4E044600F1300806F1240713
:1047500094F83830032B4CD8DFE803F00229313AC3
:104760003968264D2161FFF7D9FEE3681844E060FF
:10477000FFF7B0FE08443860FFF7D0FE2B68181A28
:104780002860FFF7CBFE6B68181A68602163FFF79B
:10479000A1FEE36A0844606323B96162012384F8DF
:1047A0003830D5E7FFF796FE081A2063F6E70021B8
:1047B0003046FFF73BFE01280ED10223EFE7626B84
:1047C00041460120FFF7B6FE012805D10323E6E7A5
:1047D00000212046FFF72AFE431EDBB2012B06D83C
:1047E00094F82830062B04BF002384F82830BDE855
:1047F000F0810120F0E700BF1C8501202485012005
:104800002DE9F04F0C4685B081461646FFF762FE53
:1048100001AA804602A92068FCF700F809F1FF33DD
:10482000012B65D9019B2BB94546DFF8D0B00BF5BC
:10483000905A1BE0FBF7C0FF022005B0BDE8F08FE7
:104840002C4A1268B2B12C490868984212D1C96F3B
:10485000531E49020B44B3FBF1F30344B3FBF5F2DF
:1048600005FB12320AB12B449B1A23602368B34222
:10487000E6D32DE0DAF800000023029F092203A905
:104880003844FFF7C7FC012805D010F0FF0FD4D043
:104890000228EBD1D0E7039A9BF80030022B07D017
:1048A000032BC9D1019B52F8233023F0704302E05F
:1048B000019B32F81330B9F1010FB3FA83F3216889
:1048C0008CBF002701275B099F4204D18E42B4D8D8
:1048D00026600320B1E7019B29442B442160434516
:1048E0000193D9D3029B0133029300230193BDE7C7
:1048F00001259AE72485012040850120AC73012021
:1049000070B5304D044605F10C0694F83430052B93
:1049100012D8DFE803F00325303840492A6804F153
:10492000300101200232FFF76BFF012806D010F0A2
:10493000FF0F01D0032811D9002070BD224A236B3C
:104940001168E268336002EB41222361E260E26AAF
:1049500002B96362012384F83430D6E70523FAE70D
:104960004FF0FF31206BFFF794FD0128E4D1E36A9B
:104970003BB10223EFE7D4E90B01FFF78AFD0128E1
:10498000DAD10323E7E700212046FFF74FFD012896
:10499000D2D10423DFE794F82830082B02D100237A
:1049A00084F828300120C8E794F828300121074A0C
:1049B0000220082B04BF002384F8283041F2B513ED
:1049C000D154BAE7B4850120BC850120AC73012025
:1049D00010B5044608B9FBF7EFFE204610BD38B508
:1049E0000023154C04F87A3954F80E0C88421ED175
:1049F000207803281BD1114C03F581754AB9042393
:104A000041F29C0204EB0515AB71A3580133A3508E
:104A100038BD04F1180104EB051401EB4323D31A4C
:104A200058425841FFF7D4FF0123A371F0E7013347
:104A30001034082BD8D1EBE74C840120AC73012053
:104A400043682DE9F743C3F3080204460E460A44BF
:104A5000B2F5007F03D21E440120666040E0FFF7FC
:104A6000ABFB0378022B01D16368F4E7214A41F2E2
:104A70001023D7587F02B7423ADB41F2182341682E
:104A8000D35801EA0308C8F10003B34230DC06EB57
:104A90000803BB421FD3237E006913F0080522D010
:104AA00041F29413451C52F80390A94534BF0020ED
:104AB0000120FFF78DFFA9450ABF0023019501934F
:104AC0002369F61B63614644019B236163683B4491
:104AD000A3EB080363602046FBF77AFE0028C3D0EF
:104AE00003B0BDE8F08301A9FFF77CFC0128E7D003
:104AF0000020F5E7AC73012070B504460E4615465C
:104B0000FFF79EFF20B10DB12046A847012007E026
:104B100094F82800022320B984F82830C4E90B5601
:104B200070BD1846FCE7D0E9013210B59A422CBF9F
:104B300082608360FFF740FB0022436A42611146B6
:104B400003614260BDE81040D6E708B54422002169
:104B500011483EF03FFA114B41F2D2124FF6FF716D
:104B60000D489952032141F2D01299541A78022A21
:104B700018BF0A4641F2B8115A5441F21C22995802
:104B800041F2DC12995041F2D11210219954FFF7F1
:104B9000CAFF012008BD00BF64850120AC7301205D
:104BA0002DE9F04F466885B0044689461746C6F39E
:104BB00008064FF00008DFF884A1BFB1C6F5007504
:104BC00094F91AB02046BD4228BF3D46BBF1FF3FD5
:104BD00010D0FBF735FE544B41F2180203EB0B11DA
:104BE0008A58904200F09A80FBF7E6FD404605B0F7
:104BF000BDE8F08FFBF7ECFD20B3237E94F828107E
:104C00001A0771D50629F1D0FFF788FC474B1B68BE
:104C1000984205D9444A41F2B5130121D154E5E740
:104C2000434B1B78002BE1D10029DFD1062384F808
:104C30003810204684F828306369E362FFF780FD6E
:104C40000128D3D12046FBF7FBFD63688346C3F3FD
:104C50000802002A5ED123F4FF71A26821F001014D
:104C600001F5007191422CBF06210721227E02F03E
:104C70000C020C2A50D10193FFF750FC019B013824
:104C800000EA0302FFF726FCDAF800304343A3EB07
:104C900052230A46584603A9FFF7BCFA0128A5D1BA
:104CA0000398FBF705FEA076039800289ED02A46BD
:104CB00049463044A8443DF085FF0022294620465D
:104CC000FFF71AFF002891D0237E1B0708D5194B48
:104CD00020691B6898422CBF00200120FFF778FE56
:104CE0007F1BA944002668E7114B1B78002B7FF43B
:104CF0007DAF00297FF47AAF082384F83410204672
:104D000084F828306369E3620B4B1B682363FFF769
:104D1000F7FD95E70721A9E70023BAE7183303EB6E
:104D20004B230393C0E700BFAC730120248501200F
:104D30006185012040850120C0850120BC850120BE
:104D400070B503780446023B012B1CD8237E9906DC
:104D500023D42046FFF730FA237E1A070AD51F4EC8
:104D600041F29815705DC31F58425841FFF730FE5D
:104D7000002373550023237084F82830E36A5BB165
:104D8000BDE870401847037E13F0060FDED0012106
:104D9000FFF74CFB0128D9D070BDE2690023104910
:104DA00018014058824211D10C4903F5817201EB80
:104DB0000213DB79C3F34503012B0BD8002301EB6E
:104DC0000212D17963F34601D171C2E70133082B96
:104DD000E6D1BEE7013B03F03F03F0E7AC730120EF
:104DE000C483012010B580B1027872B190F82820F8
:104DF0006AB9C162D0E9012494422CBF8460826008
:104E0000032280F82820FFF79BFF012010BD00201F
:104E1000FCE72DE9F347DFF82491044609F1080A7D
:104E200094F83850032D00F28380DFE805F002107B
:104E300070792046FFF764FD012802D184F838001C
:104E4000EEE7022875D1032384F83830E8E72378A9
:104E500020466668022B1CBFDAF800301E40FBF7C4
:104E6000EFFC0746C6F34F26361A0023022201A99B
:104E70003846FFF7CFF906EB0708012805461FFA69
:104E800088F856D14FF40072002101983EF0A2F844
:104E9000E36913B3636803BB019B4FF020322E21FB
:104EA0001A605A601970C3F80720606A83F82010EE
:104EB000C0F30F455883102083F82110C3F8222037
:104EC000D872C3F8262083F82A20E26B9D82C2F3B1
:104ED0000F415A8783F82B009986D9F800104B1E92
:104EE000984508D24FF400712046FFF7A9FD01371D
:104EF000FFF76EFDB9E7C1EBC1512046490201F54C
:104F00000071FFF79DFDFFF763FD02239CE700237F
:104F100084F82830236C0BB120469847012508E01F
:104F20000020236C84F8280003B19847022500E094
:104F30000025284602B0BDE8F08700BFBC850120EF
:104F4000B1F904300F2B2DE9F34104460D46164606
:104F50000BD14FF40071FFF773FD18B9002002B0B8
:104F6000BDE8F0814FF6FF73AB802046FBF768FC8D
:104F700094F91B200746531C11D01F4B41F2180116
:104F800003EB021041588F4230D0FBF715FC20464E
:104F9000FBF71EFC0028E1D00023336024E020460C
:104FA000FBF716FC80460028F1D1381C18BF012001
:104FB000FFF70EFD4346112201A93846FFF72AF9F3
:104FC0000128E4D10198FBF773FCE076019A002AEE
:104FD000DDD0AB88204601331BB2AB8002EB43131C
:104FE0003360FBF72DFC28600120B8E7183303EB92
:104FF00042230193EAE700BFAC7301202DE9F041A1
:10500000914D86B0044605F1280694F83030042B03
:1050100011D8DFE813F0130005005400CF0015018C
:1050200004F11C0801AA41462846FFF789FF012820
:105030000ED002283ED006B0BDE8F0812846FFF72A
:1050400072FD4FF6FF732384012384F83030DCE7D0
:10505000019F0FB13B7863B92846FFF7ADF8237E77
:10506000D9062AD5FFF75FFD4FF6FF73238402238D
:10507000EBE70B2204F1310138463EF0B3F800288B
:10508000D0D1BA8A7B8B43EA0243704A12686362CA
:105090005202FB69B3FBF2F102FB1131A36009B1CB
:1050A00013445B1AE3602846FB7A6376FFF784F8C3
:1050B0000323CAE72846FFF77FF80423C5E73378C0
:1050C000002BB8D1624FA7F1380801AA04F11C01E6
:1050D0005D48FFF735FF01284BD1019878B303787D
:1050E000E52B01D0002BF0D15A4FFBF7E1FB07EB8A
:1050F0000010FBF7C9FB07F5D070FFF75DF8202221
:10510000002101983DF066FF2346019A03A853F859
:10511000311F116059685160198911819B7A93720E
:10512000019B627EDA7237F0C0FF019B20BB6FF0FB
:105130007E029873D8731A7447225A7435E02B781C
:10514000022BBAD03278002AB7D109233A704046F0
:105150003370414BC3E9002253F8281C03F8082C94
:105160001A6A43F8101C43F80C2CFFF752FE012872
:10517000ABD00228A1D05EE79DF80E109DF80F205D
:1051800042EA4112BDF80C10A1F2BC7142EA412280
:105190009DF811101A829DF81020D20242EA4112A5
:1051A0009DF8121042EA5102DA811A8A1A83DA89CA
:1051B000DA827DE7237E9A0608D50023112202A910
:1051C000E069FFF727F801287FF435AF2046FFF7A5
:1051D000AAFC2269237E8AB91B0708D51F4A41F21F
:1051E0009813D15C00297FF426AF0721D154002306
:1051F000204684F82830E36A98471CE703F0F7015B
:1052000013F00403E26A217607D00023A168204648
:1052100084F82830FFF770FC0DE71229E7D104214C
:10522000A263626A204684F8281084F83C306363E5
:105230006362C4E90B22C4E90233FFF774FCFAE6A7
:105240000020E36A2070D7E764850120BC85012037
:105250009C850120C4830120A0850120AC7301201E
:105260002DE9F347037804466BB190F82830013BF1
:10527000082B08D8DFE803F0050A59695C6D077050
:105280007300FFF7BBFE02B0BDE8F087354B41F27B
:10529000102246689F5841F21822DFF8CC809B58B4
:1052A0007F021E40216B20467518FBF791FA81465C
:1052B000AF4234D870B1D4E901329A422CBFA26017
:1052C000A360002384F82830E36A002BDBD020465B
:1052D0009847D8E7237E20691B071AD5451CD8F8C4
:1052E00000A0AA4534BF00200120AA4508BF4D46B2
:1052F000FFF76EFB019523696361019B236163687E
:105300003B449B1B6360236BDB1B1E442663002610
:10531000C8E701A9FFF766F80128ECD0B3E7636896
:105320000028C8D119446160C5E7FFF709FDAAE765
:105330000121FFF77DF90128A5D10023216C20462A
:1053400084F82830FFF74EFD9DE70021FFF770F944
:1053500099E7FFF7F5F996E7FFF7D2FA93E7FFF73A
:1053600058FD90E7AC73012040850120F8B50D464B
:1053700016460021442204461F463DF02BFE4FF600
:10538000FF7327762846638301232F4984F828304A
:105390003BF0B0FF28BB2D4B41F2DC129A58626201
:1053A00041F2C4129A58E26003F58E521268A2606C
:1053B00041F2D1129A5C627641F2B8129B5C237082
:1053C0002846069B2049E3623BF094FF00282046D4
:1053D0000CBF0323002384F83030FFF70FFE204674
:1053E000F8BD04F1310304F139002A462027117871
:1053F00009B12E2916D11F7001338342F7D11178DC
:1054000004F13C0020272E2908BF0132117891B900
:105410001F7001338342F9D1F30666764CBF032334
:105420000123CCE7A1F1610C0132BCF1190F98BF47
:1054300020391970E0E7A1F1610C0132BCF1190FBC
:1054400098BF20391970E4E71BD00508AC73012020
:1054500038B5134C0023A07BE0B125688D4219D1EB
:10546000104C03F581751AB904EB0514A27138BD0F
:1054700004F1180101EB43239A4209D1831E5842DB
:105480005841FFF7A5FA012304EB0514A371EEE7D9
:105490000020F6E701331034082BDCD1E7E700BF2A
:1054A000C4830120AC730120034BD3F8A00508B1DD
:1054B000C3691847704700BF8045012038B50D46C5
:1054C0001446FFF7F1FF036800202B604FF40073D0
:1054D000238038BD034BD3F8A00508B18369184772
:1054E000704700BF80450120034BD3F8A00508B1E9
:1054F00043691847704700BF80450120034BD3F82C
:10550000A00508B103691847704700BF8045012016
:105510002DE9F0470F46154698460024DFF83C90E9
:10552000A04517DD07EB442601E0FFF7E7FFD9F8B8
:10553000A03543B1D3F80CA00023314628461A46C3
:10554000D0470028F1D1FFF7D9FF0028FBD0013464
:105550000135E5E70020BDE8F08700BF8045012068
:105560002DE9F0470F4615461E460024DFF8388027
:10557000A64202DC0020BDE8F08707EB442AD8F8F9
:10558000A03503B9FEE7D3F804900023514628461E
:105590001A46C8470028F2D0FFF7B0FF0028FBD01A
:1055A00001340135E4E700BF8045012008B5FFF76D
:1055B000A5FF80F00100404240B208BD08B50020C0
:1055C000FCF756F8084B094A03F1A401D3F8A430BC
:1055D000C2F8A0159847FFF791FF0028FBD00120E3
:1055E000FCF746F8002008BD00000120804501209E
:1055F00008B5064BD3F8500128B136F077FE80F09D
:105600000100C0B208BD0120FCE700BF90230120CB
:1056100010B5FFF7EDFF0E4C18B9002384F82431C4
:1056200010BD94F82431032B04D90021D4F854017F
:1056300037F0C6F894F818310133DBB2072B84F841
:105640001831EAD8D4F8A433C4F814310123E5E7BB
:105650009023012070B51B4C05460E4694F824316A
:10566000042B10D1FBF782FA00213720FBF7C2F997
:1056700031461720FBF7BEF990B1FBF7E5F9FFF7CC
:10568000C7FF032002E0082B01D0012070BDD4F831
:105690001C31834212D0FBF763F90228F5D1E1E710
:1056A00094F81A3163B969021920FBF7A3F90028AD
:1056B000E3D10823C4E9475684F824310220E5E702
:1056C0002946F1E7902301202DE9F743274E0546AF
:1056D0000F4691469846344696F82431042B0BD059
:1056E000082B07D1D6F81C31AB4219D0FBF738F99B
:1056F0000228F1D001200EE0FBF738FA96F81A31B3
:1057000063B969021820FBF775F948B1FBF79CF9FA
:10571000FFF77EFF032003B0BDE8F0832946F1E7E1
:1057200094F82431FF220021D4F85401082B8DF87D
:10573000042001AA0CBFFC23FE238DF805300223B0
:1057400037F01DF880233A460021D4F8540137F091
:1057500016F80123002084F808310623C4E94075B7
:10576000C4E9439884F82431D5E700BF9023012091
:105770002DE9F043C74C85B0D4F85401002800F05F
:10578000A981C54D04F5A07694F82431013B082B7E
:1057900000F28A81DFE813F009004000CB008801A5
:1057A000A5011F0167018801DA01FBF7DFF900217C
:1057B0000846FBF71FF98046FBF746F9B8F1010FE1
:1057C00040F07281002784F81971FBF7CFF940F29D
:1057D000AB110820FBF70EF905280CD184F81981CC
:1057E000FBF732F994F81931002B00F050810223B5
